{"contracts/DefiLotteryV2.sol":{"DefiLotteryV2":{"abi":[{"inputs":[{"internalType":"uint64","name":"subscriptionId","type":"uint64"},{"internalType":"string","name":"_theBaseURI","type":"string"},{"internalType":"address","name":"_team","type":"address"}],"stateMutability":"nonpayable","type":"constructor"},{"inputs":[],"name":"ApprovalCallerNotOwnerNorApproved","type":"error"},{"inputs":[],"name":"ApprovalQueryForNonexistentToken","type":"error"},{"inputs":[],"name":"ApprovalToCurrentOwner","type":"error"},{"inputs":[],"name":"ApproveToCaller","type":"error"},{"inputs":[],"name":"BalanceQueryForZeroAddress","type":"error"},{"inputs":[],"name":"MintToZeroAddress","type":"error"},{"inputs":[],"name":"MintZeroQuantity","type":"error"},{"inputs":[{"internalType":"address","name":"have","type":"address"},{"internalType":"address","name":"want","type":"address"}],"name":"OnlyCoordinatorCanFulfill","type":"error"},{"inputs":[],"name":"OwnerQueryForNonexistentToken","type":"error"},{"inputs":[],"name":"TransferCallerNotOwnerNorApproved","type":"error"},{"inputs":[],"name":"TransferFromIncorrectOwner","type":"error"},{"inputs":[],"name":"TransferToNonERC721ReceiverImplementer","type":"error"},{"inputs":[],"name":"TransferToZeroAddress","type":"error"},{"inputs":[],"name":"URIQueryForNonexistentToken","type":"error"},{"anonymous":false,"inputs":[{"indexed":true,"internalType":"address","name":"owner","type":"address"},{"indexed":true,"internalType":"address","name":"approved","type":"address"},{"indexed":true,"internalType":"uint256","name":"tokenId","type":"uint256"}],"name":"Approval","type":"event"},{"anonymous":false,"inputs":[{"indexed":true,"internalType":"address","name":"owner","type":"address"},{"indexed":true,"internalType":"address","name":"operator","type":"address"},{"indexed":false,"internalType":"bool","name":"approved","type":"bool"}],"name":"ApprovalForAll","type":"event"},{"anonymous":false,"inputs":[{"indexed":true,"internalType":"address","name":"from","type":"address"},{"indexed":true,"internalType":"address","name":"to","type":"address"},{"indexed":true,"internalType":"uint256","name":"tokenId","type":"uint256"}],"name":"Transfer","type":"event"},{"inputs":[],"name":"MAX_SUPPLY","outputs":[{"internalType":"uint256","name":"","type":"uint256"}],"stateMutability":"view","type":"function"},{"inputs":[{"internalType":"address","name":"to","type":"address"},{"internalType":"uint256","name":"tokenId","type":"uint256"}],"name":"approve","outputs":[],"stateMutability":"nonpayable","type":"function"},{"inputs":[{"internalType":"address","name":"owner","type":"address"}],"name":"balanceOf","outputs":[{"internalType":"uint256","name":"","type":"uint256"}],"stateMutability":"view","type":"function"},{"inputs":[],"name":"baseExtension","outputs":[{"internalType":"string","name":"","type":"string"}],"stateMutability":"view","type":"function"},{"inputs":[],"name":"baseURI","outputs":[{"internalType":"string","name":"","type":"string"}],"stateMutability":"view","type":"function"},{"inputs":[{"internalType":"uint256","name":"_maxMintAllowed","type":"uint256"}],"name":"changeMaxMintAllowed","outputs":[],"stateMutability":"nonpayable","type":"function"},{"inputs":[{"internalType":"uint256","name":"_priceSale","type":"uint256"}],"name":"changePriceSale","outputs":[],"stateMutability":"nonpayable","type":"function"},{"inputs":[{"internalType":"address","name":"_account","type":"address"},{"internalType":"uint256","name":"_ammount","type":"uint256"}],"name":"enter","outputs":[],"stateMutability":"payable","type":"function"},{"inputs":[{"internalType":"uint256","name":"tokenId","type":"uint256"}],"name":"getApproved","outputs":[{"internalType":"address","name":"","type":"address"}],"stateMutability":"view","type":"function"},{"inputs":[],"name":"getBalance","outputs":[{"internalType":"uint256","name":"","type":"uint256"}],"stateMutability":"view","type":"function"},{"inputs":[{"internalType":"uint256","name":"_idLottery","type":"uint256"}],"name":"getWinner","outputs":[{"internalType":"address","name":"","type":"address"}],"stateMutability":"view","type":"function"},{"inputs":[{"internalType":"address","name":"owner","type":"address"},{"internalType":"address","name":"operator","type":"address"}],"name":"isApprovedForAll","outputs":[{"internalType":"bool","name":"","type":"bool"}],"stateMutability":"view","type":"function"},{"inputs":[],"name":"max_mint_allowed","outputs":[{"internalType":"uint256","name":"","type":"uint256"}],"stateMutability":"view","type":"function"},{"inputs":[],"name":"name","outputs":[{"internalType":"string","name":"","type":"string"}],"stateMutability":"view","type":"function"},{"inputs":[{"internalType":"uint256","name":"tokenId","type":"uint256"}],"name":"ownerOf","outputs":[{"internalType":"address","name":"","type":"address"}],"stateMutability":"view","type":"function"},{"inputs":[],"name":"pickWinner","outputs":[],"stateMutability":"nonpayable","type":"function"},{"inputs":[{"internalType":"uint256","name":"","type":"uint256"}],"name":"players","outputs":[{"internalType":"address payable","name":"","type":"address"}],"stateMutability":"view","type":"function"},{"inputs":[],"name":"priceSale","outputs":[{"internalType":"uint256","name":"","type":"uint256"}],"stateMutability":"view","type":"function"},{"inputs":[{"internalType":"uint256","name":"requestId","type":"uint256"},{"internalType":"uint256[]","name":"randomWords","type":"uint256[]"}],"name":"rawFulfillRandomWords","outputs":[],"stateMutability":"nonpayable","type":"function"},{"inputs":[],"name":"requestRandomWords","outputs":[],"stateMutability":"nonpayable","type":"function"},{"inputs":[{"internalType":"uint256","name":"","type":"uint256"}],"name":"s_randomWords","outputs":[{"internalType":"uint256","name":"","type":"uint256"}],"stateMutability":"view","type":"function"},{"inputs":[],"name":"s_requestId","outputs":[{"internalType":"uint256","name":"","type":"uint256"}],"stateMutability":"view","type":"function"},{"inputs":[{"internalType":"address","name":"from","type":"address"},{"internalType":"address","name":"to","type":"address"},{"internalType":"uint256","name":"tokenId","type":"uint256"}],"name":"safeTransferFrom","outputs":[],"stateMutability":"nonpayable","type":"function"},{"inputs":[{"internalType":"address","name":"from","type":"address"},{"internalType":"address","name":"to","type":"address"},{"internalType":"uint256","name":"tokenId","type":"uint256"},{"internalType":"bytes","name":"_data","type":"bytes"}],"name":"safeTransferFrom","outputs":[],"stateMutability":"nonpayable","type":"function"},{"inputs":[{"internalType":"address","name":"operator","type":"address"},{"internalType":"bool","name":"approved","type":"bool"}],"name":"setApprovalForAll","outputs":[],"stateMutability":"nonpayable","type":"function"},{"inputs":[{"internalType":"string","name":"_baseExtension","type":"string"}],"name":"setBaseExtension","outputs":[],"stateMutability":"nonpayable","type":"function"},{"inputs":[{"internalType":"string","name":"_newBaseURI","type":"string"}],"name":"setBaseUri","outputs":[],"stateMutability":"nonpayable","type":"function"},{"inputs":[{"internalType":"bytes4","name":"interfaceId","type":"bytes4"}],"name":"supportsInterface","outputs":[{"internalType":"bool","name":"","type":"bool"}],"stateMutability":"view","type":"function"},{"inputs":[],"name":"symbol","outputs":[{"internalType":"string","name":"","type":"string"}],"stateMutability":"view","type":"function"},{"inputs":[],"name":"toggleLottery","outputs":[],"stateMutability":"nonpayable","type":"function"},{"inputs":[{"internalType":"uint256","name":"_tokenId","type":"uint256"}],"name":"tokenURI","outputs":[{"internalType":"string","name":"","type":"string"}],"stateMutability":"view","type":"function"},{"inputs":[],"name":"totalSupply","outputs":[{"internalType":"uint256","name":"","type":"uint256"}],"stateMutability":"view","type":"function"},{"inputs":[{"internalType":"address","name":"from","type":"address"},{"internalType":"address","name":"to","type":"address"},{"internalType":"uint256","name":"tokenId","type":"uint256"}],"name":"transferFrom","outputs":[],"stateMutability":"nonpayable","type":"function"},{"inputs":[{"internalType":"uint256","name":"","type":"uint256"}],"name":"winners","outputs":[{"internalType":"address","name":"","type":"address"}],"stateMutability":"view","type":"function"}],"evm":{"bytecode":{"linkReferences":{},"object":"60326009556005600a81905564174876e800600b5560e060405260a090815264173539b7b760d91b60c052600d9062000039908262000257565b50601080546001600160a01b031916737a1bac17ccc5b313516c5e16fb24f7659aa5ebed1790557f4b09e658ed251bcafeebbc69400383d49f344ace09b9576fe248bb02c003fe9f6011556012805466010003000186a06001600160501b0319909116179055348015620000ac57600080fd5b506040516200239c3803806200239c833981016040819052620000cf9162000340565b604080518082018252600b81526a446566694c6f747465727960a81b6020808301919091528251808401909352600383526211119360ea1b908301526010546001600160a01b031660805290600262000129838262000257565b50600362000138828262000257565b506000805550506001600855601980546001600160a01b038084166001600160a01b031992831617909255601054600f80546015805490941633179093556001600160401b038716600160a01b026001600160e01b03199093169190931617179055600c620001a8838262000257565b505050506200043e565b634e487b7160e01b600052604160045260246000fd5b600181811c90821680620001dd57607f821691505b602082108103620001fe57634e487b7160e01b600052602260045260246000fd5b50919050565b601f8211156200025257600081815260208120601f850160051c810160208610156200022d5750805b601f850160051c820191505b818110156200024e5782815560010162000239565b5050505b505050565b81516001600160401b03811115620002735762000273620001b2565b6200028b81620002848454620001c8565b8462000204565b602080601f831160018114620002c35760008415620002aa5750858301515b600019600386901b1c1916600185901b1785556200024e565b600085815260208120601f198616915b82811015620002f457888601518255948401946001909101908401620002d3565b5085821015620003135787850151600019600388901b60f8161c191681555b5050505050600190811b01905550565b80516001600160a01b03811681146200033b57600080fd5b919050565b6000806000606084860312156200035657600080fd5b83516001600160401b0380821682146200036f57600080fd5b60208681015192955091818111156200038757600080fd5b8601601f810188136200039957600080fd5b805182811115620003ae57620003ae620001b2565b604051601f8201601f19908116603f01168101908482118183101715620003d957620003d9620001b2565b816040528281528a86848601011115620003f257600080fd5b600094505b82851015620004165783850186015181860187015293850193620003f7565b6000868483010152809750505050505050620004356040850162000323565b90509250925092565b608051611f3b620004616000396000818161085701526108990152611f3b6000f3fe6080604052600436106101f95760003560e01c80637e348b7d1161010d578063bdf08b11116100a0578063e0c862891161006f578063e0c862891461058f578063e89e106a146105a4578063e985e9c5146105ba578063f6eaffc8146105da578063f71d96cb146105fa57600080fd5b8063bdf08b1114610525578063c66828621461053a578063c87b56dd1461054f578063da3ef23f1461056f57600080fd5b8063a22cb465116100dc578063a22cb46514610499578063a2fb1175146104b9578063b88d4fde146104ef578063ba0c60c91461050f57600080fd5b80637e348b7d1461043b57806381a7927e1461044e57806395d89b4114610464578063a0bcfc7f1461047957600080fd5b806323b872dd11610190578063549df2df1161015f578063549df2df146103b15780635d495aea146103d15780636352211e146103e65780636c0360eb1461040657806370a082311461041b57600080fd5b806323b872dd1461032557806332cb6b0c146103455780634129b2c91461035b57806342842e0e1461039157600080fd5b806312065fe0116101cc57806312065fe0146102af57806318160ddd146102cc5780631dcfab39146102e55780631fe543e31461030557600080fd5b806301ffc9a7146101fe57806306fdde0314610233578063081812fc14610255578063095ea7b31461028d575b600080fd5b34801561020a57600080fd5b5061021e610219366004611819565b61061a565b60405190151581526020015b60405180910390f35b34801561023f57600080fd5b5061024861066c565b60405161022a9190611886565b34801561026157600080fd5b50610275610270366004611899565b6106fe565b6040516001600160a01b03909116815260200161022a565b34801561029957600080fd5b506102ad6102a83660046118ce565b610742565b005b3480156102bb57600080fd5b50475b60405190815260200161022a565b3480156102d857600080fd5b50600154600054036102be565b3480156102f157600080fd5b506102ad610300366004611899565b610814565b34801561031157600080fd5b506102ad61032036600461193f565b61084c565b34801561033157600080fd5b506102ad6103403660046119f1565b6108d4565b34801561035157600080fd5b506102be60095481565b34801561036757600080fd5b50610275610376366004611899565b6000908152601660205260409020546001600160a01b031690565b34801561039d57600080fd5b506102ad6103ac3660046119f1565b6108e4565b3480156103bd57600080fd5b506102ad6103cc366004611899565b6108ff565b3480156103dd57600080fd5b506102ad61092e565b3480156103f257600080fd5b50610275610401366004611899565b610abd565b34801561041257600080fd5b50610248610ac8565b34801561042757600080fd5b506102be610436366004611a2d565b610b56565b6102ad6104493660046118ce565b610b9f565b34801561045a57600080fd5b506102be600b5481565b34801561047057600080fd5b50610248610dd6565b34801561048557600080fd5b506102ad610494366004611aa0565b610de5565b3480156104a557600080fd5b506102ad6104b4366004611ae9565b610e1b565b3480156104c557600080fd5b506102756104d4366004611899565b6016602052600090815260409020546001600160a01b031681565b3480156104fb57600080fd5b506102ad61050a366004611b25565b610eb0565b34801561051b57600080fd5b506102be600a5481565b34801561053157600080fd5b506102ad610efa565b34801561054657600080fd5b50610248610f45565b34801561055b57600080fd5b5061024861056a366004611899565b610f52565b34801561057b57600080fd5b506102ad61058a366004611aa0565b610fdb565b34801561059b57600080fd5b506102ad611011565b3480156105b057600080fd5b506102be60145481565b3480156105c657600080fd5b5061021e6105d5366004611ba1565b6110fb565b3480156105e657600080fd5b506102be6105f5366004611899565b611129565b34801561060657600080fd5b50610275610615366004611899565b61114a565b60006301ffc9a760e01b6001600160e01b03198316148061064b57506380ac58cd60e01b6001600160e01b03198316145b806106665750635b5e139f60e01b6001600160e01b03198316145b92915050565b60606002805461067b90611bd4565b80601f01602080910402602001604051908101604052809291908181526020018280546106a790611bd4565b80156106f45780601f106106c9576101008083540402835291602001916106f4565b820191906000526020600020905b8154815290600101906020018083116106d757829003601f168201915b5050505050905090565b600061070982611174565b610726576040516333d1c03960e21b815260040160405180910390fd5b506000908152600660205260409020546001600160a01b031690565b600061074d8261119b565b9050806001600160a01b0316836001600160a01b0316036107815760405163250fdee360e21b815260040160405180910390fd5b336001600160a01b038216146107b85761079b81336110fb565b6107b8576040516367d9dca160e11b815260040160405180910390fd5b60008281526006602052604080822080546001600160a01b0319166001600160a01b0387811691821790925591518593918516917f8c5be1e5ebec7d5bd14f71427d1e84f3dd0314c0f7b2291e5b200ac8c7c3b92591a4505050565b6015546001600160a01b031633146108475760405162461bcd60e51b815260040161083e90611c0e565b60405180910390fd5b600b55565b336001600160a01b037f000000000000000000000000000000000000000000000000000000000000000016146108c65760405163073e64fd60e21b81523360048201526001600160a01b037f000000000000000000000000000000000000000000000000000000000000000016602482015260440161083e565b6108d08282611209565b5050565b6108df83838361121c565b505050565b6108df83838360405180602001604052806000815250610eb0565b6015546001600160a01b031633146109295760405162461bcd60e51b815260040161083e90611c0e565b600a55565b6015546001600160a01b031633146109585760405162461bcd60e51b815260040161083e90611c0e565b6015805460ff60a01b1916600160a01b1790556000601880549050601360008154811061098757610987611c35565b906000526020600020015461099c9190611c61565b9050601881815481106109b1576109b1611c35565b6000918252602090912001546001600160a01b03166108fc6109d4606447611c8b565b6109df906050611c9f565b6040518115909202916000818181858888f19350505050158015610a07573d6000803e3d6000fd5b506019546040516001600160a01b03909116904780156108fc02916000818181858888f19350505050158015610a41573d6000803e3d6000fd5b5060188181548110610a5557610a55611c35565b600091825260208083209091015460178054845260169092526040832080546001600160a01b0319166001600160a01b03909216919091179055805491610a9b83611cb6565b909155505060408051600081526020810191829052516108d09160189161174b565b60006106668261119b565b600c8054610ad590611bd4565b80601f0160208091040260200160405190810160405280929190818152602001828054610b0190611bd4565b8015610b4e5780601f10610b2357610100808354040283529160200191610b4e565b820191906000526020600020905b815481529060010190602001808311610b3157829003601f168201915b505050505081565b600081600003610b79576040516323d3ad8160e21b815260040160405180910390fd5b506001600160a01b031660009081526005602052604090205467ffffffffffffffff1690565b600260085403610bf15760405162461bcd60e51b815260206004820152601f60248201527f5265656e7472616e637947756172643a207265656e7472616e742063616c6c00604482015260640161083e565b6002600855601554600160a01b900460ff1615610c445760405162461bcd60e51b8152602060048201526011602482015270131bdd1d195c9e481a5cc818db1bdcd959607a1b604482015260640161083e565b600b54610c518282611c9f565b341015610c955760405162461bcd60e51b81526020600482015260126024820152712737ba1032b737bab3b43a10333ab732399760711b604482015260640161083e565b600a54821115610cf15760405162461bcd60e51b815260206004820152602160248201527f596f752063616e2774206d696e74206d6f7265207468616e205820746f6b656e6044820152607360f81b606482015260840161083e565b60095482610d026001546000540390565b610d0c9190611ccf565b1115610d805760405162461bcd60e51b815260206004820152603860248201527f53616c6520697320616c6d6f737420646f6e6520616e6420776520646f6e277460448201527f206861766520656e6f75676874204e465473206c6566742e0000000000000000606482015260840161083e565b601880546001810182556000919091527fb13d2d76d1f4b7be834882e410b3e3a8afaf69f83600ae24db354391d2378d2e0180546001600160a01b03191633179055610dcc83836113d6565b5050600160085550565b60606003805461067b90611bd4565b6015546001600160a01b03163314610e0f5760405162461bcd60e51b815260040161083e90611c0e565b600c6108d08282611d28565b336001600160a01b03831603610e445760405163b06307db60e01b815260040160405180910390fd5b3360008181526007602090815260408083206001600160a01b03871680855290835292819020805460ff191686151590811790915590519081529192917f17307eab39ab6107e8899845ad3d59bd9653f200f220920489ca2b5937696c31910160405180910390a35050565b610ebb84848461121c565b6001600160a01b0383163b15610ef457610ed7848484846113f0565b610ef4576040516368d2bf6b60e11b815260040160405180910390fd5b50505050565b6015546001600160a01b03163314610f245760405162461bcd60e51b815260040161083e90611c0e565b6015805460ff60a01b198116600160a01b9182900460ff1615909102179055565b600d8054610ad590611bd4565b6060610f5d82611174565b610fa95760405162461bcd60e51b815260206004820152601f60248201527f55524920717565727920666f72206e6f6e6578697374656e7420746f6b656e00604482015260640161083e565b600c610fb4836114dc565b604051602001610fc5929190611de8565b6040516020818303038152906040529050919050565b6015546001600160a01b031633146110055760405162461bcd60e51b815260040161083e90611c0e565b600d6108d08282611d28565b6015546001600160a01b0316331461103b5760405162461bcd60e51b815260040161083e90611c0e565b600f546011546012546040516305d3b1d360e41b81526004810192909252600160a01b830467ffffffffffffffff166024830152640100000000810461ffff16604483015263ffffffff808216606484015266010000000000009091041660848201526001600160a01b0390911690635d3b1d309060a4016020604051808303816000875af11580156110d2573d6000803e3d6000fd5b505050506040513d601f19601f820116820180604052508101906110f69190611e7f565b601455565b6001600160a01b03918216600090815260076020908152604080832093909416825291909152205460ff1690565b6013818154811061113957600080fd5b600091825260209091200154905081565b6018818154811061115a57600080fd5b6000918252602090912001546001600160a01b0316905081565b6000805482108015610666575050600090815260046020526040902054600160e01b161590565b6000816000548110156111f05760008181526004602052604081205490600160e01b821690036111ee575b806000036111e75750600019016000818152600460205260409020546111c6565b9392505050565b505b604051636f96cda160e11b815260040160405180910390fd5b80516108df9060139060208401906117b0565b60006112278261119b565b9050836001600160a01b0316816001600160a01b03161461125a5760405162a1148160e81b815260040160405180910390fd5b6000828152600660205260408120546001600160a01b039081169190861633148061128a575061128a86336110fb565b8061129d57506001600160a01b03821633145b9050806112bd57604051632ce44b5f60e11b815260040160405180910390fd5b846000036112de57604051633a954ecd60e21b815260040160405180910390fd5b811561130157600084815260066020526040902080546001600160a01b03191690555b6001600160a01b038681166000908152600560209081526040808320805460001901905592881682528282208054600101905586825260049052908120600160e11b4260a01b881781179091558416900361138c5760018401600081815260046020526040812054900361138a57600054811461138a5760008181526004602052604090208490555b505b83856001600160a01b0316876001600160a01b03167fddf252ad1be2c89b69c2b068fc378daa952ba7f163c4a11628f55a4df523b3ef60405160405180910390a45b505050505050565b6108d08282604051806020016040528060008152506115dd565b604051630a85bd0160e11b81526000906001600160a01b0385169063150b7a0290611425903390899088908890600401611e98565b6020604051808303816000875af1925050508015611460575060408051601f3d908101601f1916820190925261145d91810190611ed5565b60015b6114be573d80801561148e576040519150601f19603f3d011682016040523d82523d6000602084013e611493565b606091505b5080516000036114b6576040516368d2bf6b60e11b815260040160405180910390fd5b805181602001fd5b6001600160e01b031916630a85bd0160e11b1490505b949350505050565b6060816000036115035750506040805180820190915260018152600360fc1b602082015290565b8160005b811561152d578061151781611cb6565b91506115269050600a83611c8b565b9150611507565b60008167ffffffffffffffff811115611548576115486118f8565b6040519080825280601f01601f191660200182016040528015611572576020820181803683370190505b5090505b84156114d457611587600183611ef2565b9150611594600a86611c61565b61159f906030611ccf565b60f81b8183815181106115b4576115b4611c35565b60200101906001600160f81b031916908160001a9053506115d6600a86611c8b565b9450611576565b6000548360000361160057604051622e076360e81b815260040160405180910390fd5b826000036116215760405163b562e8dd60e01b815260040160405180910390fd5b6001600160a01b03841660008181526005602090815260408083208054680100000000000000018902019055848352600490915290204260a01b86176001861460e11b1790558190818501903b156116f6575b60405182906001600160a01b038816906000907fddf252ad1be2c89b69c2b068fc378daa952ba7f163c4a11628f55a4df523b3ef908290a46116bf60008784806001019550876113f0565b6116dc576040516368d2bf6b60e11b815260040160405180910390fd5b8082106116745782600054146116f157600080fd5b61173b565b5b6040516001830192906001600160a01b038816906000907fddf252ad1be2c89b69c2b068fc378daa952ba7f163c4a11628f55a4df523b3ef908290a48082106116f7575b506000908155610ef49085838684565b8280548282559060005260206000209081019282156117a0579160200282015b828111156117a057825182546001600160a01b0319166001600160a01b0390911617825560209092019160019091019061176b565b506117ac9291506117eb565b5090565b8280548282559060005260206000209081019282156117a0579160200282015b828111156117a05782518255916020019190600101906117d0565b5b808211156117ac57600081556001016117ec565b6001600160e01b03198116811461181657600080fd5b50565b60006020828403121561182b57600080fd5b81356111e781611800565b60005b83811015611851578181015183820152602001611839565b50506000910152565b60008151808452611872816020860160208601611836565b601f01601f19169290920160200192915050565b6020815260006111e7602083018461185a565b6000602082840312156118ab57600080fd5b5035919050565b80356001600160a01b03811681146118c957600080fd5b919050565b600080604083850312156118e157600080fd5b6118ea836118b2565b946020939093013593505050565b634e487b7160e01b600052604160045260246000fd5b604051601f8201601f1916810167ffffffffffffffff81118282101715611937576119376118f8565b604052919050565b6000806040838503121561195257600080fd5b8235915060208084013567ffffffffffffffff8082111561197257600080fd5b818601915086601f83011261198657600080fd5b813581811115611998576119986118f8565b8060051b91506119a984830161190e565b81815291830184019184810190898411156119c357600080fd5b938501935b838510156119e1578435825293850193908501906119c8565b8096505050505050509250929050565b600080600060608486031215611a0657600080fd5b611a0f846118b2565b9250611a1d602085016118b2565b9150604084013590509250925092565b600060208284031215611a3f57600080fd5b6111e7826118b2565b600067ffffffffffffffff831115611a6257611a626118f8565b611a75601f8401601f191660200161190e565b9050828152838383011115611a8957600080fd5b828260208301376000602084830101529392505050565b600060208284031215611ab257600080fd5b813567ffffffffffffffff811115611ac957600080fd5b8201601f81018413611ada57600080fd5b6114d484823560208401611a48565b60008060408385031215611afc57600080fd5b611b05836118b2565b915060208301358015158114611b1a57600080fd5b809150509250929050565b60008060008060808587031215611b3b57600080fd5b611b44856118b2565b9350611b52602086016118b2565b925060408501359150606085013567ffffffffffffffff811115611b7557600080fd5b8501601f81018713611b8657600080fd5b611b9587823560208401611a48565b91505092959194509250565b60008060408385031215611bb457600080fd5b611bbd836118b2565b9150611bcb602084016118b2565b90509250929050565b600181811c90821680611be857607f821691505b602082108103611c0857634e487b7160e01b600052602260045260246000fd5b50919050565b6020808252600d908201526c2737ba103a34329037bbb732b960991b604082015260600190565b634e487b7160e01b600052603260045260246000fd5b634e487b7160e01b600052601260045260246000fd5b600082611c7057611c70611c4b565b500690565b634e487b7160e01b600052601160045260246000fd5b600082611c9a57611c9a611c4b565b500490565b808202811582820484141761066657610666611c75565b600060018201611cc857611cc8611c75565b5060010190565b8082018082111561066657610666611c75565b601f8211156108df57600081815260208120601f850160051c81016020861015611d095750805b601f850160051c820191505b818110156113ce57828155600101611d15565b815167ffffffffffffffff811115611d4257611d426118f8565b611d5681611d508454611bd4565b84611ce2565b602080601f831160018114611d8b5760008415611d735750858301515b600019600386901b1c1916600185901b1785556113ce565b600085815260208120601f198616915b82811015611dba57888601518255948401946001909101908401611d9b565b5085821015611dd85787850151600019600388901b60f8161c191681555b5050505050600190811b01905550565b6000808454611df681611bd4565b60018281168015611e0e5760018114611e2357611e52565b60ff1984168752821515830287019450611e52565b8860005260208060002060005b85811015611e495781548a820152908401908201611e30565b50505082870194505b505050508351611e66818360208801611836565b64173539b7b760d91b9101908152600501949350505050565b600060208284031215611e9157600080fd5b5051919050565b6001600160a01b0385811682528416602082015260408101839052608060608201819052600090611ecb9083018461185a565b9695505050505050565b600060208284031215611ee757600080fd5b81516111e781611800565b8181038181111561066657610666611c7556fea2646970667358221220993dab8d57964a4ea15ae98c7bd90824e63ad2a88e0255a7dc451f2bfda76c5664736f6c63430008110033","opcodes":"PUSH1 0x32 PUSH1 0x9 SSTORE PUSH1 0x5 PUSH1 0xA DUP2 SWAP1 SSTORE PUSH5 0x174876E800 PUSH1 0xB SSTORE PUSH1 0xE0 PUSH1 0x40 MSTORE PUSH1 0xA0 SWAP1 DUP2 MSTORE PUSH5 0x173539B7B7 PUSH1 0xD9 SHL PUSH1 0xC0 MSTORE PUSH1 0xD SWAP1 PUSH3 0x39 SWAP1 DUP3 PUSH3 0x257 JUMP JUMPDEST POP PUSH1 0x10 DUP1 SLOAD PUSH1 0x1 PUSH1 0x1 PUSH1 0xA0 SHL SUB NOT AND PUSH20 0x7A1BAC17CCC5B313516C5E16FB24F7659AA5EBED OR SWAP1 SSTORE PUSH32 0x4B09E658ED251BCAFEEBBC69400383D49F344ACE09B9576FE248BB02C003FE9F PUSH1 0x11 SSTORE PUSH1 0x12 DUP1 SLOAD PUSH7 0x10003000186A0 PUSH1 0x1 PUSH1 0x1 PUSH1 0x50 SHL SUB NOT SWAP1 SWAP2 AND OR SWAP1 SSTORE CALLVALUE DUP1 ISZERO PUSH3 0xAC JUMPI PUSH1 0x0 DUP1 REVERT JUMPDEST POP PUSH1 0x40 MLOAD PUSH3 0x239C CODESIZE SUB DUP1 PUSH3 0x239C DUP4 CODECOPY DUP2 ADD PUSH1 0x40 DUP2 SWAP1 MSTORE PUSH3 0xCF SWAP2 PUSH3 0x340 JUMP JUMPDEST PUSH1 0x40 DUP1 MLOAD DUP1 DUP3 ADD DUP3 MSTORE PUSH1 0xB DUP2 MSTORE PUSH11 0x446566694C6F7474657279 PUSH1 0xA8 SHL PUSH1 0x20 DUP1 DUP4 ADD SWAP2 SWAP1 SWAP2 MSTORE DUP3 MLOAD DUP1 DUP5 ADD SWAP1 SWAP4 MSTORE PUSH1 0x3 DUP4 MSTORE PUSH3 0x111193 PUSH1 0xEA SHL SWAP1 DUP4 ADD MSTORE PUSH1 0x10 SLOAD PUSH1 0x1 PUSH1 0x1 PUSH1 0xA0 SHL SUB AND PUSH1 0x80 MSTORE SWAP1 PUSH1 0x2 PUSH3 0x129 DUP4 DUP3 PUSH3 0x257 JUMP JUMPDEST POP PUSH1 0x3 PUSH3 0x138 DUP3 DUP3 PUSH3 0x257 JUMP JUMPDEST POP PUSH1 0x0 DUP1 SSTORE POP POP PUSH1 0x1 PUSH1 0x8 SSTORE PUSH1 0x19 DUP1 SLOAD PUSH1 0x1 PUSH1 0x1 PUSH1 0xA0 SHL SUB DUP1 DUP5 AND PUSH1 0x1 PUSH1 0x1 PUSH1 0xA0 SHL SUB NOT SWAP3 DUP4 AND OR SWAP1 SWAP3 SSTORE PUSH1 0x10 SLOAD PUSH1 0xF DUP1 SLOAD PUSH1 0x15 DUP1 SLOAD SWAP1 SWAP5 AND CALLER OR SWAP1 SWAP4 SSTORE PUSH1 0x1 PUSH1 0x1 PUSH1 0x40 SHL SUB DUP8 AND PUSH1 0x1 PUSH1 0xA0 SHL MUL PUSH1 0x1 PUSH1 0x1 PUSH1 0xE0 SHL SUB NOT SWAP1 SWAP4 AND SWAP2 SWAP1 SWAP4 AND OR OR SWAP1 SSTORE PUSH1 0xC PUSH3 0x1A8 DUP4 DUP3 PUSH3 0x257 JUMP JUMPDEST POP POP POP POP PUSH3 0x43E JUMP JUMPDEST PUSH4 0x4E487B71 PUSH1 0xE0 SHL PUSH1 0x0 MSTORE PUSH1 0x41 PUSH1 0x4 MSTORE PUSH1 0x24 PUSH1 0x0 REVERT JUMPDEST PUSH1 0x1 DUP2 DUP2 SHR SWAP1 DUP3 AND DUP1 PUSH3 0x1DD JUMPI PUSH1 0x7F DUP3 AND SWAP2 POP JUMPDEST PUSH1 0x20 DUP3 LT DUP2 SUB PUSH3 0x1FE JUMPI PUSH4 0x4E487B71 PUSH1 0xE0 SHL PUSH1 0x0 MSTORE PUSH1 0x22 PUSH1 0x4 MSTORE PUSH1 0x24 PUSH1 0x0 REVERT JUMPDEST POP SWAP2 SWAP1 POP JUMP JUMPDEST PUSH1 0x1F DUP3 GT ISZERO PUSH3 0x252 JUMPI PUSH1 0x0 DUP2 DUP2 MSTORE PUSH1 0x20 DUP2 KECCAK256 PUSH1 0x1F DUP6 ADD PUSH1 0x5 SHR DUP2 ADD PUSH1 0x20 DUP7 LT ISZERO PUSH3 0x22D JUMPI POP DUP1 JUMPDEST PUSH1 0x1F DUP6 ADD PUSH1 0x5 SHR DUP3 ADD SWAP2 POP JUMPDEST DUP2 DUP2 LT ISZERO PUSH3 0x24E JUMPI DUP3 DUP2 SSTORE PUSH1 0x1 ADD PUSH3 0x239 JUMP JUMPDEST POP POP POP JUMPDEST POP POP POP JUMP JUMPDEST DUP2 MLOAD PUSH1 0x1 PUSH1 0x1 PUSH1 0x40 SHL SUB DUP2 GT ISZERO PUSH3 0x273 JUMPI PUSH3 0x273 PUSH3 0x1B2 JUMP JUMPDEST PUSH3 0x28B DUP2 PUSH3 0x284 DUP5 SLOAD PUSH3 0x1C8 JUMP JUMPDEST DUP5 PUSH3 0x204 JUMP JUMPDEST PUSH1 0x20 DUP1 PUSH1 0x1F DUP4 GT PUSH1 0x1 DUP2 EQ PUSH3 0x2C3 JUMPI PUSH1 0x0 DUP5 ISZERO PUSH3 0x2AA JUMPI POP DUP6 DUP4 ADD MLOAD JUMPDEST PUSH1 0x0 NOT PUSH1 0x3 DUP7 SWAP1 SHL SHR NOT AND PUSH1 0x1 DUP6 SWAP1 SHL OR DUP6 SSTORE PUSH3 0x24E JUMP JUMPDEST PUSH1 0x0 DUP6 DUP2 MSTORE PUSH1 0x20 DUP2 KECCAK256 PUSH1 0x1F NOT DUP7 AND SWAP2 JUMPDEST DUP3 DUP2 LT ISZERO PUSH3 0x2F4 JUMPI DUP9 DUP7 ADD MLOAD DUP3 SSTORE SWAP5 DUP5 ADD SWAP5 PUSH1 0x1 SWAP1 SWAP2 ADD SWAP1 DUP5 ADD PUSH3 0x2D3 JUMP JUMPDEST POP DUP6 DUP3 LT ISZERO PUSH3 0x313 JUMPI DUP8 DUP6 ADD MLOAD PUSH1 0x0 NOT PUSH1 0x3 DUP9 SWAP1 SHL PUSH1 0xF8 AND SHR NOT AND DUP2 SSTORE JUMPDEST POP POP POP POP POP PUSH1 0x1 SWAP1 DUP2 SHL ADD SWAP1 SSTORE POP JUMP JUMPDEST DUP1 MLOAD PUSH1 0x1 PUSH1 0x1 PUSH1 0xA0 SHL SUB DUP2 AND DUP2 EQ PUSH3 0x33B JUMPI PUSH1 0x0 DUP1 REVERT JUMPDEST SWAP2 SWAP1 POP JUMP JUMPDEST PUSH1 0x0 DUP1 PUSH1 0x0 PUSH1 0x60 DUP5 DUP7 SUB SLT ISZERO PUSH3 0x356 JUMPI PUSH1 0x0 DUP1 REVERT JUMPDEST DUP4 MLOAD PUSH1 0x1 PUSH1 0x1 PUSH1 0x40 SHL SUB DUP1 DUP3 AND DUP3 EQ PUSH3 0x36F JUMPI PUSH1 0x0 DUP1 REVERT JUMPDEST PUSH1 0x20 DUP7 DUP2 ADD MLOAD SWAP3 SWAP6 POP SWAP2 DUP2 DUP2 GT ISZERO PUSH3 0x387 JUMPI PUSH1 0x0 DUP1 REVERT JUMPDEST DUP7 ADD PUSH1 0x1F DUP2 ADD DUP9 SGT PUSH3 0x399 JUMPI PUSH1 0x0 DUP1 REVERT JUMPDEST DUP1 MLOAD DUP3 DUP2 GT ISZERO PUSH3 0x3AE JUMPI PUSH3 0x3AE PUSH3 0x1B2 JUMP JUMPDEST PUSH1 0x40 MLOAD PUSH1 0x1F DUP3 ADD PUSH1 0x1F NOT SWAP1 DUP2 AND PUSH1 0x3F ADD AND DUP2 ADD SWAP1 DUP5 DUP3 GT DUP2 DUP4 LT OR ISZERO PUSH3 0x3D9 JUMPI PUSH3 0x3D9 PUSH3 0x1B2 JUMP JUMPDEST DUP2 PUSH1 0x40 MSTORE DUP3 DUP2 MSTORE DUP11 DUP7 DUP5 DUP7 ADD ADD GT ISZERO PUSH3 0x3F2 JUMPI PUSH1 0x0 DUP1 REVERT JUMPDEST PUSH1 0x0 SWAP5 POP JUMPDEST DUP3 DUP6 LT ISZERO PUSH3 0x416 JUMPI DUP4 DUP6 ADD DUP7 ADD MLOAD DUP2 DUP7 ADD DUP8 ADD MSTORE SWAP4 DUP6 ADD SWAP4 PUSH3 0x3F7 JUMP JUMPDEST PUSH1 0x0 DUP7 DUP5 DUP4 ADD ADD MSTORE DUP1 SWAP8 POP POP POP POP POP POP POP PUSH3 0x435 PUSH1 0x40 DUP6 ADD PUSH3 0x323 JUMP JUMPDEST SWAP1 POP SWAP3 POP SWAP3 POP SWAP3 JUMP JUMPDEST PUSH1 0x80 MLOAD PUSH2 0x1F3B PUSH3 0x461 PUSH1 0x0 CODECOPY PUSH1 0x0 DUP2 DUP2 PUSH2 0x857 ADD MSTORE PUSH2 0x899 ADD MSTORE PUSH2 0x1F3B PUSH1 0x0 RETURN INVALID PUSH1 0x80 PUSH1 0x40 MSTORE PUSH1 0x4 CALLDATASIZE LT PUSH2 0x1F9 JUMPI PUSH1 0x0 CALLDATALOAD PUSH1 0xE0 SHR DUP1 PUSH4 0x7E348B7D GT PUSH2 0x10D JUMPI DUP1 PUSH4 0xBDF08B11 GT PUSH2 0xA0 JUMPI DUP1 PUSH4 0xE0C86289 GT PUSH2 0x6F JUMPI DUP1 PUSH4 0xE0C86289 EQ PUSH2 0x58F JUMPI DUP1 PUSH4 0xE89E106A EQ PUSH2 0x5A4 JUMPI DUP1 PUSH4 0xE985E9C5 EQ PUSH2 0x5BA JUMPI DUP1 PUSH4 0xF6EAFFC8 EQ PUSH2 0x5DA JUMPI DUP1 PUSH4 0xF71D96CB EQ PUSH2 0x5FA JUMPI PUSH1 0x0 DUP1 REVERT JUMPDEST DUP1 PUSH4 0xBDF08B11 EQ PUSH2 0x525 JUMPI DUP1 PUSH4 0xC6682862 EQ PUSH2 0x53A JUMPI DUP1 PUSH4 0xC87B56DD EQ PUSH2 0x54F JUMPI DUP1 PUSH4 0xDA3EF23F EQ PUSH2 0x56F JUMPI PUSH1 0x0 DUP1 REVERT JUMPDEST DUP1 PUSH4 0xA22CB465 GT PUSH2 0xDC JUMPI DUP1 PUSH4 0xA22CB465 EQ PUSH2 0x499 JUMPI DUP1 PUSH4 0xA2FB1175 EQ PUSH2 0x4B9 JUMPI DUP1 PUSH4 0xB88D4FDE EQ PUSH2 0x4EF JUMPI DUP1 PUSH4 0xBA0C60C9 EQ PUSH2 0x50F JUMPI PUSH1 0x0 DUP1 REVERT JUMPDEST DUP1 PUSH4 0x7E348B7D EQ PUSH2 0x43B JUMPI DUP1 PUSH4 0x81A7927E EQ PUSH2 0x44E JUMPI DUP1 PUSH4 0x95D89B41 EQ PUSH2 0x464 JUMPI DUP1 PUSH4 0xA0BCFC7F EQ PUSH2 0x479 JUMPI PUSH1 0x0 DUP1 REVERT JUMPDEST DUP1 PUSH4 0x23B872DD GT PUSH2 0x190 JUMPI DUP1 PUSH4 0x549DF2DF GT PUSH2 0x15F JUMPI DUP1 PUSH4 0x549DF2DF EQ PUSH2 0x3B1 JUMPI DUP1 PUSH4 0x5D495AEA EQ PUSH2 0x3D1 JUMPI DUP1 PUSH4 0x6352211E EQ PUSH2 0x3E6 JUMPI DUP1 PUSH4 0x6C0360EB EQ PUSH2 0x406 JUMPI DUP1 PUSH4 0x70A08231 EQ PUSH2 0x41B JUMPI PUSH1 0x0 DUP1 REVERT JUMPDEST DUP1 PUSH4 0x23B872DD EQ PUSH2 0x325 JUMPI DUP1 PUSH4 0x32CB6B0C EQ PUSH2 0x345 JUMPI DUP1 PUSH4 0x4129B2C9 EQ PUSH2 0x35B JUMPI DUP1 PUSH4 0x42842E0E EQ PUSH2 0x391 JUMPI PUSH1 0x0 DUP1 REVERT JUMPDEST DUP1 PUSH4 0x12065FE0 GT PUSH2 0x1CC JUMPI DUP1 PUSH4 0x12065FE0 EQ PUSH2 0x2AF JUMPI DUP1 PUSH4 0x18160DDD EQ PUSH2 0x2CC JUMPI DUP1 PUSH4 0x1DCFAB39 EQ PUSH2 0x2E5 JUMPI DUP1 PUSH4 0x1FE543E3 EQ PUSH2 0x305 JUMPI PUSH1 0x0 DUP1 REVERT JUMPDEST DUP1 PUSH4 0x1FFC9A7 EQ PUSH2 0x1FE JUMPI DUP1 PUSH4 0x6FDDE03 EQ PUSH2 0x233 JUMPI DUP1 PUSH4 0x81812FC EQ PUSH2 0x255 JUMPI DUP1 PUSH4 0x95EA7B3 EQ PUSH2 0x28D JUMPI JUMPDEST PUSH1 0x0 DUP1 REVERT JUMPDEST CALLVALUE DUP1 ISZERO PUSH2 0x20A JUMPI PUSH1 0x0 DUP1 REVERT JUMPDEST POP PUSH2 0x21E PUSH2 0x219 CALLDATASIZE PUSH1 0x4 PUSH2 0x1819 JUMP JUMPDEST PUSH2 0x61A JUMP JUMPDEST PUSH1 0x40 MLOAD SWAP1 ISZERO ISZERO DUP2 MSTORE PUSH1 0x20 ADD JUMPDEST PUSH1 0x40 MLOAD DUP1 SWAP2 SUB SWAP1 RETURN JUMPDEST CALLVALUE DUP1 ISZERO PUSH2 0x23F JUMPI PUSH1 0x0 DUP1 REVERT JUMPDEST POP PUSH2 0x248 PUSH2 0x66C JUMP JUMPDEST PUSH1 0x40 MLOAD PUSH2 0x22A SWAP2 SWAP1 PUSH2 0x1886 JUMP JUMPDEST CALLVALUE DUP1 ISZERO PUSH2 0x261 JUMPI PUSH1 0x0 DUP1 REVERT JUMPDEST POP PUSH2 0x275 PUSH2 0x270 CALLDATASIZE PUSH1 0x4 PUSH2 0x1899 JUMP JUMPDEST PUSH2 0x6FE JUMP JUMPDEST PUSH1 0x40 MLOAD PUSH1 0x1 PUSH1 0x1 PUSH1 0xA0 SHL SUB SWAP1 SWAP2 AND DUP2 MSTORE PUSH1 0x20 ADD PUSH2 0x22A JUMP JUMPDEST CALLVALUE DUP1 ISZERO PUSH2 0x299 JUMPI PUSH1 0x0 DUP1 REVERT JUMPDEST POP PUSH2 0x2AD PUSH2 0x2A8 CALLDATASIZE PUSH1 0x4 PUSH2 0x18CE JUMP JUMPDEST PUSH2 0x742 JUMP JUMPDEST STOP JUMPDEST CALLVALUE DUP1 ISZERO PUSH2 0x2BB JUMPI PUSH1 0x0 DUP1 REVERT JUMPDEST POP SELFBALANCE JUMPDEST PUSH1 0x40 MLOAD SWAP1 DUP2 MSTORE PUSH1 0x20 ADD PUSH2 0x22A JUMP JUMPDEST CALLVALUE DUP1 ISZERO PUSH2 0x2D8 JUMPI PUSH1 0x0 DUP1 REVERT JUMPDEST POP PUSH1 0x1 SLOAD PUSH1 0x0 SLOAD SUB PUSH2 0x2BE JUMP JUMPDEST CALLVALUE DUP1 ISZERO PUSH2 0x2F1 JUMPI PUSH1 0x0 DUP1 REVERT JUMPDEST POP PUSH2 0x2AD PUSH2 0x300 CALLDATASIZE PUSH1 0x4 PUSH2 0x1899 JUMP JUMPDEST PUSH2 0x814 JUMP JUMPDEST CALLVALUE DUP1 ISZERO PUSH2 0x311 JUMPI PUSH1 0x0 DUP1 REVERT JUMPDEST POP PUSH2 0x2AD PUSH2 0x320 CALLDATASIZE PUSH1 0x4 PUSH2 0x193F JUMP JUMPDEST PUSH2 0x84C JUMP JUMPDEST CALLVALUE DUP1 ISZERO PUSH2 0x331 JUMPI PUSH1 0x0 DUP1 REVERT JUMPDEST POP PUSH2 0x2AD PUSH2 0x340 CALLDATASIZE PUSH1 0x4 PUSH2 0x19F1 JUMP JUMPDEST PUSH2 0x8D4 JUMP JUMPDEST CALLVALUE DUP1 ISZERO PUSH2 0x351 JUMPI PUSH1 0x0 DUP1 REVERT JUMPDEST POP PUSH2 0x2BE PUSH1 0x9 SLOAD DUP2 JUMP JUMPDEST CALLVALUE DUP1 ISZERO PUSH2 0x367 JUMPI PUSH1 0x0 DUP1 REVERT JUMPDEST POP PUSH2 0x275 PUSH2 0x376 CALLDATASIZE PUSH1 0x4 PUSH2 0x1899 JUMP JUMPDEST PUSH1 0x0 SWAP1 DUP2 MSTORE PUSH1 0x16 PUSH1 0x20 MSTORE PUSH1 0x40 SWAP1 KECCAK256 SLOAD PUSH1 0x1 PUSH1 0x1 PUSH1 0xA0 SHL SUB AND SWAP1 JUMP JUMPDEST CALLVALUE DUP1 ISZERO PUSH2 0x39D JUMPI PUSH1 0x0 DUP1 REVERT JUMPDEST POP PUSH2 0x2AD PUSH2 0x3AC CALLDATASIZE PUSH1 0x4 PUSH2 0x19F1 JUMP JUMPDEST PUSH2 0x8E4 JUMP JUMPDEST CALLVALUE DUP1 ISZERO PUSH2 0x3BD JUMPI PUSH1 0x0 DUP1 REVERT JUMPDEST POP PUSH2 0x2AD PUSH2 0x3CC CALLDATASIZE PUSH1 0x4 PUSH2 0x1899 JUMP JUMPDEST PUSH2 0x8FF JUMP JUMPDEST CALLVALUE DUP1 ISZERO PUSH2 0x3DD JUMPI PUSH1 0x0 DUP1 REVERT JUMPDEST POP PUSH2 0x2AD PUSH2 0x92E JUMP JUMPDEST CALLVALUE DUP1 ISZERO PUSH2 0x3F2 JUMPI PUSH1 0x0 DUP1 REVERT JUMPDEST POP PUSH2 0x275 PUSH2 0x401 CALLDATASIZE PUSH1 0x4 PUSH2 0x1899 JUMP JUMPDEST PUSH2 0xABD JUMP JUMPDEST CALLVALUE DUP1 ISZERO PUSH2 0x412 JUMPI PUSH1 0x0 DUP1 REVERT JUMPDEST POP PUSH2 0x248 PUSH2 0xAC8 JUMP JUMPDEST CALLVALUE DUP1 ISZERO PUSH2 0x427 JUMPI PUSH1 0x0 DUP1 REVERT JUMPDEST POP PUSH2 0x2BE PUSH2 0x436 CALLDATASIZE PUSH1 0x4 PUSH2 0x1A2D JUMP JUMPDEST PUSH2 0xB56 JUMP JUMPDEST PUSH2 0x2AD PUSH2 0x449 CALLDATASIZE PUSH1 0x4 PUSH2 0x18CE JUMP JUMPDEST PUSH2 0xB9F JUMP JUMPDEST CALLVALUE DUP1 ISZERO PUSH2 0x45A JUMPI PUSH1 0x0 DUP1 REVERT JUMPDEST POP PUSH2 0x2BE PUSH1 0xB SLOAD DUP2 JUMP JUMPDEST CALLVALUE DUP1 ISZERO PUSH2 0x470 JUMPI PUSH1 0x0 DUP1 REVERT JUMPDEST POP PUSH2 0x248 PUSH2 0xDD6 JUMP JUMPDEST CALLVALUE DUP1 ISZERO PUSH2 0x485 JUMPI PUSH1 0x0 DUP1 REVERT JUMPDEST POP PUSH2 0x2AD PUSH2 0x494 CALLDATASIZE PUSH1 0x4 PUSH2 0x1AA0 JUMP JUMPDEST PUSH2 0xDE5 JUMP JUMPDEST CALLVALUE DUP1 ISZERO PUSH2 0x4A5 JUMPI PUSH1 0x0 DUP1 REVERT JUMPDEST POP PUSH2 0x2AD PUSH2 0x4B4 CALLDATASIZE PUSH1 0x4 PUSH2 0x1AE9 JUMP JUMPDEST PUSH2 0xE1B JUMP JUMPDEST CALLVALUE DUP1 ISZERO PUSH2 0x4C5 JUMPI PUSH1 0x0 DUP1 REVERT JUMPDEST POP PUSH2 0x275 PUSH2 0x4D4 CALLDATASIZE PUSH1 0x4 PUSH2 0x1899 JUMP JUMPDEST PUSH1 0x16 PUSH1 0x20 MSTORE PUSH1 0x0 SWAP1 DUP2 MSTORE PUSH1 0x40 SWAP1 KECCAK256 SLOAD PUSH1 0x1 PUSH1 0x1 PUSH1 0xA0 SHL SUB AND DUP2 JUMP JUMPDEST CALLVALUE DUP1 ISZERO PUSH2 0x4FB JUMPI PUSH1 0x0 DUP1 REVERT JUMPDEST POP PUSH2 0x2AD PUSH2 0x50A CALLDATASIZE PUSH1 0x4 PUSH2 0x1B25 JUMP JUMPDEST PUSH2 0xEB0 JUMP JUMPDEST CALLVALUE DUP1 ISZERO PUSH2 0x51B JUMPI PUSH1 0x0 DUP1 REVERT JUMPDEST POP PUSH2 0x2BE PUSH1 0xA SLOAD DUP2 JUMP JUMPDEST CALLVALUE DUP1 ISZERO PUSH2 0x531 JUMPI PUSH1 0x0 DUP1 REVERT JUMPDEST POP PUSH2 0x2AD PUSH2 0xEFA JUMP JUMPDEST CALLVALUE DUP1 ISZERO PUSH2 0x546 JUMPI PUSH1 0x0 DUP1 REVERT JUMPDEST POP PUSH2 0x248 PUSH2 0xF45 JUMP JUMPDEST CALLVALUE DUP1 ISZERO PUSH2 0x55B JUMPI PUSH1 0x0 DUP1 REVERT JUMPDEST POP PUSH2 0x248 PUSH2 0x56A CALLDATASIZE PUSH1 0x4 PUSH2 0x1899 JUMP JUMPDEST PUSH2 0xF52 JUMP JUMPDEST CALLVALUE DUP1 ISZERO PUSH2 0x57B JUMPI PUSH1 0x0 DUP1 REVERT JUMPDEST POP PUSH2 0x2AD PUSH2 0x58A CALLDATASIZE PUSH1 0x4 PUSH2 0x1AA0 JUMP JUMPDEST PUSH2 0xFDB JUMP JUMPDEST CALLVALUE DUP1 ISZERO PUSH2 0x59B JUMPI PUSH1 0x0 DUP1 REVERT JUMPDEST POP PUSH2 0x2AD PUSH2 0x1011 JUMP JUMPDEST CALLVALUE DUP1 ISZERO PUSH2 0x5B0 JUMPI PUSH1 0x0 DUP1 REVERT JUMPDEST POP PUSH2 0x2BE PUSH1 0x14 SLOAD DUP2 JUMP JUMPDEST CALLVALUE DUP1 ISZERO PUSH2 0x5C6 JUMPI PUSH1 0x0 DUP1 REVERT JUMPDEST POP PUSH2 0x21E PUSH2 0x5D5 CALLDATASIZE PUSH1 0x4 PUSH2 0x1BA1 JUMP JUMPDEST PUSH2 0x10FB JUMP JUMPDEST CALLVALUE DUP1 ISZERO PUSH2 0x5E6 JUMPI PUSH1 0x0 DUP1 REVERT JUMPDEST POP PUSH2 0x2BE PUSH2 0x5F5 CALLDATASIZE PUSH1 0x4 PUSH2 0x1899 JUMP JUMPDEST PUSH2 0x1129 JUMP JUMPDEST CALLVALUE DUP1 ISZERO PUSH2 0x606 JUMPI PUSH1 0x0 DUP1 REVERT JUMPDEST POP PUSH2 0x275 PUSH2 0x615 CALLDATASIZE PUSH1 0x4 PUSH2 0x1899 JUMP JUMPDEST PUSH2 0x114A JUMP JUMPDEST PUSH1 0x0 PUSH4 0x1FFC9A7 PUSH1 0xE0 SHL PUSH1 0x1 PUSH1 0x1 PUSH1 0xE0 SHL SUB NOT DUP4 AND EQ DUP1 PUSH2 0x64B JUMPI POP PUSH4 0x80AC58CD PUSH1 0xE0 SHL PUSH1 0x1 PUSH1 0x1 PUSH1 0xE0 SHL SUB NOT DUP4 AND EQ JUMPDEST DUP1 PUSH2 0x666 JUMPI POP PUSH4 0x5B5E139F PUSH1 0xE0 SHL PUSH1 0x1 PUSH1 0x1 PUSH1 0xE0 SHL SUB NOT DUP4 AND EQ JUMPDEST SWAP3 SWAP2 POP POP JUMP JUMPDEST PUSH1 0x60 PUSH1 0x2 DUP1 SLOAD PUSH2 0x67B SWAP1 PUSH2 0x1BD4 JUMP JUMPDEST DUP1 PUSH1 0x1F ADD PUSH1 0x20 DUP1 SWAP2 DIV MUL PUSH1 0x20 ADD PUSH1 0x40 MLOAD SWAP1 DUP2 ADD PUSH1 0x40 MSTORE DUP1 SWAP3 SWAP2 SWAP1 DUP2 DUP2 MSTORE PUSH1 0x20 ADD DUP3 DUP1 SLOAD PUSH2 0x6A7 SWAP1 PUSH2 0x1BD4 JUMP JUMPDEST DUP1 ISZERO PUSH2 0x6F4 JUMPI DUP1 PUSH1 0x1F LT PUSH2 0x6C9 JUMPI PUSH2 0x100 DUP1 DUP4 SLOAD DIV MUL DUP4 MSTORE SWAP2 PUSH1 0x20 ADD SWAP2 PUSH2 0x6F4 JUMP JUMPDEST DUP3 ADD SWAP2 SWAP1 PUSH1 0x0 MSTORE PUSH1 0x20 PUSH1 0x0 KECCAK256 SWAP1 JUMPDEST DUP2 SLOAD DUP2 MSTORE SWAP1 PUSH1 0x1 ADD SWAP1 PUSH1 0x20 ADD DUP1 DUP4 GT PUSH2 0x6D7 JUMPI DUP3 SWAP1 SUB PUSH1 0x1F AND DUP3 ADD SWAP2 JUMPDEST POP POP POP POP POP SWAP1 POP SWAP1 JUMP JUMPDEST PUSH1 0x0 PUSH2 0x709 DUP3 PUSH2 0x1174 JUMP JUMPDEST PUSH2 0x726 JUMPI PUSH1 0x40 MLOAD PUSH4 0x33D1C039 PUSH1 0xE2 SHL DUP2 MSTORE PUSH1 0x4 ADD PUSH1 0x40 MLOAD DUP1 SWAP2 SUB SWAP1 REVERT JUMPDEST POP PUSH1 0x0 SWAP1 DUP2 MSTORE PUSH1 0x6 PUSH1 0x20 MSTORE PUSH1 0x40 SWAP1 KECCAK256 SLOAD PUSH1 0x1 PUSH1 0x1 PUSH1 0xA0 SHL SUB AND SWAP1 JUMP JUMPDEST PUSH1 0x0 PUSH2 0x74D DUP3 PUSH2 0x119B JUMP JUMPDEST SWAP1 POP DUP1 PUSH1 0x1 PUSH1 0x1 PUSH1 0xA0 SHL SUB AND DUP4 PUSH1 0x1 PUSH1 0x1 PUSH1 0xA0 SHL SUB AND SUB PUSH2 0x781 JUMPI PUSH1 0x40 MLOAD PUSH4 0x250FDEE3 PUSH1 0xE2 SHL DUP2 MSTORE PUSH1 0x4 ADD PUSH1 0x40 MLOAD DUP1 SWAP2 SUB SWAP1 REVERT JUMPDEST CALLER PUSH1 0x1 PUSH1 0x1 PUSH1 0xA0 SHL SUB DUP3 AND EQ PUSH2 0x7B8 JUMPI PUSH2 0x79B DUP2 CALLER PUSH2 0x10FB JUMP JUMPDEST PUSH2 0x7B8 JUMPI PUSH1 0x40 MLOAD PUSH4 0x67D9DCA1 PUSH1 0xE1 SHL DUP2 MSTORE PUSH1 0x4 ADD PUSH1 0x40 MLOAD DUP1 SWAP2 SUB SWAP1 REVERT JUMPDEST PUSH1 0x0 DUP3 DUP2 MSTORE PUSH1 0x6 PUSH1 0x20 MSTORE PUSH1 0x40 DUP1 DUP3 KECCAK256 DUP1 SLOAD PUSH1 0x1 PUSH1 0x1 PUSH1 0xA0 SHL SUB NOT AND PUSH1 0x1 PUSH1 0x1 PUSH1 0xA0 SHL SUB DUP8 DUP2 AND SWAP2 DUP3 OR SWAP1 SWAP3 SSTORE SWAP2 MLOAD DUP6 SWAP4 SWAP2 DUP6 AND SWAP2 PUSH32 0x8C5BE1E5EBEC7D5BD14F71427D1E84F3DD0314C0F7B2291E5B200AC8C7C3B925 SWAP2 LOG4 POP POP POP JUMP JUMPDEST PUSH1 0x15 SLOAD PUSH1 0x1 PUSH1 0x1 PUSH1 0xA0 SHL SUB AND CALLER EQ PUSH2 0x847 JUMPI PUSH1 0x40 MLOAD PUSH3 0x461BCD PUSH1 0xE5 SHL DUP2 MSTORE PUSH1 0x4 ADD PUSH2 0x83E SWAP1 PUSH2 0x1C0E JUMP JUMPDEST PUSH1 0x40 MLOAD DUP1 SWAP2 SUB SWAP1 REVERT JUMPDEST PUSH1 0xB SSTORE JUMP JUMPDEST CALLER PUSH1 0x1 PUSH1 0x1 PUSH1 0xA0 SHL SUB PUSH32 0x0 AND EQ PUSH2 0x8C6 JUMPI PUSH1 0x40 MLOAD PUSH4 0x73E64FD PUSH1 0xE2 SHL DUP2 MSTORE CALLER PUSH1 0x4 DUP3 ADD MSTORE PUSH1 0x1 PUSH1 0x1 PUSH1 0xA0 SHL SUB PUSH32 0x0 AND PUSH1 0x24 DUP3 ADD MSTORE PUSH1 0x44 ADD PUSH2 0x83E JUMP JUMPDEST PUSH2 0x8D0 DUP3 DUP3 PUSH2 0x1209 JUMP JUMPDEST POP POP JUMP JUMPDEST PUSH2 0x8DF DUP4 DUP4 DUP4 PUSH2 0x121C JUMP JUMPDEST POP POP POP JUMP JUMPDEST PUSH2 0x8DF DUP4 DUP4 DUP4 PUSH1 0x40 MLOAD DUP1 PUSH1 0x20 ADD PUSH1 0x40 MSTORE DUP1 PUSH1 0x0 DUP2 MSTORE POP PUSH2 0xEB0 JUMP JUMPDEST PUSH1 0x15 SLOAD PUSH1 0x1 PUSH1 0x1 PUSH1 0xA0 SHL SUB AND CALLER EQ PUSH2 0x929 JUMPI PUSH1 0x40 MLOAD PUSH3 0x461BCD PUSH1 0xE5 SHL DUP2 MSTORE PUSH1 0x4 ADD PUSH2 0x83E SWAP1 PUSH2 0x1C0E JUMP JUMPDEST PUSH1 0xA SSTORE JUMP JUMPDEST PUSH1 0x15 SLOAD PUSH1 0x1 PUSH1 0x1 PUSH1 0xA0 SHL SUB AND CALLER EQ PUSH2 0x958 JUMPI PUSH1 0x40 MLOAD PUSH3 0x461BCD PUSH1 0xE5 SHL DUP2 MSTORE PUSH1 0x4 ADD PUSH2 0x83E SWAP1 PUSH2 0x1C0E JUMP JUMPDEST PUSH1 0x15 DUP1 SLOAD PUSH1 0xFF PUSH1 0xA0 SHL NOT AND PUSH1 0x1 PUSH1 0xA0 SHL OR SWAP1 SSTORE PUSH1 0x0 PUSH1 0x18 DUP1 SLOAD SWAP1 POP PUSH1 0x13 PUSH1 0x0 DUP2 SLOAD DUP2 LT PUSH2 0x987 JUMPI PUSH2 0x987 PUSH2 0x1C35 JUMP JUMPDEST SWAP1 PUSH1 0x0 MSTORE PUSH1 0x20 PUSH1 0x0 KECCAK256 ADD SLOAD PUSH2 0x99C SWAP2 SWAP1 PUSH2 0x1C61 JUMP JUMPDEST SWAP1 POP PUSH1 0x18 DUP2 DUP2 SLOAD DUP2 LT PUSH2 0x9B1 JUMPI PUSH2 0x9B1 PUSH2 0x1C35 JUMP JUMPDEST PUSH1 0x0 SWAP2 DUP3 MSTORE PUSH1 0x20 SWAP1 SWAP2 KECCAK256 ADD SLOAD PUSH1 0x1 PUSH1 0x1 PUSH1 0xA0 SHL SUB AND PUSH2 0x8FC PUSH2 0x9D4 PUSH1 0x64 SELFBALANCE PUSH2 0x1C8B JUMP JUMPDEST PUSH2 0x9DF SWAP1 PUSH1 0x50 PUSH2 0x1C9F JUMP JUMPDEST PUSH1 0x40 MLOAD DUP2 ISZERO SWAP1 SWAP3 MUL SWAP2 PUSH1 0x0 DUP2 DUP2 DUP2 DUP6 DUP9 DUP9 CALL SWAP4 POP POP POP POP ISZERO DUP1 ISZERO PUSH2 0xA07 JUMPI RETURNDATASIZE PUSH1 0x0 DUP1 RETURNDATACOPY RETURNDATASIZE PUSH1 0x0 REVERT JUMPDEST POP PUSH1 0x19 SLOAD PUSH1 0x40 MLOAD PUSH1 0x1 PUSH1 0x1 PUSH1 0xA0 SHL SUB SWAP1 SWAP2 AND SWAP1 SELFBALANCE DUP1 ISZERO PUSH2 0x8FC MUL SWAP2 PUSH1 0x0 DUP2 DUP2 DUP2 DUP6 DUP9 DUP9 CALL SWAP4 POP POP POP POP ISZERO DUP1 ISZERO PUSH2 0xA41 JUMPI RETURNDATASIZE PUSH1 0x0 DUP1 RETURNDATACOPY RETURNDATASIZE PUSH1 0x0 REVERT JUMPDEST POP PUSH1 0x18 DUP2 DUP2 SLOAD DUP2 LT PUSH2 0xA55 JUMPI PUSH2 0xA55 PUSH2 0x1C35 JUMP JUMPDEST PUSH1 0x0 SWAP2 DUP3 MSTORE PUSH1 0x20 DUP1 DUP4 KECCAK256 SWAP1 SWAP2 ADD SLOAD PUSH1 0x17 DUP1 SLOAD DUP5 MSTORE PUSH1 0x16 SWAP1 SWAP3 MSTORE PUSH1 0x40 DUP4 KECCAK256 DUP1 SLOAD PUSH1 0x1 PUSH1 0x1 PUSH1 0xA0 SHL SUB NOT AND PUSH1 0x1 PUSH1 0x1 PUSH1 0xA0 SHL SUB SWAP1 SWAP3 AND SWAP2 SWAP1 SWAP2 OR SWAP1 SSTORE DUP1 SLOAD SWAP2 PUSH2 0xA9B DUP4 PUSH2 0x1CB6 JUMP JUMPDEST SWAP1 SWAP2 SSTORE POP POP PUSH1 0x40 DUP1 MLOAD PUSH1 0x0 DUP2 MSTORE PUSH1 0x20 DUP2 ADD SWAP2 DUP3 SWAP1 MSTORE MLOAD PUSH2 0x8D0 SWAP2 PUSH1 0x18 SWAP2 PUSH2 0x174B JUMP JUMPDEST PUSH1 0x0 PUSH2 0x666 DUP3 PUSH2 0x119B JUMP JUMPDEST PUSH1 0xC DUP1 SLOAD PUSH2 0xAD5 SWAP1 PUSH2 0x1BD4 JUMP JUMPDEST DUP1 PUSH1 0x1F ADD PUSH1 0x20 DUP1 SWAP2 DIV MUL PUSH1 0x20 ADD PUSH1 0x40 MLOAD SWAP1 DUP2 ADD PUSH1 0x40 MSTORE DUP1 SWAP3 SWAP2 SWAP1 DUP2 DUP2 MSTORE PUSH1 0x20 ADD DUP3 DUP1 SLOAD PUSH2 0xB01 SWAP1 PUSH2 0x1BD4 JUMP JUMPDEST DUP1 ISZERO PUSH2 0xB4E JUMPI DUP1 PUSH1 0x1F LT PUSH2 0xB23 JUMPI PUSH2 0x100 DUP1 DUP4 SLOAD DIV MUL DUP4 MSTORE SWAP2 PUSH1 0x20 ADD SWAP2 PUSH2 0xB4E JUMP JUMPDEST DUP3 ADD SWAP2 SWAP1 PUSH1 0x0 MSTORE PUSH1 0x20 PUSH1 0x0 KECCAK256 SWAP1 JUMPDEST DUP2 SLOAD DUP2 MSTORE SWAP1 PUSH1 0x1 ADD SWAP1 PUSH1 0x20 ADD DUP1 DUP4 GT PUSH2 0xB31 JUMPI DUP3 SWAP1 SUB PUSH1 0x1F AND DUP3 ADD SWAP2 JUMPDEST POP POP POP POP POP DUP2 JUMP JUMPDEST PUSH1 0x0 DUP2 PUSH1 0x0 SUB PUSH2 0xB79 JUMPI PUSH1 0x40 MLOAD PUSH4 0x23D3AD81 PUSH1 0xE2 SHL DUP2 MSTORE PUSH1 0x4 ADD PUSH1 0x40 MLOAD DUP1 SWAP2 SUB SWAP1 REVERT JUMPDEST POP PUSH1 0x1 PUSH1 0x1 PUSH1 0xA0 SHL SUB AND PUSH1 0x0 SWAP1 DUP2 MSTORE PUSH1 0x5 PUSH1 0x20 MSTORE PUSH1 0x40 SWAP1 KECCAK256 SLOAD PUSH8 0xFFFFFFFFFFFFFFFF AND SWAP1 JUMP JUMPDEST PUSH1 0x2 PUSH1 0x8 SLOAD SUB PUSH2 0xBF1 JUMPI PUSH1 0x40 MLOAD PUSH3 0x461BCD PUSH1 0xE5 SHL DUP2 MSTORE PUSH1 0x20 PUSH1 0x4 DUP3 ADD MSTORE PUSH1 0x1F PUSH1 0x24 DUP3 ADD MSTORE PUSH32 0x5265656E7472616E637947756172643A207265656E7472616E742063616C6C00 PUSH1 0x44 DUP3 ADD MSTORE PUSH1 0x64 ADD PUSH2 0x83E JUMP JUMPDEST PUSH1 0x2 PUSH1 0x8 SSTORE PUSH1 0x15 SLOAD PUSH1 0x1 PUSH1 0xA0 SHL SWAP1 DIV PUSH1 0xFF AND ISZERO PUSH2 0xC44 JUMPI PUSH1 0x40 MLOAD PUSH3 0x461BCD PUSH1 0xE5 SHL DUP2 MSTORE PUSH1 0x20 PUSH1 0x4 DUP3 ADD MSTORE PUSH1 0x11 PUSH1 0x24 DUP3 ADD MSTORE PUSH17 0x131BDD1D195C9E481A5CC818DB1BDCD959 PUSH1 0x7A SHL PUSH1 0x44 DUP3 ADD MSTORE PUSH1 0x64 ADD PUSH2 0x83E JUMP JUMPDEST PUSH1 0xB SLOAD PUSH2 0xC51 DUP3 DUP3 PUSH2 0x1C9F JUMP JUMPDEST CALLVALUE LT ISZERO PUSH2 0xC95 JUMPI PUSH1 0x40 MLOAD PUSH3 0x461BCD PUSH1 0xE5 SHL DUP2 MSTORE PUSH1 0x20 PUSH1 0x4 DUP3 ADD MSTORE PUSH1 0x12 PUSH1 0x24 DUP3 ADD MSTORE PUSH18 0x2737BA1032B737BAB3B43A10333AB7323997 PUSH1 0x71 SHL PUSH1 0x44 DUP3 ADD MSTORE PUSH1 0x64 ADD PUSH2 0x83E JUMP JUMPDEST PUSH1 0xA SLOAD DUP3 GT ISZERO PUSH2 0xCF1 JUMPI PUSH1 0x40 MLOAD PUSH3 0x461BCD PUSH1 0xE5 SHL DUP2 MSTORE PUSH1 0x20 PUSH1 0x4 DUP3 ADD MSTORE PUSH1 0x21 PUSH1 0x24 DUP3 ADD MSTORE PUSH32 0x596F752063616E2774206D696E74206D6F7265207468616E205820746F6B656E PUSH1 0x44 DUP3 ADD MSTORE PUSH1 0x73 PUSH1 0xF8 SHL PUSH1 0x64 DUP3 ADD MSTORE PUSH1 0x84 ADD PUSH2 0x83E JUMP JUMPDEST PUSH1 0x9 SLOAD DUP3 PUSH2 0xD02 PUSH1 0x1 SLOAD PUSH1 0x0 SLOAD SUB SWAP1 JUMP JUMPDEST PUSH2 0xD0C SWAP2 SWAP1 PUSH2 0x1CCF JUMP JUMPDEST GT ISZERO PUSH2 0xD80 JUMPI PUSH1 0x40 MLOAD PUSH3 0x461BCD PUSH1 0xE5 SHL DUP2 MSTORE PUSH1 0x20 PUSH1 0x4 DUP3 ADD MSTORE PUSH1 0x38 PUSH1 0x24 DUP3 ADD MSTORE PUSH32 0x53616C6520697320616C6D6F737420646F6E6520616E6420776520646F6E2774 PUSH1 0x44 DUP3 ADD MSTORE PUSH32 0x206861766520656E6F75676874204E465473206C6566742E0000000000000000 PUSH1 0x64 DUP3 ADD MSTORE PUSH1 0x84 ADD PUSH2 0x83E JUMP JUMPDEST PUSH1 0x18 DUP1 SLOAD PUSH1 0x1 DUP2 ADD DUP3 SSTORE PUSH1 0x0 SWAP2 SWAP1 SWAP2 MSTORE PUSH32 0xB13D2D76D1F4B7BE834882E410B3E3A8AFAF69F83600AE24DB354391D2378D2E ADD DUP1 SLOAD PUSH1 0x1 PUSH1 0x1 PUSH1 0xA0 SHL SUB NOT AND CALLER OR SWAP1 SSTORE PUSH2 0xDCC DUP4 DUP4 PUSH2 0x13D6 JUMP JUMPDEST POP POP PUSH1 0x1 PUSH1 0x8 SSTORE POP JUMP JUMPDEST PUSH1 0x60 PUSH1 0x3 DUP1 SLOAD PUSH2 0x67B SWAP1 PUSH2 0x1BD4 JUMP JUMPDEST PUSH1 0x15 SLOAD PUSH1 0x1 PUSH1 0x1 PUSH1 0xA0 SHL SUB AND CALLER EQ PUSH2 0xE0F JUMPI PUSH1 0x40 MLOAD PUSH3 0x461BCD PUSH1 0xE5 SHL DUP2 MSTORE PUSH1 0x4 ADD PUSH2 0x83E SWAP1 PUSH2 0x1C0E JUMP JUMPDEST PUSH1 0xC PUSH2 0x8D0 DUP3 DUP3 PUSH2 0x1D28 JUMP JUMPDEST CALLER PUSH1 0x1 PUSH1 0x1 PUSH1 0xA0 SHL SUB DUP4 AND SUB PUSH2 0xE44 JUMPI PUSH1 0x40 MLOAD PUSH4 0xB06307DB PUSH1 0xE0 SHL DUP2 MSTORE PUSH1 0x4 ADD PUSH1 0x40 MLOAD DUP1 SWAP2 SUB SWAP1 REVERT JUMPDEST CALLER PUSH1 0x0 DUP2 DUP2 MSTORE PUSH1 0x7 PUSH1 0x20 SWAP1 DUP2 MSTORE PUSH1 0x40 DUP1 DUP4 KECCAK256 PUSH1 0x1 PUSH1 0x1 PUSH1 0xA0 SHL SUB DUP8 AND DUP1 DUP6 MSTORE SWAP1 DUP4 MSTORE SWAP3 DUP2 SWAP1 KECCAK256 DUP1 SLOAD PUSH1 0xFF NOT AND DUP7 ISZERO ISZERO SWAP1 DUP2 OR SWAP1 SWAP2 SSTORE SWAP1 MLOAD SWAP1 DUP2 MSTORE SWAP2 SWAP3 SWAP2 PUSH32 0x17307EAB39AB6107E8899845AD3D59BD9653F200F220920489CA2B5937696C31 SWAP2 ADD PUSH1 0x40 MLOAD DUP1 SWAP2 SUB SWAP1 LOG3 POP POP JUMP JUMPDEST PUSH2 0xEBB DUP5 DUP5 DUP5 PUSH2 0x121C JUMP JUMPDEST PUSH1 0x1 PUSH1 0x1 PUSH1 0xA0 SHL SUB DUP4 AND EXTCODESIZE ISZERO PUSH2 0xEF4 JUMPI PUSH2 0xED7 DUP5 DUP5 DUP5 DUP5 PUSH2 0x13F0 JUMP JUMPDEST PUSH2 0xEF4 JUMPI PUSH1 0x40 MLOAD PUSH4 0x68D2BF6B PUSH1 0xE1 SHL DUP2 MSTORE PUSH1 0x4 ADD PUSH1 0x40 MLOAD DUP1 SWAP2 SUB SWAP1 REVERT JUMPDEST POP POP POP POP JUMP JUMPDEST PUSH1 0x15 SLOAD PUSH1 0x1 PUSH1 0x1 PUSH1 0xA0 SHL SUB AND CALLER EQ PUSH2 0xF24 JUMPI PUSH1 0x40 MLOAD PUSH3 0x461BCD PUSH1 0xE5 SHL DUP2 MSTORE PUSH1 0x4 ADD PUSH2 0x83E SWAP1 PUSH2 0x1C0E JUMP JUMPDEST PUSH1 0x15 DUP1 SLOAD PUSH1 0xFF PUSH1 0xA0 SHL NOT DUP2 AND PUSH1 0x1 PUSH1 0xA0 SHL SWAP2 DUP3 SWAP1 DIV PUSH1 0xFF AND ISZERO SWAP1 SWAP2 MUL OR SWAP1 SSTORE JUMP JUMPDEST PUSH1 0xD DUP1 SLOAD PUSH2 0xAD5 SWAP1 PUSH2 0x1BD4 JUMP JUMPDEST PUSH1 0x60 PUSH2 0xF5D DUP3 PUSH2 0x1174 JUMP JUMPDEST PUSH2 0xFA9 JUMPI PUSH1 0x40 MLOAD PUSH3 0x461BCD PUSH1 0xE5 SHL DUP2 MSTORE PUSH1 0x20 PUSH1 0x4 DUP3 ADD MSTORE PUSH1 0x1F PUSH1 0x24 DUP3 ADD MSTORE PUSH32 0x55524920717565727920666F72206E6F6E6578697374656E7420746F6B656E00 PUSH1 0x44 DUP3 ADD MSTORE PUSH1 0x64 ADD PUSH2 0x83E JUMP JUMPDEST PUSH1 0xC PUSH2 0xFB4 DUP4 PUSH2 0x14DC JUMP JUMPDEST PUSH1 0x40 MLOAD PUSH1 0x20 ADD PUSH2 0xFC5 SWAP3 SWAP2 SWAP1 PUSH2 0x1DE8 JUMP JUMPDEST PUSH1 0x40 MLOAD PUSH1 0x20 DUP2 DUP4 SUB SUB DUP2 MSTORE SWAP1 PUSH1 0x40 MSTORE SWAP1 POP SWAP2 SWAP1 POP JUMP JUMPDEST PUSH1 0x15 SLOAD PUSH1 0x1 PUSH1 0x1 PUSH1 0xA0 SHL SUB AND CALLER EQ PUSH2 0x1005 JUMPI PUSH1 0x40 MLOAD PUSH3 0x461BCD PUSH1 0xE5 SHL DUP2 MSTORE PUSH1 0x4 ADD PUSH2 0x83E SWAP1 PUSH2 0x1C0E JUMP JUMPDEST PUSH1 0xD PUSH2 0x8D0 DUP3 DUP3 PUSH2 0x1D28 JUMP JUMPDEST PUSH1 0x15 SLOAD PUSH1 0x1 PUSH1 0x1 PUSH1 0xA0 SHL SUB AND CALLER EQ PUSH2 0x103B JUMPI PUSH1 0x40 MLOAD PUSH3 0x461BCD PUSH1 0xE5 SHL DUP2 MSTORE PUSH1 0x4 ADD PUSH2 0x83E SWAP1 PUSH2 0x1C0E JUMP JUMPDEST PUSH1 0xF SLOAD PUSH1 0x11 SLOAD PUSH1 0x12 SLOAD PUSH1 0x40 MLOAD PUSH4 0x5D3B1D3 PUSH1 0xE4 SHL DUP2 MSTORE PUSH1 0x4 DUP2 ADD SWAP3 SWAP1 SWAP3 MSTORE PUSH1 0x1 PUSH1 0xA0 SHL DUP4 DIV PUSH8 0xFFFFFFFFFFFFFFFF AND PUSH1 0x24 DUP4 ADD MSTORE PUSH5 0x100000000 DUP2 DIV PUSH2 0xFFFF AND PUSH1 0x44 DUP4 ADD MSTORE PUSH4 0xFFFFFFFF DUP1 DUP3 AND PUSH1 0x64 DUP5 ADD MSTORE PUSH7 0x1000000000000 SWAP1 SWAP2 DIV AND PUSH1 0x84 DUP3 ADD MSTORE PUSH1 0x1 PUSH1 0x1 PUSH1 0xA0 SHL SUB SWAP1 SWAP2 AND SWAP1 PUSH4 0x5D3B1D30 SWAP1 PUSH1 0xA4 ADD PUSH1 0x20 PUSH1 0x40 MLOAD DUP1 DUP4 SUB DUP2 PUSH1 0x0 DUP8 GAS CALL ISZERO DUP1 ISZERO PUSH2 0x10D2 JUMPI RETURNDATASIZE PUSH1 0x0 DUP1 RETURNDATACOPY RETURNDATASIZE PUSH1 0x0 REVERT JUMPDEST POP POP POP POP PUSH1 0x40 MLOAD RETURNDATASIZE PUSH1 0x1F NOT PUSH1 0x1F DUP3 ADD AND DUP3 ADD DUP1 PUSH1 0x40 MSTORE POP DUP2 ADD SWAP1 PUSH2 0x10F6 SWAP2 SWAP1 PUSH2 0x1E7F JUMP JUMPDEST PUSH1 0x14 SSTORE JUMP JUMPDEST PUSH1 0x1 PUSH1 0x1 PUSH1 0xA0 SHL SUB SWAP2 DUP3 AND PUSH1 0x0 SWAP1 DUP2 MSTORE PUSH1 0x7 PUSH1 0x20 SWAP1 DUP2 MSTORE PUSH1 0x40 DUP1 DUP4 KECCAK256 SWAP4 SWAP1 SWAP5 AND DUP3 MSTORE SWAP2 SWAP1 SWAP2 MSTORE KECCAK256 SLOAD PUSH1 0xFF AND SWAP1 JUMP JUMPDEST PUSH1 0x13 DUP2 DUP2 SLOAD DUP2 LT PUSH2 0x1139 JUMPI PUSH1 0x0 DUP1 REVERT JUMPDEST PUSH1 0x0 SWAP2 DUP3 MSTORE PUSH1 0x20 SWAP1 SWAP2 KECCAK256 ADD SLOAD SWAP1 POP DUP2 JUMP JUMPDEST PUSH1 0x18 DUP2 DUP2 SLOAD DUP2 LT PUSH2 0x115A JUMPI PUSH1 0x0 DUP1 REVERT JUMPDEST PUSH1 0x0 SWAP2 DUP3 MSTORE PUSH1 0x20 SWAP1 SWAP2 KECCAK256 ADD SLOAD PUSH1 0x1 PUSH1 0x1 PUSH1 0xA0 SHL SUB AND SWAP1 POP DUP2 JUMP JUMPDEST PUSH1 0x0 DUP1 SLOAD DUP3 LT DUP1 ISZERO PUSH2 0x666 JUMPI POP POP PUSH1 0x0 SWAP1 DUP2 MSTORE PUSH1 0x4 PUSH1 0x20 MSTORE PUSH1 0x40 SWAP1 KECCAK256 SLOAD PUSH1 0x1 PUSH1 0xE0 SHL AND ISZERO SWAP1 JUMP JUMPDEST PUSH1 0x0 DUP2 PUSH1 0x0 SLOAD DUP2 LT ISZERO PUSH2 0x11F0 JUMPI PUSH1 0x0 DUP2 DUP2 MSTORE PUSH1 0x4 PUSH1 0x20 MSTORE PUSH1 0x40 DUP2 KECCAK256 SLOAD SWAP1 PUSH1 0x1 PUSH1 0xE0 SHL DUP3 AND SWAP1 SUB PUSH2 0x11EE JUMPI JUMPDEST DUP1 PUSH1 0x0 SUB PUSH2 0x11E7 JUMPI POP PUSH1 0x0 NOT ADD PUSH1 0x0 DUP2 DUP2 MSTORE PUSH1 0x4 PUSH1 0x20 MSTORE PUSH1 0x40 SWAP1 KECCAK256 SLOAD PUSH2 0x11C6 JUMP JUMPDEST SWAP4 SWAP3 POP POP POP JUMP JUMPDEST POP JUMPDEST PUSH1 0x40 MLOAD PUSH4 0x6F96CDA1 PUSH1 0xE1 SHL DUP2 MSTORE PUSH1 0x4 ADD PUSH1 0x40 MLOAD DUP1 SWAP2 SUB SWAP1 REVERT JUMPDEST DUP1 MLOAD PUSH2 0x8DF SWAP1 PUSH1 0x13 SWAP1 PUSH1 0x20 DUP5 ADD SWAP1 PUSH2 0x17B0 JUMP JUMPDEST PUSH1 0x0 PUSH2 0x1227 DUP3 PUSH2 0x119B JUMP JUMPDEST SWAP1 POP DUP4 PUSH1 0x1 PUSH1 0x1 PUSH1 0xA0 SHL SUB AND DUP2 PUSH1 0x1 PUSH1 0x1 PUSH1 0xA0 SHL SUB AND EQ PUSH2 0x125A JUMPI PUSH1 0x40 MLOAD PUSH3 0xA11481 PUSH1 0xE8 SHL DUP2 MSTORE PUSH1 0x4 ADD PUSH1 0x40 MLOAD DUP1 SWAP2 SUB SWAP1 REVERT JUMPDEST PUSH1 0x0 DUP3 DUP2 MSTORE PUSH1 0x6 PUSH1 0x20 MSTORE PUSH1 0x40 DUP2 KECCAK256 SLOAD PUSH1 0x1 PUSH1 0x1 PUSH1 0xA0 SHL SUB SWAP1 DUP2 AND SWAP2 SWAP1 DUP7 AND CALLER EQ DUP1 PUSH2 0x128A JUMPI POP PUSH2 0x128A DUP7 CALLER PUSH2 0x10FB JUMP JUMPDEST DUP1 PUSH2 0x129D JUMPI POP PUSH1 0x1 PUSH1 0x1 PUSH1 0xA0 SHL SUB DUP3 AND CALLER EQ JUMPDEST SWAP1 POP DUP1 PUSH2 0x12BD JUMPI PUSH1 0x40 MLOAD PUSH4 0x2CE44B5F PUSH1 0xE1 SHL DUP2 MSTORE PUSH1 0x4 ADD PUSH1 0x40 MLOAD DUP1 SWAP2 SUB SWAP1 REVERT JUMPDEST DUP5 PUSH1 0x0 SUB PUSH2 0x12DE JUMPI PUSH1 0x40 MLOAD PUSH4 0x3A954ECD PUSH1 0xE2 SHL DUP2 MSTORE PUSH1 0x4 ADD PUSH1 0x40 MLOAD DUP1 SWAP2 SUB SWAP1 REVERT JUMPDEST DUP2 ISZERO PUSH2 0x1301 JUMPI PUSH1 0x0 DUP5 DUP2 MSTORE PUSH1 0x6 PUSH1 0x20 MSTORE PUSH1 0x40 SWAP1 KECCAK256 DUP1 SLOAD PUSH1 0x1 PUSH1 0x1 PUSH1 0xA0 SHL SUB NOT AND SWAP1 SSTORE JUMPDEST PUSH1 0x1 PUSH1 0x1 PUSH1 0xA0 SHL SUB DUP7 DUP2 AND PUSH1 0x0 SWAP1 DUP2 MSTORE PUSH1 0x5 PUSH1 0x20 SWAP1 DUP2 MSTORE PUSH1 0x40 DUP1 DUP4 KECCAK256 DUP1 SLOAD PUSH1 0x0 NOT ADD SWAP1 SSTORE SWAP3 DUP9 AND DUP3 MSTORE DUP3 DUP3 KECCAK256 DUP1 SLOAD PUSH1 0x1 ADD SWAP1 SSTORE DUP7 DUP3 MSTORE PUSH1 0x4 SWAP1 MSTORE SWAP1 DUP2 KECCAK256 PUSH1 0x1 PUSH1 0xE1 SHL TIMESTAMP PUSH1 0xA0 SHL DUP9 OR DUP2 OR SWAP1 SWAP2 SSTORE DUP5 AND SWAP1 SUB PUSH2 0x138C JUMPI PUSH1 0x1 DUP5 ADD PUSH1 0x0 DUP2 DUP2 MSTORE PUSH1 0x4 PUSH1 0x20 MSTORE PUSH1 0x40 DUP2 KECCAK256 SLOAD SWAP1 SUB PUSH2 0x138A JUMPI PUSH1 0x0 SLOAD DUP2 EQ PUSH2 0x138A JUMPI PUSH1 0x0 DUP2 DUP2 MSTORE PUSH1 0x4 PUSH1 0x20 MSTORE PUSH1 0x40 SWAP1 KECCAK256 DUP5 SWAP1 SSTORE JUMPDEST POP JUMPDEST DUP4 DUP6 PUSH1 0x1 PUSH1 0x1 PUSH1 0xA0 SHL SUB AND DUP8 PUSH1 0x1 PUSH1 0x1 PUSH1 0xA0 SHL SUB AND PUSH32 0xDDF252AD1BE2C89B69C2B068FC378DAA952BA7F163C4A11628F55A4DF523B3EF PUSH1 0x40 MLOAD PUSH1 0x40 MLOAD DUP1 SWAP2 SUB SWAP1 LOG4 JUMPDEST POP POP POP POP POP POP JUMP JUMPDEST PUSH2 0x8D0 DUP3 DUP3 PUSH1 0x40 MLOAD DUP1 PUSH1 0x20 ADD PUSH1 0x40 MSTORE DUP1 PUSH1 0x0 DUP2 MSTORE POP PUSH2 0x15DD JUMP JUMPDEST PUSH1 0x40 MLOAD PUSH4 0xA85BD01 PUSH1 0xE1 SHL DUP2 MSTORE PUSH1 0x0 SWAP1 PUSH1 0x1 PUSH1 0x1 PUSH1 0xA0 SHL SUB DUP6 AND SWAP1 PUSH4 0x150B7A02 SWAP1 PUSH2 0x1425 SWAP1 CALLER SWAP1 DUP10 SWAP1 DUP9 SWAP1 DUP9 SWAP1 PUSH1 0x4 ADD PUSH2 0x1E98 JUMP JUMPDEST PUSH1 0x20 PUSH1 0x40 MLOAD DUP1 DUP4 SUB DUP2 PUSH1 0x0 DUP8 GAS CALL SWAP3 POP POP POP DUP1 ISZERO PUSH2 0x1460 JUMPI POP PUSH1 0x40 DUP1 MLOAD PUSH1 0x1F RETURNDATASIZE SWAP1 DUP2 ADD PUSH1 0x1F NOT AND DUP3 ADD SWAP1 SWAP3 MSTORE PUSH2 0x145D SWAP2 DUP2 ADD SWAP1 PUSH2 0x1ED5 JUMP JUMPDEST PUSH1 0x1 JUMPDEST PUSH2 0x14BE JUMPI RETURNDATASIZE DUP1 DUP1 ISZERO PUSH2 0x148E JUMPI PUSH1 0x40 MLOAD SWAP2 POP PUSH1 0x1F NOT PUSH1 0x3F RETURNDATASIZE ADD AND DUP3 ADD PUSH1 0x40 MSTORE RETURNDATASIZE DUP3 MSTORE RETURNDATASIZE PUSH1 0x0 PUSH1 0x20 DUP5 ADD RETURNDATACOPY PUSH2 0x1493 JUMP JUMPDEST PUSH1 0x60 SWAP2 POP JUMPDEST POP DUP1 MLOAD PUSH1 0x0 SUB PUSH2 0x14B6 JUMPI PUSH1 0x40 MLOAD PUSH4 0x68D2BF6B PUSH1 0xE1 SHL DUP2 MSTORE PUSH1 0x4 ADD PUSH1 0x40 MLOAD DUP1 SWAP2 SUB SWAP1 REVERT JUMPDEST DUP1 MLOAD DUP2 PUSH1 0x20 ADD REVERT JUMPDEST PUSH1 0x1 PUSH1 0x1 PUSH1 0xE0 SHL SUB NOT AND PUSH4 0xA85BD01 PUSH1 0xE1 SHL EQ SWAP1 POP JUMPDEST SWAP5 SWAP4 POP POP POP POP JUMP JUMPDEST PUSH1 0x60 DUP2 PUSH1 0x0 SUB PUSH2 0x1503 JUMPI POP POP PUSH1 0x40 DUP1 MLOAD DUP1 DUP3 ADD SWAP1 SWAP2 MSTORE PUSH1 0x1 DUP2 MSTORE PUSH1 0x3 PUSH1 0xFC SHL PUSH1 0x20 DUP3 ADD MSTORE SWAP1 JUMP JUMPDEST DUP2 PUSH1 0x0 JUMPDEST DUP2 ISZERO PUSH2 0x152D JUMPI DUP1 PUSH2 0x1517 DUP2 PUSH2 0x1CB6 JUMP JUMPDEST SWAP2 POP PUSH2 0x1526 SWAP1 POP PUSH1 0xA DUP4 PUSH2 0x1C8B JUMP JUMPDEST SWAP2 POP PUSH2 0x1507 JUMP JUMPDEST PUSH1 0x0 DUP2 PUSH8 0xFFFFFFFFFFFFFFFF DUP2 GT ISZERO PUSH2 0x1548 JUMPI PUSH2 0x1548 PUSH2 0x18F8 JUMP JUMPDEST PUSH1 0x40 MLOAD SWAP1 DUP1 DUP3 MSTORE DUP1 PUSH1 0x1F ADD PUSH1 0x1F NOT AND PUSH1 0x20 ADD DUP3 ADD PUSH1 0x40 MSTORE DUP1 ISZERO PUSH2 0x1572 JUMPI PUSH1 0x20 DUP3 ADD DUP2 DUP1 CALLDATASIZE DUP4 CALLDATACOPY ADD SWAP1 POP JUMPDEST POP SWAP1 POP JUMPDEST DUP5 ISZERO PUSH2 0x14D4 JUMPI PUSH2 0x1587 PUSH1 0x1 DUP4 PUSH2 0x1EF2 JUMP JUMPDEST SWAP2 POP PUSH2 0x1594 PUSH1 0xA DUP7 PUSH2 0x1C61 JUMP JUMPDEST PUSH2 0x159F SWAP1 PUSH1 0x30 PUSH2 0x1CCF JUMP JUMPDEST PUSH1 0xF8 SHL DUP2 DUP4 DUP2 MLOAD DUP2 LT PUSH2 0x15B4 JUMPI PUSH2 0x15B4 PUSH2 0x1C35 JUMP JUMPDEST PUSH1 0x20 ADD ADD SWAP1 PUSH1 0x1 PUSH1 0x1 PUSH1 0xF8 SHL SUB NOT AND SWAP1 DUP2 PUSH1 0x0 BYTE SWAP1 MSTORE8 POP PUSH2 0x15D6 PUSH1 0xA DUP7 PUSH2 0x1C8B JUMP JUMPDEST SWAP5 POP PUSH2 0x1576 JUMP JUMPDEST PUSH1 0x0 SLOAD DUP4 PUSH1 0x0 SUB PUSH2 0x1600 JUMPI PUSH1 0x40 MLOAD PUSH3 0x2E0763 PUSH1 0xE8 SHL DUP2 MSTORE PUSH1 0x4 ADD PUSH1 0x40 MLOAD DUP1 SWAP2 SUB SWAP1 REVERT JUMPDEST DUP3 PUSH1 0x0 SUB PUSH2 0x1621 JUMPI PUSH1 0x40 MLOAD PUSH4 0xB562E8DD PUSH1 0xE0 SHL DUP2 MSTORE PUSH1 0x4 ADD PUSH1 0x40 MLOAD DUP1 SWAP2 SUB SWAP1 REVERT JUMPDEST PUSH1 0x1 PUSH1 0x1 PUSH1 0xA0 SHL SUB DUP5 AND PUSH1 0x0 DUP2 DUP2 MSTORE PUSH1 0x5 PUSH1 0x20 SWAP1 DUP2 MSTORE PUSH1 0x40 DUP1 DUP4 KECCAK256 DUP1 SLOAD PUSH9 0x10000000000000001 DUP10 MUL ADD SWAP1 SSTORE DUP5 DUP4 MSTORE PUSH1 0x4 SWAP1 SWAP2 MSTORE SWAP1 KECCAK256 TIMESTAMP PUSH1 0xA0 SHL DUP7 OR PUSH1 0x1 DUP7 EQ PUSH1 0xE1 SHL OR SWAP1 SSTORE DUP2 SWAP1 DUP2 DUP6 ADD SWAP1 EXTCODESIZE ISZERO PUSH2 0x16F6 JUMPI JUMPDEST PUSH1 0x40 MLOAD DUP3 SWAP1 PUSH1 0x1 PUSH1 0x1 PUSH1 0xA0 SHL SUB DUP9 AND SWAP1 PUSH1 0x0 SWAP1 PUSH32 0xDDF252AD1BE2C89B69C2B068FC378DAA952BA7F163C4A11628F55A4DF523B3EF SWAP1 DUP3 SWAP1 LOG4 PUSH2 0x16BF PUSH1 0x0 DUP8 DUP5 DUP1 PUSH1 0x1 ADD SWAP6 POP DUP8 PUSH2 0x13F0 JUMP JUMPDEST PUSH2 0x16DC JUMPI PUSH1 0x40 MLOAD PUSH4 0x68D2BF6B PUSH1 0xE1 SHL DUP2 MSTORE PUSH1 0x4 ADD PUSH1 0x40 MLOAD DUP1 SWAP2 SUB SWAP1 REVERT JUMPDEST DUP1 DUP3 LT PUSH2 0x1674 JUMPI DUP3 PUSH1 0x0 SLOAD EQ PUSH2 0x16F1 JUMPI PUSH1 0x0 DUP1 REVERT JUMPDEST PUSH2 0x173B JUMP JUMPDEST JUMPDEST PUSH1 0x40 MLOAD PUSH1 0x1 DUP4 ADD SWAP3 SWAP1 PUSH1 0x1 PUSH1 0x1 PUSH1 0xA0 SHL SUB DUP9 AND SWAP1 PUSH1 0x0 SWAP1 PUSH32 0xDDF252AD1BE2C89B69C2B068FC378DAA952BA7F163C4A11628F55A4DF523B3EF SWAP1 DUP3 SWAP1 LOG4 DUP1 DUP3 LT PUSH2 0x16F7 JUMPI JUMPDEST POP PUSH1 0x0 SWAP1 DUP2 SSTORE PUSH2 0xEF4 SWAP1 DUP6 DUP4 DUP7 DUP5 JUMP JUMPDEST DUP3 DUP1 SLOAD DUP3 DUP3 SSTORE SWAP1 PUSH1 0x0 MSTORE PUSH1 0x20 PUSH1 0x0 KECCAK256 SWAP1 DUP2 ADD SWAP3 DUP3 ISZERO PUSH2 0x17A0 JUMPI SWAP2 PUSH1 0x20 MUL DUP3 ADD JUMPDEST DUP3 DUP2 GT ISZERO PUSH2 0x17A0 JUMPI DUP3 MLOAD DUP3 SLOAD PUSH1 0x1 PUSH1 0x1 PUSH1 0xA0 SHL SUB NOT AND PUSH1 0x1 PUSH1 0x1 PUSH1 0xA0 SHL SUB SWAP1 SWAP2 AND OR DUP3 SSTORE PUSH1 0x20 SWAP1 SWAP3 ADD SWAP2 PUSH1 0x1 SWAP1 SWAP2 ADD SWAP1 PUSH2 0x176B JUMP JUMPDEST POP PUSH2 0x17AC SWAP3 SWAP2 POP PUSH2 0x17EB JUMP JUMPDEST POP SWAP1 JUMP JUMPDEST DUP3 DUP1 SLOAD DUP3 DUP3 SSTORE SWAP1 PUSH1 0x0 MSTORE PUSH1 0x20 PUSH1 0x0 KECCAK256 SWAP1 DUP2 ADD SWAP3 DUP3 ISZERO PUSH2 0x17A0 JUMPI SWAP2 PUSH1 0x20 MUL DUP3 ADD JUMPDEST DUP3 DUP2 GT ISZERO PUSH2 0x17A0 JUMPI DUP3 MLOAD DUP3 SSTORE SWAP2 PUSH1 0x20 ADD SWAP2 SWAP1 PUSH1 0x1 ADD SWAP1 PUSH2 0x17D0 JUMP JUMPDEST JUMPDEST DUP1 DUP3 GT ISZERO PUSH2 0x17AC JUMPI PUSH1 0x0 DUP2 SSTORE PUSH1 0x1 ADD PUSH2 0x17EC JUMP JUMPDEST PUSH1 0x1 PUSH1 0x1 PUSH1 0xE0 SHL SUB NOT DUP2 AND DUP2 EQ PUSH2 0x1816 JUMPI PUSH1 0x0 DUP1 REVERT JUMPDEST POP JUMP JUMPDEST PUSH1 0x0 PUSH1 0x20 DUP3 DUP5 SUB SLT ISZERO PUSH2 0x182B JUMPI PUSH1 0x0 DUP1 REVERT JUMPDEST DUP2 CALLDATALOAD PUSH2 0x11E7 DUP2 PUSH2 0x1800 JUMP JUMPDEST PUSH1 0x0 JUMPDEST DUP4 DUP2 LT ISZERO PUSH2 0x1851 JUMPI DUP2 DUP2 ADD MLOAD DUP4 DUP3 ADD MSTORE PUSH1 0x20 ADD PUSH2 0x1839 JUMP JUMPDEST POP POP PUSH1 0x0 SWAP2 ADD MSTORE JUMP JUMPDEST PUSH1 0x0 DUP2 MLOAD DUP1 DUP5 MSTORE PUSH2 0x1872 DUP2 PUSH1 0x20 DUP7 ADD PUSH1 0x20 DUP7 ADD PUSH2 0x1836 JUMP JUMPDEST PUSH1 0x1F ADD PUSH1 0x1F NOT AND SWAP3 SWAP1 SWAP3 ADD PUSH1 0x20 ADD SWAP3 SWAP2 POP POP JUMP JUMPDEST PUSH1 0x20 DUP2 MSTORE PUSH1 0x0 PUSH2 0x11E7 PUSH1 0x20 DUP4 ADD DUP5 PUSH2 0x185A JUMP JUMPDEST PUSH1 0x0 PUSH1 0x20 DUP3 DUP5 SUB SLT ISZERO PUSH2 0x18AB JUMPI PUSH1 0x0 DUP1 REVERT JUMPDEST POP CALLDATALOAD SWAP2 SWAP1 POP JUMP JUMPDEST DUP1 CALLDATALOAD PUSH1 0x1 PUSH1 0x1 PUSH1 0xA0 SHL SUB DUP2 AND DUP2 EQ PUSH2 0x18C9 JUMPI PUSH1 0x0 DUP1 REVERT JUMPDEST SWAP2 SWAP1 POP JUMP JUMPDEST PUSH1 0x0 DUP1 PUSH1 0x40 DUP4 DUP6 SUB SLT ISZERO PUSH2 0x18E1 JUMPI PUSH1 0x0 DUP1 REVERT JUMPDEST PUSH2 0x18EA DUP4 PUSH2 0x18B2 JUMP JUMPDEST SWAP5 PUSH1 0x20 SWAP4 SWAP1 SWAP4 ADD CALLDATALOAD SWAP4 POP POP POP JUMP JUMPDEST PUSH4 0x4E487B71 PUSH1 0xE0 SHL PUSH1 0x0 MSTORE PUSH1 0x41 PUSH1 0x4 MSTORE PUSH1 0x24 PUSH1 0x0 REVERT JUMPDEST PUSH1 0x40 MLOAD PUSH1 0x1F DUP3 ADD PUSH1 0x1F NOT AND DUP2 ADD PUSH8 0xFFFFFFFFFFFFFFFF DUP2 GT DUP3 DUP3 LT OR ISZERO PUSH2 0x1937 JUMPI PUSH2 0x1937 PUSH2 0x18F8 JUMP JUMPDEST PUSH1 0x40 MSTORE SWAP2 SWAP1 POP JUMP JUMPDEST PUSH1 0x0 DUP1 PUSH1 0x40 DUP4 DUP6 SUB SLT ISZERO PUSH2 0x1952 JUMPI PUSH1 0x0 DUP1 REVERT JUMPDEST DUP3 CALLDATALOAD SWAP2 POP PUSH1 0x20 DUP1 DUP5 ADD CALLDATALOAD PUSH8 0xFFFFFFFFFFFFFFFF DUP1 DUP3 GT ISZERO PUSH2 0x1972 JUMPI PUSH1 0x0 DUP1 REVERT JUMPDEST DUP2 DUP7 ADD SWAP2 POP DUP7 PUSH1 0x1F DUP4 ADD SLT PUSH2 0x1986 JUMPI PUSH1 0x0 DUP1 REVERT JUMPDEST DUP2 CALLDATALOAD DUP2 DUP2 GT ISZERO PUSH2 0x1998 JUMPI PUSH2 0x1998 PUSH2 0x18F8 JUMP JUMPDEST DUP1 PUSH1 0x5 SHL SWAP2 POP PUSH2 0x19A9 DUP5 DUP4 ADD PUSH2 0x190E JUMP JUMPDEST DUP2 DUP2 MSTORE SWAP2 DUP4 ADD DUP5 ADD SWAP2 DUP5 DUP2 ADD SWAP1 DUP10 DUP5 GT ISZERO PUSH2 0x19C3 JUMPI PUSH1 0x0 DUP1 REVERT JUMPDEST SWAP4 DUP6 ADD SWAP4 JUMPDEST DUP4 DUP6 LT ISZERO PUSH2 0x19E1 JUMPI DUP5 CALLDATALOAD DUP3 MSTORE SWAP4 DUP6 ADD SWAP4 SWAP1 DUP6 ADD SWAP1 PUSH2 0x19C8 JUMP JUMPDEST DUP1 SWAP7 POP POP POP POP POP POP POP SWAP3 POP SWAP3 SWAP1 POP JUMP JUMPDEST PUSH1 0x0 DUP1 PUSH1 0x0 PUSH1 0x60 DUP5 DUP7 SUB SLT ISZERO PUSH2 0x1A06 JUMPI PUSH1 0x0 DUP1 REVERT JUMPDEST PUSH2 0x1A0F DUP5 PUSH2 0x18B2 JUMP JUMPDEST SWAP3 POP PUSH2 0x1A1D PUSH1 0x20 DUP6 ADD PUSH2 0x18B2 JUMP JUMPDEST SWAP2 POP PUSH1 0x40 DUP5 ADD CALLDATALOAD SWAP1 POP SWAP3 POP SWAP3 POP SWAP3 JUMP JUMPDEST PUSH1 0x0 PUSH1 0x20 DUP3 DUP5 SUB SLT ISZERO PUSH2 0x1A3F JUMPI PUSH1 0x0 DUP1 REVERT JUMPDEST PUSH2 0x11E7 DUP3 PUSH2 0x18B2 JUMP JUMPDEST PUSH1 0x0 PUSH8 0xFFFFFFFFFFFFFFFF DUP4 GT ISZERO PUSH2 0x1A62 JUMPI PUSH2 0x1A62 PUSH2 0x18F8 JUMP JUMPDEST PUSH2 0x1A75 PUSH1 0x1F DUP5 ADD PUSH1 0x1F NOT AND PUSH1 0x20 ADD PUSH2 0x190E JUMP JUMPDEST SWAP1 POP DUP3 DUP2 MSTORE DUP4 DUP4 DUP4 ADD GT ISZERO PUSH2 0x1A89 JUMPI PUSH1 0x0 DUP1 REVERT JUMPDEST DUP3 DUP3 PUSH1 0x20 DUP4 ADD CALLDATACOPY PUSH1 0x0 PUSH1 0x20 DUP5 DUP4 ADD ADD MSTORE SWAP4 SWAP3 POP POP POP JUMP JUMPDEST PUSH1 0x0 PUSH1 0x20 DUP3 DUP5 SUB SLT ISZERO PUSH2 0x1AB2 JUMPI PUSH1 0x0 DUP1 REVERT JUMPDEST DUP2 CALLDATALOAD PUSH8 0xFFFFFFFFFFFFFFFF DUP2 GT ISZERO PUSH2 0x1AC9 JUMPI PUSH1 0x0 DUP1 REVERT JUMPDEST DUP3 ADD PUSH1 0x1F DUP2 ADD DUP5 SGT PUSH2 0x1ADA JUMPI PUSH1 0x0 DUP1 REVERT JUMPDEST PUSH2 0x14D4 DUP5 DUP3 CALLDATALOAD PUSH1 0x20 DUP5 ADD PUSH2 0x1A48 JUMP JUMPDEST PUSH1 0x0 DUP1 PUSH1 0x40 DUP4 DUP6 SUB SLT ISZERO PUSH2 0x1AFC JUMPI PUSH1 0x0 DUP1 REVERT JUMPDEST PUSH2 0x1B05 DUP4 PUSH2 0x18B2 JUMP JUMPDEST SWAP2 POP PUSH1 0x20 DUP4 ADD CALLDATALOAD DUP1 ISZERO ISZERO DUP2 EQ PUSH2 0x1B1A JUMPI PUSH1 0x0 DUP1 REVERT JUMPDEST DUP1 SWAP2 POP POP SWAP3 POP SWAP3 SWAP1 POP JUMP JUMPDEST PUSH1 0x0 DUP1 PUSH1 0x0 DUP1 PUSH1 0x80 DUP6 DUP8 SUB SLT ISZERO PUSH2 0x1B3B JUMPI PUSH1 0x0 DUP1 REVERT JUMPDEST PUSH2 0x1B44 DUP6 PUSH2 0x18B2 JUMP JUMPDEST SWAP4 POP PUSH2 0x1B52 PUSH1 0x20 DUP7 ADD PUSH2 0x18B2 JUMP JUMPDEST SWAP3 POP PUSH1 0x40 DUP6 ADD CALLDATALOAD SWAP2 POP PUSH1 0x60 DUP6 ADD CALLDATALOAD PUSH8 0xFFFFFFFFFFFFFFFF DUP2 GT ISZERO PUSH2 0x1B75 JUMPI PUSH1 0x0 DUP1 REVERT JUMPDEST DUP6 ADD PUSH1 0x1F DUP2 ADD DUP8 SGT PUSH2 0x1B86 JUMPI PUSH1 0x0 DUP1 REVERT JUMPDEST PUSH2 0x1B95 DUP8 DUP3 CALLDATALOAD PUSH1 0x20 DUP5 ADD PUSH2 0x1A48 JUMP JUMPDEST SWAP2 POP POP SWAP3 SWAP6 SWAP2 SWAP5 POP SWAP3 POP JUMP JUMPDEST PUSH1 0x0 DUP1 PUSH1 0x40 DUP4 DUP6 SUB SLT ISZERO PUSH2 0x1BB4 JUMPI PUSH1 0x0 DUP1 REVERT JUMPDEST PUSH2 0x1BBD DUP4 PUSH2 0x18B2 JUMP JUMPDEST SWAP2 POP PUSH2 0x1BCB PUSH1 0x20 DUP5 ADD PUSH2 0x18B2 JUMP JUMPDEST SWAP1 POP SWAP3 POP SWAP3 SWAP1 POP JUMP JUMPDEST PUSH1 0x1 DUP2 DUP2 SHR SWAP1 DUP3 AND DUP1 PUSH2 0x1BE8 JUMPI PUSH1 0x7F DUP3 AND SWAP2 POP JUMPDEST PUSH1 0x20 DUP3 LT DUP2 SUB PUSH2 0x1C08 JUMPI PUSH4 0x4E487B71 PUSH1 0xE0 SHL PUSH1 0x0 MSTORE PUSH1 0x22 PUSH1 0x4 MSTORE PUSH1 0x24 PUSH1 0x0 REVERT JUMPDEST POP SWAP2 SWAP1 POP JUMP JUMPDEST PUSH1 0x20 DUP1 DUP3 MSTORE PUSH1 0xD SWAP1 DUP3 ADD MSTORE PUSH13 0x2737BA103A34329037BBB732B9 PUSH1 0x99 SHL PUSH1 0x40 DUP3 ADD MSTORE PUSH1 0x60 ADD SWAP1 JUMP JUMPDEST PUSH4 0x4E487B71 PUSH1 0xE0 SHL PUSH1 0x0 MSTORE PUSH1 0x32 PUSH1 0x4 MSTORE PUSH1 0x24 PUSH1 0x0 REVERT JUMPDEST PUSH4 0x4E487B71 PUSH1 0xE0 SHL PUSH1 0x0 MSTORE PUSH1 0x12 PUSH1 0x4 MSTORE PUSH1 0x24 PUSH1 0x0 REVERT JUMPDEST PUSH1 0x0 DUP3 PUSH2 0x1C70 JUMPI PUSH2 0x1C70 PUSH2 0x1C4B JUMP JUMPDEST POP MOD SWAP1 JUMP JUMPDEST PUSH4 0x4E487B71 PUSH1 0xE0 SHL PUSH1 0x0 MSTORE PUSH1 0x11 PUSH1 0x4 MSTORE PUSH1 0x24 PUSH1 0x0 REVERT JUMPDEST PUSH1 0x0 DUP3 PUSH2 0x1C9A JUMPI PUSH2 0x1C9A PUSH2 0x1C4B JUMP JUMPDEST POP DIV SWAP1 JUMP JUMPDEST DUP1 DUP3 MUL DUP2 ISZERO DUP3 DUP3 DIV DUP5 EQ OR PUSH2 0x666 JUMPI PUSH2 0x666 PUSH2 0x1C75 JUMP JUMPDEST PUSH1 0x0 PUSH1 0x1 DUP3 ADD PUSH2 0x1CC8 JUMPI PUSH2 0x1CC8 PUSH2 0x1C75 JUMP JUMPDEST POP PUSH1 0x1 ADD SWAP1 JUMP JUMPDEST DUP1 DUP3 ADD DUP1 DUP3 GT ISZERO PUSH2 0x666 JUMPI PUSH2 0x666 PUSH2 0x1C75 JUMP JUMPDEST PUSH1 0x1F DUP3 GT ISZERO PUSH2 0x8DF JUMPI PUSH1 0x0 DUP2 DUP2 MSTORE PUSH1 0x20 DUP2 KECCAK256 PUSH1 0x1F DUP6 ADD PUSH1 0x5 SHR DUP2 ADD PUSH1 0x20 DUP7 LT ISZERO PUSH2 0x1D09 JUMPI POP DUP1 JUMPDEST PUSH1 0x1F DUP6 ADD PUSH1 0x5 SHR DUP3 ADD SWAP2 POP JUMPDEST DUP2 DUP2 LT ISZERO PUSH2 0x13CE JUMPI DUP3 DUP2 SSTORE PUSH1 0x1 ADD PUSH2 0x1D15 JUMP JUMPDEST DUP2 MLOAD PUSH8 0xFFFFFFFFFFFFFFFF DUP2 GT ISZERO PUSH2 0x1D42 JUMPI PUSH2 0x1D42 PUSH2 0x18F8 JUMP JUMPDEST PUSH2 0x1D56 DUP2 PUSH2 0x1D50 DUP5 SLOAD PUSH2 0x1BD4 JUMP JUMPDEST DUP5 PUSH2 0x1CE2 JUMP JUMPDEST PUSH1 0x20 DUP1 PUSH1 0x1F DUP4 GT PUSH1 0x1 DUP2 EQ PUSH2 0x1D8B JUMPI PUSH1 0x0 DUP5 ISZERO PUSH2 0x1D73 JUMPI POP DUP6 DUP4 ADD MLOAD JUMPDEST PUSH1 0x0 NOT PUSH1 0x3 DUP7 SWAP1 SHL SHR NOT AND PUSH1 0x1 DUP6 SWAP1 SHL OR DUP6 SSTORE PUSH2 0x13CE JUMP JUMPDEST PUSH1 0x0 DUP6 DUP2 MSTORE PUSH1 0x20 DUP2 KECCAK256 PUSH1 0x1F NOT DUP7 AND SWAP2 JUMPDEST DUP3 DUP2 LT ISZERO PUSH2 0x1DBA JUMPI DUP9 DUP7 ADD MLOAD DUP3 SSTORE SWAP5 DUP5 ADD SWAP5 PUSH1 0x1 SWAP1 SWAP2 ADD SWAP1 DUP5 ADD PUSH2 0x1D9B JUMP JUMPDEST POP DUP6 DUP3 LT ISZERO PUSH2 0x1DD8 JUMPI DUP8 DUP6 ADD MLOAD PUSH1 0x0 NOT PUSH1 0x3 DUP9 SWAP1 SHL PUSH1 0xF8 AND SHR NOT AND DUP2 SSTORE JUMPDEST POP POP POP POP POP PUSH1 0x1 SWAP1 DUP2 SHL ADD SWAP1 SSTORE POP JUMP JUMPDEST PUSH1 0x0 DUP1 DUP5 SLOAD PUSH2 0x1DF6 DUP2 PUSH2 0x1BD4 JUMP JUMPDEST PUSH1 0x1 DUP3 DUP2 AND DUP1 ISZERO PUSH2 0x1E0E JUMPI PUSH1 0x1 DUP2 EQ PUSH2 0x1E23 JUMPI PUSH2 0x1E52 JUMP JUMPDEST PUSH1 0xFF NOT DUP5 AND DUP8 MSTORE DUP3 ISZERO ISZERO DUP4 MUL DUP8 ADD SWAP5 POP PUSH2 0x1E52 JUMP JUMPDEST DUP9 PUSH1 0x0 MSTORE PUSH1 0x20 DUP1 PUSH1 0x0 KECCAK256 PUSH1 0x0 JUMPDEST DUP6 DUP2 LT ISZERO PUSH2 0x1E49 JUMPI DUP2 SLOAD DUP11 DUP3 ADD MSTORE SWAP1 DUP5 ADD SWAP1 DUP3 ADD PUSH2 0x1E30 JUMP JUMPDEST POP POP POP DUP3 DUP8 ADD SWAP5 POP JUMPDEST POP POP POP POP DUP4 MLOAD PUSH2 0x1E66 DUP2 DUP4 PUSH1 0x20 DUP9 ADD PUSH2 0x1836 JUMP JUMPDEST PUSH5 0x173539B7B7 PUSH1 0xD9 SHL SWAP2 ADD SWAP1 DUP2 MSTORE PUSH1 0x5 ADD SWAP5 SWAP4 POP POP POP POP JUMP JUMPDEST PUSH1 0x0 PUSH1 0x20 DUP3 DUP5 SUB SLT ISZERO PUSH2 0x1E91 JUMPI PUSH1 0x0 DUP1 REVERT JUMPDEST POP MLOAD SWAP2 SWAP1 POP JUMP JUMPDEST PUSH1 0x1 PUSH1 0x1 PUSH1 0xA0 SHL SUB DUP6 DUP2 AND DUP3 MSTORE DUP5 AND PUSH1 0x20 DUP3 ADD MSTORE PUSH1 0x40 DUP2 ADD DUP4 SWAP1 MSTORE PUSH1 0x80 PUSH1 0x60 DUP3 ADD DUP2 SWAP1 MSTORE PUSH1 0x0 SWAP1 PUSH2 0x1ECB SWAP1 DUP4 ADD DUP5 PUSH2 0x185A JUMP JUMPDEST SWAP7 SWAP6 POP POP POP POP POP POP JUMP JUMPDEST PUSH1 0x0 PUSH1 0x20 DUP3 DUP5 SUB SLT ISZERO PUSH2 0x1EE7 JUMPI PUSH1 0x0 DUP1 REVERT JUMPDEST DUP2 MLOAD PUSH2 0x11E7 DUP2 PUSH2 0x1800 JUMP JUMPDEST DUP2 DUP2 SUB DUP2 DUP2 GT ISZERO PUSH2 0x666 JUMPI PUSH2 0x666 PUSH2 0x1C75 JUMP INVALID LOG2 PUSH5 0x6970667358 0x22 SLT KECCAK256 SWAP10 RETURNDATASIZE 0xAB DUP14 JUMPI SWAP7 0x4A 0x4E LOG1 GAS 0xE9 DUP13 PUSH28 0xD90824E63AD2A88E0255A7DC451F2BFDA76C5664736F6C6343000811 STOP CALLER "},"methodIdentifiers":{"MAX_SUPPLY()":"32cb6b0c","approve(address,uint256)":"095ea7b3","balanceOf(address)":"70a08231","baseExtension()":"c6682862","baseURI()":"6c0360eb","changeMaxMintAllowed(uint256)":"549df2df","changePriceSale(uint256)":"1dcfab39","enter(address,uint256)":"7e348b7d","getApproved(uint256)":"081812fc","getBalance()":"12065fe0","getWinner(uint256)":"4129b2c9","isApprovedForAll(address,address)":"e985e9c5","max_mint_allowed()":"ba0c60c9","name()":"06fdde03","ownerOf(uint256)":"6352211e","pickWinner()":"5d495aea","players(uint256)":"f71d96cb","priceSale()":"81a7927e","rawFulfillRandomWords(uint256,uint256[])":"1fe543e3","requestRandomWords()":"e0c86289","s_randomWords(uint256)":"f6eaffc8","s_requestId()":"e89e106a","safeTransferFrom(address,address,uint256)":"42842e0e","safeTransferFrom(address,address,uint256,bytes)":"b88d4fde","setApprovalForAll(address,bool)":"a22cb465","setBaseExtension(string)":"da3ef23f","setBaseUri(string)":"a0bcfc7f","supportsInterface(bytes4)":"01ffc9a7","symbol()":"95d89b41","toggleLottery()":"bdf08b11","tokenURI(uint256)":"c87b56dd","totalSupply()":"18160ddd","transferFrom(address,address,uint256)":"23b872dd","winners(uint256)":"a2fb1175"}}}}}