{
  "_format": "hh-sol-artifact-1",
  "contractName": "DefiLotteryV2",
  "sourceName": "contracts/DefiLotteryV2.sol",
  "abi": [
    {
      "inputs": [
        {
          "internalType": "uint64",
          "name": "subscriptionId",
          "type": "uint64"
        },
        {
          "internalType": "string",
          "name": "_theBaseURI",
          "type": "string"
        },
        {
          "internalType": "address",
          "name": "_team",
          "type": "address"
        }
      ],
      "stateMutability": "nonpayable",
      "type": "constructor"
    },
    {
      "inputs": [],
      "name": "ApprovalCallerNotOwnerNorApproved",
      "type": "error"
    },
    {
      "inputs": [],
      "name": "ApprovalQueryForNonexistentToken",
      "type": "error"
    },
    {
      "inputs": [],
      "name": "ApprovalToCurrentOwner",
      "type": "error"
    },
    {
      "inputs": [],
      "name": "ApproveToCaller",
      "type": "error"
    },
    {
      "inputs": [],
      "name": "BalanceQueryForZeroAddress",
      "type": "error"
    },
    {
      "inputs": [],
      "name": "MintToZeroAddress",
      "type": "error"
    },
    {
      "inputs": [],
      "name": "MintZeroQuantity",
      "type": "error"
    },
    {
      "inputs": [
        {
          "internalType": "address",
          "name": "have",
          "type": "address"
        },
        {
          "internalType": "address",
          "name": "want",
          "type": "address"
        }
      ],
      "name": "OnlyCoordinatorCanFulfill",
      "type": "error"
    },
    {
      "inputs": [],
      "name": "OwnerQueryForNonexistentToken",
      "type": "error"
    },
    {
      "inputs": [],
      "name": "TransferCallerNotOwnerNorApproved",
      "type": "error"
    },
    {
      "inputs": [],
      "name": "TransferFromIncorrectOwner",
      "type": "error"
    },
    {
      "inputs": [],
      "name": "TransferToNonERC721ReceiverImplementer",
      "type": "error"
    },
    {
      "inputs": [],
      "name": "TransferToZeroAddress",
      "type": "error"
    },
    {
      "inputs": [],
      "name": "URIQueryForNonexistentToken",
      "type": "error"
    },
    {
      "anonymous": false,
      "inputs": [
        {
          "indexed": true,
          "internalType": "address",
          "name": "owner",
          "type": "address"
        },
        {
          "indexed": true,
          "internalType": "address",
          "name": "approved",
          "type": "address"
        },
        {
          "indexed": true,
          "internalType": "uint256",
          "name": "tokenId",
          "type": "uint256"
        }
      ],
      "name": "Approval",
      "type": "event"
    },
    {
      "anonymous": false,
      "inputs": [
        {
          "indexed": true,
          "internalType": "address",
          "name": "owner",
          "type": "address"
        },
        {
          "indexed": true,
          "internalType": "address",
          "name": "operator",
          "type": "address"
        },
        {
          "indexed": false,
          "internalType": "bool",
          "name": "approved",
          "type": "bool"
        }
      ],
      "name": "ApprovalForAll",
      "type": "event"
    },
    {
      "anonymous": false,
      "inputs": [
        {
          "indexed": true,
          "internalType": "address",
          "name": "from",
          "type": "address"
        },
        {
          "indexed": true,
          "internalType": "address",
          "name": "to",
          "type": "address"
        },
        {
          "indexed": true,
          "internalType": "uint256",
          "name": "tokenId",
          "type": "uint256"
        }
      ],
      "name": "Transfer",
      "type": "event"
    },
    {
      "inputs": [],
      "name": "MAX_SUPPLY",
      "outputs": [
        {
          "internalType": "uint256",
          "name": "",
          "type": "uint256"
        }
      ],
      "stateMutability": "view",
      "type": "function"
    },
    {
      "inputs": [
        {
          "internalType": "address",
          "name": "to",
          "type": "address"
        },
        {
          "internalType": "uint256",
          "name": "tokenId",
          "type": "uint256"
        }
      ],
      "name": "approve",
      "outputs": [],
      "stateMutability": "nonpayable",
      "type": "function"
    },
    {
      "inputs": [
        {
          "internalType": "address",
          "name": "owner",
          "type": "address"
        }
      ],
      "name": "balanceOf",
      "outputs": [
        {
          "internalType": "uint256",
          "name": "",
          "type": "uint256"
        }
      ],
      "stateMutability": "view",
      "type": "function"
    },
    {
      "inputs": [],
      "name": "baseExtension",
      "outputs": [
        {
          "internalType": "string",
          "name": "",
          "type": "string"
        }
      ],
      "stateMutability": "view",
      "type": "function"
    },
    {
      "inputs": [],
      "name": "baseURI",
      "outputs": [
        {
          "internalType": "string",
          "name": "",
          "type": "string"
        }
      ],
      "stateMutability": "view",
      "type": "function"
    },
    {
      "inputs": [
        {
          "internalType": "uint256",
          "name": "_maxMintAllowed",
          "type": "uint256"
        }
      ],
      "name": "changeMaxMintAllowed",
      "outputs": [],
      "stateMutability": "nonpayable",
      "type": "function"
    },
    {
      "inputs": [
        {
          "internalType": "uint256",
          "name": "_priceSale",
          "type": "uint256"
        }
      ],
      "name": "changePriceSale",
      "outputs": [],
      "stateMutability": "nonpayable",
      "type": "function"
    },
    {
      "inputs": [
        {
          "internalType": "address",
          "name": "_account",
          "type": "address"
        },
        {
          "internalType": "uint256",
          "name": "_ammount",
          "type": "uint256"
        }
      ],
      "name": "enter",
      "outputs": [],
      "stateMutability": "payable",
      "type": "function"
    },
    {
      "inputs": [
        {
          "internalType": "uint256",
          "name": "tokenId",
          "type": "uint256"
        }
      ],
      "name": "getApproved",
      "outputs": [
        {
          "internalType": "address",
          "name": "",
          "type": "address"
        }
      ],
      "stateMutability": "view",
      "type": "function"
    },
    {
      "inputs": [],
      "name": "getBalance",
      "outputs": [
        {
          "internalType": "uint256",
          "name": "",
          "type": "uint256"
        }
      ],
      "stateMutability": "view",
      "type": "function"
    },
    {
      "inputs": [
        {
          "internalType": "uint256",
          "name": "_idLottery",
          "type": "uint256"
        }
      ],
      "name": "getWinner",
      "outputs": [
        {
          "internalType": "address",
          "name": "",
          "type": "address"
        }
      ],
      "stateMutability": "view",
      "type": "function"
    },
    {
      "inputs": [],
      "name": "idLottery",
      "outputs": [
        {
          "internalType": "uint256",
          "name": "",
          "type": "uint256"
        }
      ],
      "stateMutability": "view",
      "type": "function"
    },
    {
      "inputs": [
        {
          "internalType": "address",
          "name": "owner",
          "type": "address"
        },
        {
          "internalType": "address",
          "name": "operator",
          "type": "address"
        }
      ],
      "name": "isApprovedForAll",
      "outputs": [
        {
          "internalType": "bool",
          "name": "",
          "type": "bool"
        }
      ],
      "stateMutability": "view",
      "type": "function"
    },
    {
      "inputs": [],
      "name": "lotteryClosed",
      "outputs": [
        {
          "internalType": "bool",
          "name": "",
          "type": "bool"
        }
      ],
      "stateMutability": "view",
      "type": "function"
    },
    {
      "inputs": [],
      "name": "max_mint_allowed",
      "outputs": [
        {
          "internalType": "uint256",
          "name": "",
          "type": "uint256"
        }
      ],
      "stateMutability": "view",
      "type": "function"
    },
    {
      "inputs": [],
      "name": "name",
      "outputs": [
        {
          "internalType": "string",
          "name": "",
          "type": "string"
        }
      ],
      "stateMutability": "view",
      "type": "function"
    },
    {
      "inputs": [
        {
          "internalType": "uint256",
          "name": "tokenId",
          "type": "uint256"
        }
      ],
      "name": "ownerOf",
      "outputs": [
        {
          "internalType": "address",
          "name": "",
          "type": "address"
        }
      ],
      "stateMutability": "view",
      "type": "function"
    },
    {
      "inputs": [],
      "name": "pickWinner",
      "outputs": [],
      "stateMutability": "nonpayable",
      "type": "function"
    },
    {
      "inputs": [
        {
          "internalType": "uint256",
          "name": "",
          "type": "uint256"
        }
      ],
      "name": "players",
      "outputs": [
        {
          "internalType": "address payable",
          "name": "",
          "type": "address"
        }
      ],
      "stateMutability": "view",
      "type": "function"
    },
    {
      "inputs": [],
      "name": "priceSale",
      "outputs": [
        {
          "internalType": "uint256",
          "name": "",
          "type": "uint256"
        }
      ],
      "stateMutability": "view",
      "type": "function"
    },
    {
      "inputs": [
        {
          "internalType": "uint256",
          "name": "requestId",
          "type": "uint256"
        },
        {
          "internalType": "uint256[]",
          "name": "randomWords",
          "type": "uint256[]"
        }
      ],
      "name": "rawFulfillRandomWords",
      "outputs": [],
      "stateMutability": "nonpayable",
      "type": "function"
    },
    {
      "inputs": [],
      "name": "requestRandomWords",
      "outputs": [],
      "stateMutability": "nonpayable",
      "type": "function"
    },
    {
      "inputs": [
        {
          "internalType": "uint256",
          "name": "",
          "type": "uint256"
        }
      ],
      "name": "s_randomWords",
      "outputs": [
        {
          "internalType": "uint256",
          "name": "",
          "type": "uint256"
        }
      ],
      "stateMutability": "view",
      "type": "function"
    },
    {
      "inputs": [],
      "name": "s_requestId",
      "outputs": [
        {
          "internalType": "uint256",
          "name": "",
          "type": "uint256"
        }
      ],
      "stateMutability": "view",
      "type": "function"
    },
    {
      "inputs": [
        {
          "internalType": "address",
          "name": "from",
          "type": "address"
        },
        {
          "internalType": "address",
          "name": "to",
          "type": "address"
        },
        {
          "internalType": "uint256",
          "name": "tokenId",
          "type": "uint256"
        }
      ],
      "name": "safeTransferFrom",
      "outputs": [],
      "stateMutability": "nonpayable",
      "type": "function"
    },
    {
      "inputs": [
        {
          "internalType": "address",
          "name": "from",
          "type": "address"
        },
        {
          "internalType": "address",
          "name": "to",
          "type": "address"
        },
        {
          "internalType": "uint256",
          "name": "tokenId",
          "type": "uint256"
        },
        {
          "internalType": "bytes",
          "name": "_data",
          "type": "bytes"
        }
      ],
      "name": "safeTransferFrom",
      "outputs": [],
      "stateMutability": "nonpayable",
      "type": "function"
    },
    {
      "inputs": [
        {
          "internalType": "address",
          "name": "operator",
          "type": "address"
        },
        {
          "internalType": "bool",
          "name": "approved",
          "type": "bool"
        }
      ],
      "name": "setApprovalForAll",
      "outputs": [],
      "stateMutability": "nonpayable",
      "type": "function"
    },
    {
      "inputs": [
        {
          "internalType": "string",
          "name": "_baseExtension",
          "type": "string"
        }
      ],
      "name": "setBaseExtension",
      "outputs": [],
      "stateMutability": "nonpayable",
      "type": "function"
    },
    {
      "inputs": [
        {
          "internalType": "string",
          "name": "_newBaseURI",
          "type": "string"
        }
      ],
      "name": "setBaseUri",
      "outputs": [],
      "stateMutability": "nonpayable",
      "type": "function"
    },
    {
      "inputs": [
        {
          "internalType": "bytes4",
          "name": "interfaceId",
          "type": "bytes4"
        }
      ],
      "name": "supportsInterface",
      "outputs": [
        {
          "internalType": "bool",
          "name": "",
          "type": "bool"
        }
      ],
      "stateMutability": "view",
      "type": "function"
    },
    {
      "inputs": [],
      "name": "symbol",
      "outputs": [
        {
          "internalType": "string",
          "name": "",
          "type": "string"
        }
      ],
      "stateMutability": "view",
      "type": "function"
    },
    {
      "inputs": [],
      "name": "toggleLottery",
      "outputs": [],
      "stateMutability": "nonpayable",
      "type": "function"
    },
    {
      "inputs": [
        {
          "internalType": "uint256",
          "name": "_tokenId",
          "type": "uint256"
        }
      ],
      "name": "tokenURI",
      "outputs": [
        {
          "internalType": "string",
          "name": "",
          "type": "string"
        }
      ],
      "stateMutability": "view",
      "type": "function"
    },
    {
      "inputs": [],
      "name": "totalSupply",
      "outputs": [
        {
          "internalType": "uint256",
          "name": "",
          "type": "uint256"
        }
      ],
      "stateMutability": "view",
      "type": "function"
    },
    {
      "inputs": [
        {
          "internalType": "address",
          "name": "from",
          "type": "address"
        },
        {
          "internalType": "address",
          "name": "to",
          "type": "address"
        },
        {
          "internalType": "uint256",
          "name": "tokenId",
          "type": "uint256"
        }
      ],
      "name": "transferFrom",
      "outputs": [],
      "stateMutability": "nonpayable",
      "type": "function"
    },
    {
      "inputs": [
        {
          "internalType": "uint256",
          "name": "",
          "type": "uint256"
        }
      ],
      "name": "winners",
      "outputs": [
        {
          "internalType": "address",
          "name": "",
          "type": "address"
        }
      ],
      "stateMutability": "view",
      "type": "function"
    }
  ],
  "bytecode": "0x6207a1206009556032600a55662386f26fc10000600b5560e0604052600560a090815264173539b7b760d91b60c052600d906200003d90826200025b565b50601080546001600160a01b031916737a1bac17ccc5b313516c5e16fb24f7659aa5ebed1790557f4b09e658ed251bcafeebbc69400383d49f344ace09b9576fe248bb02c003fe9f6011556012805466010003000186a06001600160501b0319909116179055348015620000b057600080fd5b506040516200240038038062002400833981016040819052620000d39162000344565b604080518082018252600b81526a446566694c6f747465727960a81b6020808301919091528251808401909352600383526211119360ea1b908301526010546001600160a01b03166080529060026200012d83826200025b565b5060036200013c82826200025b565b506000805550506001600855601980546001600160a01b038084166001600160a01b031992831617909255601054600f80546015805490941633179093556001600160401b038716600160a01b026001600160e01b03199093169190931617179055600c620001ac83826200025b565b5050505062000442565b634e487b7160e01b600052604160045260246000fd5b600181811c90821680620001e157607f821691505b6020821081036200020257634e487b7160e01b600052602260045260246000fd5b50919050565b601f8211156200025657600081815260208120601f850160051c81016020861015620002315750805b601f850160051c820191505b8181101562000252578281556001016200023d565b5050505b505050565b81516001600160401b03811115620002775762000277620001b6565b6200028f81620002888454620001cc565b8462000208565b602080601f831160018114620002c75760008415620002ae5750858301515b600019600386901b1c1916600185901b17855562000252565b600085815260208120601f198616915b82811015620002f857888601518255948401946001909101908401620002d7565b5085821015620003175787850151600019600388901b60f8161c191681555b5050505050600190811b01905550565b80516001600160a01b03811681146200033f57600080fd5b919050565b6000806000606084860312156200035a57600080fd5b83516001600160401b0380821682146200037357600080fd5b60208681015192955091818111156200038b57600080fd5b8601601f810188136200039d57600080fd5b805182811115620003b257620003b2620001b6565b604051601f8201601f19908116603f01168101908482118183101715620003dd57620003dd620001b6565b816040528281528a86848601011115620003f657600080fd5b600094505b828510156200041a5783850186015181860187015293850193620003fb565b6000868483010152809750505050505050620004396040850162000327565b90509250925092565b608051611f9b62000465600039600081816108a401526108e60152611f9b6000f3fe60806040526004361061020f5760003560e01c80637e348b7d11610118578063c6682862116100a0578063e433a5841161006f578063e433a584146105d0578063e89e106a146105f1578063e985e9c514610607578063f6eaffc814610627578063f71d96cb1461064757600080fd5b8063c668286214610566578063c87b56dd1461057b578063da3ef23f1461059b578063e0c86289146105bb57600080fd5b8063a22cb465116100e7578063a22cb465146104c5578063a2fb1175146104e5578063b88d4fde1461051b578063ba0c60c91461053b578063bdf08b111461055157600080fd5b80637e348b7d1461046757806381a7927e1461047a57806395d89b4114610490578063a0bcfc7f146104a557600080fd5b806332cb6b0c1161019b5780635d013ad01161016a5780635d013ad0146103e75780635d495aea146103fd5780636352211e146104125780636c0360eb1461043257806370a082311461044757600080fd5b806332cb6b0c1461035b5780634129b2c91461037157806342842e0e146103a7578063549df2df146103c757600080fd5b806312065fe0116101e257806312065fe0146102c557806318160ddd146102e25780631dcfab39146102fb5780631fe543e31461031b57806323b872dd1461033b57600080fd5b806301ffc9a71461021457806306fdde0314610249578063081812fc1461026b578063095ea7b3146102a3575b600080fd5b34801561022057600080fd5b5061023461022f366004611879565b610667565b60405190151581526020015b60405180910390f35b34801561025557600080fd5b5061025e6106b9565b60405161024091906118e6565b34801561027757600080fd5b5061028b6102863660046118f9565b61074b565b6040516001600160a01b039091168152602001610240565b3480156102af57600080fd5b506102c36102be36600461192e565b61078f565b005b3480156102d157600080fd5b50475b604051908152602001610240565b3480156102ee57600080fd5b50600154600054036102d4565b34801561030757600080fd5b506102c36103163660046118f9565b610861565b34801561032757600080fd5b506102c361033636600461199f565b610899565b34801561034757600080fd5b506102c3610356366004611a51565b610921565b34801561036757600080fd5b506102d460095481565b34801561037d57600080fd5b5061028b61038c3660046118f9565b6000908152601660205260409020546001600160a01b031690565b3480156103b357600080fd5b506102c36103c2366004611a51565b610931565b3480156103d357600080fd5b506102c36103e23660046118f9565b61094c565b3480156103f357600080fd5b506102d460175481565b34801561040957600080fd5b506102c361097b565b34801561041e57600080fd5b5061028b61042d3660046118f9565b610b0a565b34801561043e57600080fd5b5061025e610b15565b34801561045357600080fd5b506102d4610462366004611a8d565b610ba3565b6102c361047536600461192e565b610bec565b34801561048657600080fd5b506102d4600b5481565b34801561049c57600080fd5b5061025e610e23565b3480156104b157600080fd5b506102c36104c0366004611b00565b610e32565b3480156104d157600080fd5b506102c36104e0366004611b49565b610e68565b3480156104f157600080fd5b5061028b6105003660046118f9565b6016602052600090815260409020546001600160a01b031681565b34801561052757600080fd5b506102c3610536366004611b85565b610efd565b34801561054757600080fd5b506102d4600a5481565b34801561055d57600080fd5b506102c3610f47565b34801561057257600080fd5b5061025e610f92565b34801561058757600080fd5b5061025e6105963660046118f9565b610f9f565b3480156105a757600080fd5b506102c36105b6366004611b00565b611028565b3480156105c757600080fd5b506102c361105e565b3480156105dc57600080fd5b5060155461023490600160a01b900460ff1681565b3480156105fd57600080fd5b506102d460145481565b34801561061357600080fd5b50610234610622366004611c01565b61115b565b34801561063357600080fd5b506102d46106423660046118f9565b611189565b34801561065357600080fd5b5061028b6106623660046118f9565b6111aa565b60006301ffc9a760e01b6001600160e01b03198316148061069857506380ac58cd60e01b6001600160e01b03198316145b806106b35750635b5e139f60e01b6001600160e01b03198316145b92915050565b6060600280546106c890611c34565b80601f01602080910402602001604051908101604052809291908181526020018280546106f490611c34565b80156107415780601f1061071657610100808354040283529160200191610741565b820191906000526020600020905b81548152906001019060200180831161072457829003601f168201915b5050505050905090565b6000610756826111d4565b610773576040516333d1c03960e21b815260040160405180910390fd5b506000908152600660205260409020546001600160a01b031690565b600061079a826111fb565b9050806001600160a01b0316836001600160a01b0316036107ce5760405163250fdee360e21b815260040160405180910390fd5b336001600160a01b03821614610805576107e8813361115b565b610805576040516367d9dca160e11b815260040160405180910390fd5b60008281526006602052604080822080546001600160a01b0319166001600160a01b0387811691821790925591518593918516917f8c5be1e5ebec7d5bd14f71427d1e84f3dd0314c0f7b2291e5b200ac8c7c3b92591a4505050565b6015546001600160a01b031633146108945760405162461bcd60e51b815260040161088b90611c6e565b60405180910390fd5b600b55565b336001600160a01b037f000000000000000000000000000000000000000000000000000000000000000016146109135760405163073e64fd60e21b81523360048201526001600160a01b037f000000000000000000000000000000000000000000000000000000000000000016602482015260440161088b565b61091d8282611269565b5050565b61092c83838361127c565b505050565b61092c83838360405180602001604052806000815250610efd565b6015546001600160a01b031633146109765760405162461bcd60e51b815260040161088b90611c6e565b600a55565b6015546001600160a01b031633146109a55760405162461bcd60e51b815260040161088b90611c6e565b6015805460ff60a01b1916600160a01b179055600060188054905060136000815481106109d4576109d4611c95565b90600052602060002001546109e99190611cc1565b9050601881815481106109fe576109fe611c95565b6000918252602090912001546001600160a01b03166108fc610a21606447611ceb565b610a2c906050611cff565b6040518115909202916000818181858888f19350505050158015610a54573d6000803e3d6000fd5b506019546040516001600160a01b03909116904780156108fc02916000818181858888f19350505050158015610a8e573d6000803e3d6000fd5b5060188181548110610aa257610aa2611c95565b600091825260208083209091015460178054845260169092526040832080546001600160a01b0319166001600160a01b03909216919091179055805491610ae883611d16565b9091555050604080516000815260208101918290525161091d916018916117ab565b60006106b3826111fb565b600c8054610b2290611c34565b80601f0160208091040260200160405190810160405280929190818152602001828054610b4e90611c34565b8015610b9b5780601f10610b7057610100808354040283529160200191610b9b565b820191906000526020600020905b815481529060010190602001808311610b7e57829003601f168201915b505050505081565b600081600003610bc6576040516323d3ad8160e21b815260040160405180910390fd5b506001600160a01b031660009081526005602052604090205467ffffffffffffffff1690565b600260085403610c3e5760405162461bcd60e51b815260206004820152601f60248201527f5265656e7472616e637947756172643a207265656e7472616e742063616c6c00604482015260640161088b565b6002600855601554600160a01b900460ff1615610c915760405162461bcd60e51b8152602060048201526011602482015270131bdd1d195c9e481a5cc818db1bdcd959607a1b604482015260640161088b565b600b54610c9e8282611cff565b341015610ce25760405162461bcd60e51b81526020600482015260126024820152712737ba1032b737bab3b43a10333ab732399760711b604482015260640161088b565b600a54821115610d3e5760405162461bcd60e51b815260206004820152602160248201527f596f752063616e2774206d696e74206d6f7265207468616e205820746f6b656e6044820152607360f81b606482015260840161088b565b60095482610d4f6001546000540390565b610d599190611d2f565b1115610dcd5760405162461bcd60e51b815260206004820152603860248201527f53616c6520697320616c6d6f737420646f6e6520616e6420776520646f6e277460448201527f206861766520656e6f75676874204e465473206c6566742e0000000000000000606482015260840161088b565b601880546001810182556000919091527fb13d2d76d1f4b7be834882e410b3e3a8afaf69f83600ae24db354391d2378d2e0180546001600160a01b03191633179055610e198383611436565b5050600160085550565b6060600380546106c890611c34565b6015546001600160a01b03163314610e5c5760405162461bcd60e51b815260040161088b90611c6e565b600c61091d8282611d88565b336001600160a01b03831603610e915760405163b06307db60e01b815260040160405180910390fd5b3360008181526007602090815260408083206001600160a01b03871680855290835292819020805460ff191686151590811790915590519081529192917f17307eab39ab6107e8899845ad3d59bd9653f200f220920489ca2b5937696c31910160405180910390a35050565b610f0884848461127c565b6001600160a01b0383163b15610f4157610f2484848484611450565b610f41576040516368d2bf6b60e11b815260040160405180910390fd5b50505050565b6015546001600160a01b03163314610f715760405162461bcd60e51b815260040161088b90611c6e565b6015805460ff60a01b198116600160a01b9182900460ff1615909102179055565b600d8054610b2290611c34565b6060610faa826111d4565b610ff65760405162461bcd60e51b815260206004820152601f60248201527f55524920717565727920666f72206e6f6e6578697374656e7420746f6b656e00604482015260640161088b565b600c6110018361153c565b604051602001611012929190611e48565b6040516020818303038152906040529050919050565b6015546001600160a01b031633146110525760405162461bcd60e51b815260040161088b90611c6e565b600d61091d8282611d88565b6015546001600160a01b031633146110885760405162461bcd60e51b815260040161088b90611c6e565b6015805460ff60a01b1916600160a01b179055600f546011546012546040516305d3b1d360e41b81526004810192909252600160a01b830467ffffffffffffffff166024830152640100000000810461ffff16604483015263ffffffff808216606484015266010000000000009091041660848201526001600160a01b0390911690635d3b1d309060a4016020604051808303816000875af1158015611132573d6000803e3d6000fd5b505050506040513d601f19601f820116820180604052508101906111569190611edf565b601455565b6001600160a01b03918216600090815260076020908152604080832093909416825291909152205460ff1690565b6013818154811061119957600080fd5b600091825260209091200154905081565b601881815481106111ba57600080fd5b6000918252602090912001546001600160a01b0316905081565b60008054821080156106b3575050600090815260046020526040902054600160e01b161590565b6000816000548110156112505760008181526004602052604081205490600160e01b8216900361124e575b80600003611247575060001901600081815260046020526040902054611226565b9392505050565b505b604051636f96cda160e11b815260040160405180910390fd5b805161092c906013906020840190611810565b6000611287826111fb565b9050836001600160a01b0316816001600160a01b0316146112ba5760405162a1148160e81b815260040160405180910390fd5b6000828152600660205260408120546001600160a01b03908116919086163314806112ea57506112ea863361115b565b806112fd57506001600160a01b03821633145b90508061131d57604051632ce44b5f60e11b815260040160405180910390fd5b8460000361133e57604051633a954ecd60e21b815260040160405180910390fd5b811561136157600084815260066020526040902080546001600160a01b03191690555b6001600160a01b038681166000908152600560209081526040808320805460001901905592881682528282208054600101905586825260049052908120600160e11b4260a01b88178117909155841690036113ec576001840160008181526004602052604081205490036113ea5760005481146113ea5760008181526004602052604090208490555b505b83856001600160a01b0316876001600160a01b03167fddf252ad1be2c89b69c2b068fc378daa952ba7f163c4a11628f55a4df523b3ef60405160405180910390a45b505050505050565b61091d82826040518060200160405280600081525061163d565b604051630a85bd0160e11b81526000906001600160a01b0385169063150b7a0290611485903390899088908890600401611ef8565b6020604051808303816000875af19250505080156114c0575060408051601f3d908101601f191682019092526114bd91810190611f35565b60015b61151e573d8080156114ee576040519150601f19603f3d011682016040523d82523d6000602084013e6114f3565b606091505b508051600003611516576040516368d2bf6b60e11b815260040160405180910390fd5b805181602001fd5b6001600160e01b031916630a85bd0160e11b1490505b949350505050565b6060816000036115635750506040805180820190915260018152600360fc1b602082015290565b8160005b811561158d578061157781611d16565b91506115869050600a83611ceb565b9150611567565b60008167ffffffffffffffff8111156115a8576115a8611958565b6040519080825280601f01601f1916602001820160405280156115d2576020820181803683370190505b5090505b8415611534576115e7600183611f52565b91506115f4600a86611cc1565b6115ff906030611d2f565b60f81b81838151811061161457611614611c95565b60200101906001600160f81b031916908160001a905350611636600a86611ceb565b94506115d6565b6000548360000361166057604051622e076360e81b815260040160405180910390fd5b826000036116815760405163b562e8dd60e01b815260040160405180910390fd5b6001600160a01b03841660008181526005602090815260408083208054680100000000000000018902019055848352600490915290204260a01b86176001861460e11b1790558190818501903b15611756575b60405182906001600160a01b038816906000907fddf252ad1be2c89b69c2b068fc378daa952ba7f163c4a11628f55a4df523b3ef908290a461171f6000878480600101955087611450565b61173c576040516368d2bf6b60e11b815260040160405180910390fd5b8082106116d457826000541461175157600080fd5b61179b565b5b6040516001830192906001600160a01b038816906000907fddf252ad1be2c89b69c2b068fc378daa952ba7f163c4a11628f55a4df523b3ef908290a4808210611757575b506000908155610f419085838684565b828054828255906000526020600020908101928215611800579160200282015b8281111561180057825182546001600160a01b0319166001600160a01b039091161782556020909201916001909101906117cb565b5061180c92915061184b565b5090565b828054828255906000526020600020908101928215611800579160200282015b82811115611800578251825591602001919060010190611830565b5b8082111561180c576000815560010161184c565b6001600160e01b03198116811461187657600080fd5b50565b60006020828403121561188b57600080fd5b813561124781611860565b60005b838110156118b1578181015183820152602001611899565b50506000910152565b600081518084526118d2816020860160208601611896565b601f01601f19169290920160200192915050565b60208152600061124760208301846118ba565b60006020828403121561190b57600080fd5b5035919050565b80356001600160a01b038116811461192957600080fd5b919050565b6000806040838503121561194157600080fd5b61194a83611912565b946020939093013593505050565b634e487b7160e01b600052604160045260246000fd5b604051601f8201601f1916810167ffffffffffffffff8111828210171561199757611997611958565b604052919050565b600080604083850312156119b257600080fd5b8235915060208084013567ffffffffffffffff808211156119d257600080fd5b818601915086601f8301126119e657600080fd5b8135818111156119f8576119f8611958565b8060051b9150611a0984830161196e565b8181529183018401918481019089841115611a2357600080fd5b938501935b83851015611a4157843582529385019390850190611a28565b8096505050505050509250929050565b600080600060608486031215611a6657600080fd5b611a6f84611912565b9250611a7d60208501611912565b9150604084013590509250925092565b600060208284031215611a9f57600080fd5b61124782611912565b600067ffffffffffffffff831115611ac257611ac2611958565b611ad5601f8401601f191660200161196e565b9050828152838383011115611ae957600080fd5b828260208301376000602084830101529392505050565b600060208284031215611b1257600080fd5b813567ffffffffffffffff811115611b2957600080fd5b8201601f81018413611b3a57600080fd5b61153484823560208401611aa8565b60008060408385031215611b5c57600080fd5b611b6583611912565b915060208301358015158114611b7a57600080fd5b809150509250929050565b60008060008060808587031215611b9b57600080fd5b611ba485611912565b9350611bb260208601611912565b925060408501359150606085013567ffffffffffffffff811115611bd557600080fd5b8501601f81018713611be657600080fd5b611bf587823560208401611aa8565b91505092959194509250565b60008060408385031215611c1457600080fd5b611c1d83611912565b9150611c2b60208401611912565b90509250929050565b600181811c90821680611c4857607f821691505b602082108103611c6857634e487b7160e01b600052602260045260246000fd5b50919050565b6020808252600d908201526c2737ba103a34329037bbb732b960991b604082015260600190565b634e487b7160e01b600052603260045260246000fd5b634e487b7160e01b600052601260045260246000fd5b600082611cd057611cd0611cab565b500690565b634e487b7160e01b600052601160045260246000fd5b600082611cfa57611cfa611cab565b500490565b80820281158282048414176106b3576106b3611cd5565b600060018201611d2857611d28611cd5565b5060010190565b808201808211156106b3576106b3611cd5565b601f82111561092c57600081815260208120601f850160051c81016020861015611d695750805b601f850160051c820191505b8181101561142e57828155600101611d75565b815167ffffffffffffffff811115611da257611da2611958565b611db681611db08454611c34565b84611d42565b602080601f831160018114611deb5760008415611dd35750858301515b600019600386901b1c1916600185901b17855561142e565b600085815260208120601f198616915b82811015611e1a57888601518255948401946001909101908401611dfb565b5085821015611e385787850151600019600388901b60f8161c191681555b5050505050600190811b01905550565b6000808454611e5681611c34565b60018281168015611e6e5760018114611e8357611eb2565b60ff1984168752821515830287019450611eb2565b8860005260208060002060005b85811015611ea95781548a820152908401908201611e90565b50505082870194505b505050508351611ec6818360208801611896565b64173539b7b760d91b9101908152600501949350505050565b600060208284031215611ef157600080fd5b5051919050565b6001600160a01b0385811682528416602082015260408101839052608060608201819052600090611f2b908301846118ba565b9695505050505050565b600060208284031215611f4757600080fd5b815161124781611860565b818103818111156106b3576106b3611cd556fea2646970667358221220318df1fb02cf2c2d0be2ce6db60c332e316f570839668381dcd7fd8bf87b197964736f6c63430008110033",
  "linkReferences": {},
  "deployedLinkReferences": {}
}