{
  "_format": "hh-sol-artifact-1",
  "contractName": "DefiLotteryV2",
  "sourceName": "contracts/DefiLotteryV2.sol",
  "abi": [
    {
      "inputs": [
        {
          "internalType": "uint64",
          "name": "subscriptionId",
          "type": "uint64"
        },
        {
          "internalType": "string",
          "name": "_theBaseURI",
          "type": "string"
        },
        {
          "internalType": "address",
          "name": "_team",
          "type": "address"
        }
      ],
      "stateMutability": "nonpayable",
      "type": "constructor"
    },
    {
      "inputs": [],
      "name": "ApprovalCallerNotOwnerNorApproved",
      "type": "error"
    },
    {
      "inputs": [],
      "name": "ApprovalQueryForNonexistentToken",
      "type": "error"
    },
    {
      "inputs": [],
      "name": "ApprovalToCurrentOwner",
      "type": "error"
    },
    {
      "inputs": [],
      "name": "ApproveToCaller",
      "type": "error"
    },
    {
      "inputs": [],
      "name": "BalanceQueryForZeroAddress",
      "type": "error"
    },
    {
      "inputs": [],
      "name": "MintToZeroAddress",
      "type": "error"
    },
    {
      "inputs": [],
      "name": "MintZeroQuantity",
      "type": "error"
    },
    {
      "inputs": [
        {
          "internalType": "address",
          "name": "have",
          "type": "address"
        },
        {
          "internalType": "address",
          "name": "want",
          "type": "address"
        }
      ],
      "name": "OnlyCoordinatorCanFulfill",
      "type": "error"
    },
    {
      "inputs": [],
      "name": "OwnerQueryForNonexistentToken",
      "type": "error"
    },
    {
      "inputs": [],
      "name": "TransferCallerNotOwnerNorApproved",
      "type": "error"
    },
    {
      "inputs": [],
      "name": "TransferFromIncorrectOwner",
      "type": "error"
    },
    {
      "inputs": [],
      "name": "TransferToNonERC721ReceiverImplementer",
      "type": "error"
    },
    {
      "inputs": [],
      "name": "TransferToZeroAddress",
      "type": "error"
    },
    {
      "inputs": [],
      "name": "URIQueryForNonexistentToken",
      "type": "error"
    },
    {
      "anonymous": false,
      "inputs": [
        {
          "indexed": true,
          "internalType": "address",
          "name": "owner",
          "type": "address"
        },
        {
          "indexed": true,
          "internalType": "address",
          "name": "approved",
          "type": "address"
        },
        {
          "indexed": true,
          "internalType": "uint256",
          "name": "tokenId",
          "type": "uint256"
        }
      ],
      "name": "Approval",
      "type": "event"
    },
    {
      "anonymous": false,
      "inputs": [
        {
          "indexed": true,
          "internalType": "address",
          "name": "owner",
          "type": "address"
        },
        {
          "indexed": true,
          "internalType": "address",
          "name": "operator",
          "type": "address"
        },
        {
          "indexed": false,
          "internalType": "bool",
          "name": "approved",
          "type": "bool"
        }
      ],
      "name": "ApprovalForAll",
      "type": "event"
    },
    {
      "anonymous": false,
      "inputs": [
        {
          "indexed": true,
          "internalType": "address",
          "name": "from",
          "type": "address"
        },
        {
          "indexed": true,
          "internalType": "address",
          "name": "to",
          "type": "address"
        },
        {
          "indexed": true,
          "internalType": "uint256",
          "name": "tokenId",
          "type": "uint256"
        }
      ],
      "name": "Transfer",
      "type": "event"
    },
    {
      "inputs": [],
      "name": "alreadySupply",
      "outputs": [
        {
          "internalType": "uint256",
          "name": "",
          "type": "uint256"
        }
      ],
      "stateMutability": "view",
      "type": "function"
    },
    {
      "inputs": [
        {
          "internalType": "address",
          "name": "to",
          "type": "address"
        },
        {
          "internalType": "uint256",
          "name": "tokenId",
          "type": "uint256"
        }
      ],
      "name": "approve",
      "outputs": [],
      "stateMutability": "nonpayable",
      "type": "function"
    },
    {
      "inputs": [
        {
          "internalType": "address",
          "name": "owner",
          "type": "address"
        }
      ],
      "name": "balanceOf",
      "outputs": [
        {
          "internalType": "uint256",
          "name": "",
          "type": "uint256"
        }
      ],
      "stateMutability": "view",
      "type": "function"
    },
    {
      "inputs": [],
      "name": "baseExtension",
      "outputs": [
        {
          "internalType": "string",
          "name": "",
          "type": "string"
        }
      ],
      "stateMutability": "view",
      "type": "function"
    },
    {
      "inputs": [],
      "name": "baseURI",
      "outputs": [
        {
          "internalType": "string",
          "name": "",
          "type": "string"
        }
      ],
      "stateMutability": "view",
      "type": "function"
    },
    {
      "inputs": [],
      "name": "cashprize",
      "outputs": [
        {
          "internalType": "uint256",
          "name": "",
          "type": "uint256"
        }
      ],
      "stateMutability": "view",
      "type": "function"
    },
    {
      "inputs": [
        {
          "internalType": "uint256",
          "name": "_alreadySupply",
          "type": "uint256"
        }
      ],
      "name": "changeAlreadySupply",
      "outputs": [],
      "stateMutability": "nonpayable",
      "type": "function"
    },
    {
      "inputs": [
        {
          "internalType": "uint256",
          "name": "_maxMintAllowed",
          "type": "uint256"
        }
      ],
      "name": "changeMaxMintAllowed",
      "outputs": [],
      "stateMutability": "nonpayable",
      "type": "function"
    },
    {
      "inputs": [
        {
          "internalType": "uint256",
          "name": "_priceSale",
          "type": "uint256"
        }
      ],
      "name": "changePriceSale",
      "outputs": [],
      "stateMutability": "nonpayable",
      "type": "function"
    },
    {
      "inputs": [
        {
          "internalType": "uint256",
          "name": "_supplyLottery",
          "type": "uint256"
        }
      ],
      "name": "changeSupplyLottery",
      "outputs": [],
      "stateMutability": "nonpayable",
      "type": "function"
    },
    {
      "inputs": [
        {
          "internalType": "address",
          "name": "_account",
          "type": "address"
        },
        {
          "internalType": "uint256",
          "name": "_ammount",
          "type": "uint256"
        }
      ],
      "name": "enter",
      "outputs": [],
      "stateMutability": "payable",
      "type": "function"
    },
    {
      "inputs": [
        {
          "internalType": "uint256",
          "name": "tokenId",
          "type": "uint256"
        }
      ],
      "name": "getApproved",
      "outputs": [
        {
          "internalType": "address",
          "name": "",
          "type": "address"
        }
      ],
      "stateMutability": "view",
      "type": "function"
    },
    {
      "inputs": [],
      "name": "getBalance",
      "outputs": [
        {
          "internalType": "uint256",
          "name": "",
          "type": "uint256"
        }
      ],
      "stateMutability": "view",
      "type": "function"
    },
    {
      "inputs": [
        {
          "internalType": "uint256",
          "name": "_idLottery",
          "type": "uint256"
        }
      ],
      "name": "getWinner",
      "outputs": [
        {
          "internalType": "address",
          "name": "",
          "type": "address"
        }
      ],
      "stateMutability": "view",
      "type": "function"
    },
    {
      "inputs": [],
      "name": "idLottery",
      "outputs": [
        {
          "internalType": "uint256",
          "name": "",
          "type": "uint256"
        }
      ],
      "stateMutability": "view",
      "type": "function"
    },
    {
      "inputs": [
        {
          "internalType": "address",
          "name": "owner",
          "type": "address"
        },
        {
          "internalType": "address",
          "name": "operator",
          "type": "address"
        }
      ],
      "name": "isApprovedForAll",
      "outputs": [
        {
          "internalType": "bool",
          "name": "",
          "type": "bool"
        }
      ],
      "stateMutability": "view",
      "type": "function"
    },
    {
      "inputs": [],
      "name": "lotteryClosed",
      "outputs": [
        {
          "internalType": "bool",
          "name": "",
          "type": "bool"
        }
      ],
      "stateMutability": "view",
      "type": "function"
    },
    {
      "inputs": [],
      "name": "max_mint_allowed",
      "outputs": [
        {
          "internalType": "uint256",
          "name": "",
          "type": "uint256"
        }
      ],
      "stateMutability": "view",
      "type": "function"
    },
    {
      "inputs": [],
      "name": "name",
      "outputs": [
        {
          "internalType": "string",
          "name": "",
          "type": "string"
        }
      ],
      "stateMutability": "view",
      "type": "function"
    },
    {
      "inputs": [
        {
          "internalType": "uint256",
          "name": "tokenId",
          "type": "uint256"
        }
      ],
      "name": "ownerOf",
      "outputs": [
        {
          "internalType": "address",
          "name": "",
          "type": "address"
        }
      ],
      "stateMutability": "view",
      "type": "function"
    },
    {
      "inputs": [],
      "name": "pickWinner",
      "outputs": [],
      "stateMutability": "nonpayable",
      "type": "function"
    },
    {
      "inputs": [
        {
          "internalType": "uint256",
          "name": "",
          "type": "uint256"
        }
      ],
      "name": "players",
      "outputs": [
        {
          "internalType": "address payable",
          "name": "",
          "type": "address"
        }
      ],
      "stateMutability": "view",
      "type": "function"
    },
    {
      "inputs": [],
      "name": "priceSale",
      "outputs": [
        {
          "internalType": "uint256",
          "name": "",
          "type": "uint256"
        }
      ],
      "stateMutability": "view",
      "type": "function"
    },
    {
      "inputs": [
        {
          "internalType": "uint256",
          "name": "requestId",
          "type": "uint256"
        },
        {
          "internalType": "uint256[]",
          "name": "randomWords",
          "type": "uint256[]"
        }
      ],
      "name": "rawFulfillRandomWords",
      "outputs": [],
      "stateMutability": "nonpayable",
      "type": "function"
    },
    {
      "inputs": [],
      "name": "requestRandomWords",
      "outputs": [],
      "stateMutability": "nonpayable",
      "type": "function"
    },
    {
      "inputs": [
        {
          "internalType": "uint256",
          "name": "",
          "type": "uint256"
        }
      ],
      "name": "s_randomWords",
      "outputs": [
        {
          "internalType": "uint256",
          "name": "",
          "type": "uint256"
        }
      ],
      "stateMutability": "view",
      "type": "function"
    },
    {
      "inputs": [],
      "name": "s_requestId",
      "outputs": [
        {
          "internalType": "uint256",
          "name": "",
          "type": "uint256"
        }
      ],
      "stateMutability": "view",
      "type": "function"
    },
    {
      "inputs": [
        {
          "internalType": "address",
          "name": "from",
          "type": "address"
        },
        {
          "internalType": "address",
          "name": "to",
          "type": "address"
        },
        {
          "internalType": "uint256",
          "name": "tokenId",
          "type": "uint256"
        }
      ],
      "name": "safeTransferFrom",
      "outputs": [],
      "stateMutability": "nonpayable",
      "type": "function"
    },
    {
      "inputs": [
        {
          "internalType": "address",
          "name": "from",
          "type": "address"
        },
        {
          "internalType": "address",
          "name": "to",
          "type": "address"
        },
        {
          "internalType": "uint256",
          "name": "tokenId",
          "type": "uint256"
        },
        {
          "internalType": "bytes",
          "name": "_data",
          "type": "bytes"
        }
      ],
      "name": "safeTransferFrom",
      "outputs": [],
      "stateMutability": "nonpayable",
      "type": "function"
    },
    {
      "inputs": [
        {
          "internalType": "address",
          "name": "operator",
          "type": "address"
        },
        {
          "internalType": "bool",
          "name": "approved",
          "type": "bool"
        }
      ],
      "name": "setApprovalForAll",
      "outputs": [],
      "stateMutability": "nonpayable",
      "type": "function"
    },
    {
      "inputs": [
        {
          "internalType": "string",
          "name": "_baseExtension",
          "type": "string"
        }
      ],
      "name": "setBaseExtension",
      "outputs": [],
      "stateMutability": "nonpayable",
      "type": "function"
    },
    {
      "inputs": [
        {
          "internalType": "string",
          "name": "_newBaseURI",
          "type": "string"
        }
      ],
      "name": "setBaseUri",
      "outputs": [],
      "stateMutability": "nonpayable",
      "type": "function"
    },
    {
      "inputs": [],
      "name": "supplyLottery",
      "outputs": [
        {
          "internalType": "uint256",
          "name": "",
          "type": "uint256"
        }
      ],
      "stateMutability": "view",
      "type": "function"
    },
    {
      "inputs": [
        {
          "internalType": "bytes4",
          "name": "interfaceId",
          "type": "bytes4"
        }
      ],
      "name": "supportsInterface",
      "outputs": [
        {
          "internalType": "bool",
          "name": "",
          "type": "bool"
        }
      ],
      "stateMutability": "view",
      "type": "function"
    },
    {
      "inputs": [],
      "name": "symbol",
      "outputs": [
        {
          "internalType": "string",
          "name": "",
          "type": "string"
        }
      ],
      "stateMutability": "view",
      "type": "function"
    },
    {
      "inputs": [],
      "name": "toggleLottery",
      "outputs": [],
      "stateMutability": "nonpayable",
      "type": "function"
    },
    {
      "inputs": [
        {
          "internalType": "uint256",
          "name": "_tokenId",
          "type": "uint256"
        }
      ],
      "name": "tokenURI",
      "outputs": [
        {
          "internalType": "string",
          "name": "",
          "type": "string"
        }
      ],
      "stateMutability": "view",
      "type": "function"
    },
    {
      "inputs": [],
      "name": "totalSupply",
      "outputs": [
        {
          "internalType": "uint256",
          "name": "",
          "type": "uint256"
        }
      ],
      "stateMutability": "view",
      "type": "function"
    },
    {
      "inputs": [
        {
          "internalType": "address",
          "name": "from",
          "type": "address"
        },
        {
          "internalType": "address",
          "name": "to",
          "type": "address"
        },
        {
          "internalType": "uint256",
          "name": "tokenId",
          "type": "uint256"
        }
      ],
      "name": "transferFrom",
      "outputs": [],
      "stateMutability": "nonpayable",
      "type": "function"
    },
    {
      "inputs": [
        {
          "internalType": "uint256",
          "name": "",
          "type": "uint256"
        }
      ],
      "name": "winners",
      "outputs": [
        {
          "internalType": "address",
          "name": "",
          "type": "address"
        }
      ],
      "stateMutability": "view",
      "type": "function"
    }
  ],
  "bytecode": "0x60646009556032600a55662386f26fc10000600b556000600c5560e0604052600560a090815264173539b7b760d91b60c052600e90620000409082620002d7565b50601080546001600160a01b031916737a1bac17ccc5b313516c5e16fb24f7659aa5ebed1790557f4b09e658ed251bcafeebbc69400383d49f344ace09b9576fe248bb02c003fe9f6011556012805466010003000186a06001600160501b031990911617905560016018556000601955348015620000bd57600080fd5b506040516200271738038062002717833981016040819052620000e091620003c0565b604080518082018252600b81526a446566694c6f747465727960a81b6020808301919091528251808401909352600383526211119360ea1b908301526010546001600160a01b03166080529060026200013a8382620002d7565b506003620001498282620002d7565b506001600090815560016008819055601b80546001600160a01b0319166001600160a01b0387811691909117909155601054600f8054919092166001600160e01b031990911617600160a01b6001600160401b038a160217905560176020527f0ad2c623302a2a81502a964309d6b26da628a42bfbe3794f54ab4ac57ab8cb97805460ff199081168317909155733fae2c1f71c2acd41754c9ffd3e2967315051f9e9092527fb3577c478933e5e2e61770f2d7ca0694805b88c21c151d8b82d1e5b055742d3c805490921617905550600d9050620002288382620002d7565b50505050620004be565b634e487b7160e01b600052604160045260246000fd5b600181811c908216806200025d57607f821691505b6020821081036200027e57634e487b7160e01b600052602260045260246000fd5b50919050565b601f821115620002d257600081815260208120601f850160051c81016020861015620002ad5750805b601f850160051c820191505b81811015620002ce57828155600101620002b9565b5050505b505050565b81516001600160401b03811115620002f357620002f362000232565b6200030b8162000304845462000248565b8462000284565b602080601f8311600181146200034357600084156200032a5750858301515b600019600386901b1c1916600185901b178555620002ce565b600085815260208120601f198616915b82811015620003745788860151825594840194600190910190840162000353565b5085821015620003935787850151600019600388901b60f8161c191681555b5050505050600190811b01905550565b80516001600160a01b0381168114620003bb57600080fd5b919050565b600080600060608486031215620003d657600080fd5b83516001600160401b038082168214620003ef57600080fd5b60208681015192955091818111156200040757600080fd5b8601601f810188136200041957600080fd5b8051828111156200042e576200042e62000232565b604051601f8201601f19908116603f0116810190848211818310171562000459576200045962000232565b816040528281528a868486010111156200047257600080fd5b600094505b8285101562000496578385018601518186018701529385019362000477565b6000868483010152809750505050505050620004b560408501620003a3565b90509250925092565b608051612236620004e160003960008181610943015261098501526122366000f3fe60806040526004361061023b5760003560e01c806381a7927e1161012e578063c6682862116100ab578063e433a5841161006f578063e433a58414610671578063e89e106a1461068b578063e985e9c5146106a1578063f6eaffc8146106c1578063f71d96cb146106e157600080fd5b8063c6682862146105f1578063c87b56dd14610606578063c992713114610626578063da3ef23f1461063c578063e0c862891461065c57600080fd5b8063a22cb465116100f2578063a22cb46514610550578063a2fb117514610570578063b88d4fde146105a6578063ba0c60c9146105c6578063bdf08b11146105dc57600080fd5b806381a7927e146104cf5780638512e7b7146104e55780638f432a27146104fb57806395d89b411461051b578063a0bcfc7f1461053057600080fd5b80634129b2c9116101bc5780636352211e116101805780636352211e146104475780636863f073146104675780636c0360eb1461048757806370a082311461049c5780637e348b7d146104bc57600080fd5b80634129b2c9146103a657806342842e0e146103dc578063549df2df146103fc5780635d013ad01461041c5780635d495aea1461043257600080fd5b806312065fe01161020357806312065fe01461031557806318160ddd146103285780631dcfab39146103465780631fe543e31461036657806323b872dd1461038657600080fd5b806301ffc9a714610240578063039b4ce81461027557806306fdde0314610299578063081812fc146102bb578063095ea7b3146102f3575b600080fd5b34801561024c57600080fd5b5061026061025b366004611b23565b610701565b60405190151581526020015b60405180910390f35b34801561028157600080fd5b5061028b60095481565b60405190815260200161026c565b3480156102a557600080fd5b506102ae610753565b60405161026c9190611b90565b3480156102c757600080fd5b506102db6102d6366004611ba3565b6107e5565b6040516001600160a01b03909116815260200161026c565b3480156102ff57600080fd5b5061031361030e366004611bd8565b610829565b005b34801561032157600080fd5b504761028b565b34801561033457600080fd5b5061028b600154600054036000190190565b34801561035257600080fd5b50610313610361366004611ba3565b6108fb565b34801561037257600080fd5b50610313610381366004611c49565b610938565b34801561039257600080fd5b506103136103a1366004611cfb565b6109c0565b3480156103b257600080fd5b506102db6103c1366004611ba3565b6000908152601660205260409020546001600160a01b031690565b3480156103e857600080fd5b506103136103f7366004611cfb565b6109d0565b34801561040857600080fd5b50610313610417366004611ba3565b6109eb565b34801561042857600080fd5b5061028b60185481565b34801561043e57600080fd5b50610313610a1f565b34801561045357600080fd5b506102db610462366004611ba3565b610c4a565b34801561047357600080fd5b50610313610482366004611ba3565b610c55565b34801561049357600080fd5b506102ae610c89565b3480156104a857600080fd5b5061028b6104b7366004611d37565b610d17565b6103136104ca366004611bd8565b610d60565b3480156104db57600080fd5b5061028b600b5481565b3480156104f157600080fd5b5061028b60195481565b34801561050757600080fd5b50610313610516366004611ba3565b610f82565b34801561052757600080fd5b506102ae610fb6565b34801561053c57600080fd5b5061031361054b366004611daa565b610fc5565b34801561055c57600080fd5b5061031361056b366004611df3565b611000565b34801561057c57600080fd5b506102db61058b366004611ba3565b6016602052600090815260409020546001600160a01b031681565b3480156105b257600080fd5b506103136105c1366004611e2f565b611095565b3480156105d257600080fd5b5061028b600a5481565b3480156105e857600080fd5b506103136110df565b3480156105fd57600080fd5b506102ae611122565b34801561061257600080fd5b506102ae610621366004611ba3565b61112f565b34801561063257600080fd5b5061028b600c5481565b34801561064857600080fd5b50610313610657366004611daa565b6111b8565b34801561066857600080fd5b506103136111f3565b34801561067d57600080fd5b506015546102609060ff1681565b34801561069757600080fd5b5061028b60145481565b3480156106ad57600080fd5b506102606106bc366004611eab565b61132c565b3480156106cd57600080fd5b5061028b6106dc366004611ba3565b61135a565b3480156106ed57600080fd5b506102db6106fc366004611ba3565b61137b565b60006301ffc9a760e01b6001600160e01b03198316148061073257506380ac58cd60e01b6001600160e01b03198316145b8061074d5750635b5e139f60e01b6001600160e01b03198316145b92915050565b60606002805461076290611ede565b80601f016020809104026020016040519081016040528092919081815260200182805461078e90611ede565b80156107db5780601f106107b0576101008083540402835291602001916107db565b820191906000526020600020905b8154815290600101906020018083116107be57829003601f168201915b5050505050905090565b60006107f0826113a5565b61080d576040516333d1c03960e21b815260040160405180910390fd5b506000908152600660205260409020546001600160a01b031690565b6000610834826113da565b9050806001600160a01b0316836001600160a01b0316036108685760405163250fdee360e21b815260040160405180910390fd5b336001600160a01b0382161461089f57610882813361132c565b61089f576040516367d9dca160e11b815260040160405180910390fd5b60008281526006602052604080822080546001600160a01b0319166001600160a01b0387811691821790925591518593918516917f8c5be1e5ebec7d5bd14f71427d1e84f3dd0314c0f7b2291e5b200ac8c7c3b92591a4505050565b3360009081526017602052604090205460ff166109335760405162461bcd60e51b815260040161092a90611f18565b60405180910390fd5b600b55565b336001600160a01b037f000000000000000000000000000000000000000000000000000000000000000016146109b25760405163073e64fd60e21b81523360048201526001600160a01b037f000000000000000000000000000000000000000000000000000000000000000016602482015260440161092a565b6109bc8282611450565b5050565b6109cb838383611463565b505050565b6109cb83838360405180602001604052806000815250611095565b3360009081526017602052604090205460ff16610a1a5760405162461bcd60e51b815260040161092a90611f18565b600a55565b3360009081526017602052604090205460ff16610a4e5760405162461bcd60e51b815260040161092a90611f18565b60155460ff16610a985760405162461bcd60e51b8152602060048201526015602482015274131bdd1d195c9e481a5cc81b9bdd0818db1bdcd959605a1b604482015260640161092a565b610aa3606447611f6f565b610aae906050611f83565b601954610abb9190611f9a565b601955601a546013805460009291908390610ad857610ad8611fad565b9060005260206000200154610aed9190611fc3565b9050601a8181548110610b0257610b02611fad565b6000918252602090912001546001600160a01b03166108fc610b25606447611f6f565b610b30906050611f83565b6040518115909202916000818181858888f19350505050158015610b58573d6000803e3d6000fd5b50601b546040516001600160a01b03909116904780156108fc02916000818181858888f19350505050158015610b92573d6000803e3d6000fd5b50601a8181548110610ba657610ba6611fad565b600091825260208083209091015460188054845260169092526040832080546001600160a01b0319166001600160a01b03909216919091179055805491610bec83611fd7565b90915550506040805160008152602081019182905251610c0e91601a91611a55565b50610c20600154600054036000190190565b600c556015805460ff1916905560408051600081526020810191829052516109bc91601391611aba565b600061074d826113da565b3360009081526017602052604090205460ff16610c845760405162461bcd60e51b815260040161092a90611f18565b600955565b600d8054610c9690611ede565b80601f0160208091040260200160405190810160405280929190818152602001828054610cc290611ede565b8015610d0f5780601f10610ce457610100808354040283529160200191610d0f565b820191906000526020600020905b815481529060010190602001808311610cf257829003601f168201915b505050505081565b600081600003610d3a576040516323d3ad8160e21b815260040160405180910390fd5b506001600160a01b031660009081526005602052604090205467ffffffffffffffff1690565b610d6861161d565b60155460ff1615610daf5760405162461bcd60e51b8152602060048201526011602482015270131bdd1d195c9e481a5cc818db1bdcd959607a1b604482015260640161092a565b600b54610dbc8282611f83565b341015610e005760405162461bcd60e51b81526020600482015260126024820152712737ba1032b737bab3b43a10333ab732399760711b604482015260640161092a565b600a54821115610e5e5760405162461bcd60e51b815260206004820152602360248201527f596f752063616e2774206d696e74206d6f7265207468616e203530207469636b60448201526265747360e81b606482015260840161092a565b600c54600954610e6e9190611f9a565b82610e80600154600054036000190190565b610e8a9190611f9a565b1115610eec5760405162461bcd60e51b815260206004820152602b60248201527f4e756d626572206f662072656d61696e696e67207469636b657473206973206960448201526a1b9cdd59999a58da595b9d60aa1b606482015260840161092a565b601a80546001810182556000919091527f057c384a7d1c54f3a1b2e5e67b2617b8224fdfd1ea7234eea573a6ff665ff63e0180546001600160a01b03191633179055600c54600954610f3e9190611f9a565b82610f50600154600054036000190190565b610f5a9190611f9a565b03610f6d576015805460ff191660011790555b610f778383611676565b506109bc6001600855565b3360009081526017602052604090205460ff16610fb15760405162461bcd60e51b815260040161092a90611f18565b600c55565b60606003805461076290611ede565b3360009081526017602052604090205460ff16610ff45760405162461bcd60e51b815260040161092a90611f18565b600d6109bc8282612036565b336001600160a01b038316036110295760405163b06307db60e01b815260040160405180910390fd5b3360008181526007602090815260408083206001600160a01b03871680855290835292819020805460ff191686151590811790915590519081529192917f17307eab39ab6107e8899845ad3d59bd9653f200f220920489ca2b5937696c31910160405180910390a35050565b6110a0848484611463565b6001600160a01b0383163b156110d9576110bc84848484611690565b6110d9576040516368d2bf6b60e11b815260040160405180910390fd5b50505050565b3360009081526017602052604090205460ff1661110e5760405162461bcd60e51b815260040161092a90611f18565b6015805460ff19811660ff90911615179055565b600e8054610c9690611ede565b606061113a826113a5565b6111865760405162461bcd60e51b815260206004820152601f60248201527f55524920717565727920666f72206e6f6e6578697374656e7420746f6b656e00604482015260640161092a565b600d6111918361177c565b6040516020016111a29291906120f6565b6040516020818303038152906040529050919050565b3360009081526017602052604090205460ff166111e75760405162461bcd60e51b815260040161092a90611f18565b600e6109bc8282612036565b3360009081526017602052604090205460ff166112225760405162461bcd60e51b815260040161092a90611f18565b60155460ff1661126c5760405162461bcd60e51b8152602060048201526015602482015274131bdd1d195c9e481a5cc81b9bdd0818db1bdcd959605a1b604482015260640161092a565b600f546011546012546040516305d3b1d360e41b81526004810192909252600160a01b830467ffffffffffffffff166024830152640100000000810461ffff16604483015263ffffffff808216606484015266010000000000009091041660848201526001600160a01b0390911690635d3b1d309060a4016020604051808303816000875af1158015611303573d6000803e3d6000fd5b505050506040513d601f19601f82011682018060405250810190611327919061218d565b601455565b6001600160a01b03918216600090815260076020908152604080832093909416825291909152205460ff1690565b6013818154811061136a57600080fd5b600091825260209091200154905081565b601a818154811061138b57600080fd5b6000918252602090912001546001600160a01b0316905081565b6000816001111580156113b9575060005482105b801561074d575050600090815260046020526040902054600160e01b161590565b60008180600111611437576000548110156114375760008181526004602052604081205490600160e01b82169003611435575b8060000361142e57506000190160008181526004602052604090205461140d565b9392505050565b505b604051636f96cda160e11b815260040160405180910390fd5b80516109cb906013906020840190611aba565b600061146e826113da565b9050836001600160a01b0316816001600160a01b0316146114a15760405162a1148160e81b815260040160405180910390fd5b6000828152600660205260408120546001600160a01b03908116919086163314806114d157506114d1863361132c565b806114e457506001600160a01b03821633145b90508061150457604051632ce44b5f60e11b815260040160405180910390fd5b8460000361152557604051633a954ecd60e21b815260040160405180910390fd5b811561154857600084815260066020526040902080546001600160a01b03191690555b6001600160a01b038681166000908152600560209081526040808320805460001901905592881682528282208054600101905586825260049052908120600160e11b4260a01b88178117909155841690036115d3576001840160008181526004602052604081205490036115d15760005481146115d15760008181526004602052604090208490555b505b83856001600160a01b0316876001600160a01b03167fddf252ad1be2c89b69c2b068fc378daa952ba7f163c4a11628f55a4df523b3ef60405160405180910390a45b505050505050565b60026008540361166f5760405162461bcd60e51b815260206004820152601f60248201527f5265656e7472616e637947756172643a207265656e7472616e742063616c6c00604482015260640161092a565b6002600855565b6109bc82826040518060200160405280600081525061180f565b604051630a85bd0160e11b81526000906001600160a01b0385169063150b7a02906116c59033908990889088906004016121a6565b6020604051808303816000875af1925050508015611700575060408051601f3d908101601f191682019092526116fd918101906121e3565b60015b61175e573d80801561172e576040519150601f19603f3d011682016040523d82523d6000602084013e611733565b606091505b508051600003611756576040516368d2bf6b60e11b815260040160405180910390fd5b805181602001fd5b6001600160e01b031916630a85bd0160e11b1490505b949350505050565b606060006117898361197d565b600101905060008167ffffffffffffffff8111156117a9576117a9611c02565b6040519080825280601f01601f1916602001820160405280156117d3576020820181803683370190505b5090508181016020015b600019016f181899199a1a9b1b9c1cb0b131b232b360811b600a86061a8153600a85049450846117dd57509392505050565b6000548360000361183257604051622e076360e81b815260040160405180910390fd5b826000036118535760405163b562e8dd60e01b815260040160405180910390fd5b6001600160a01b03841660008181526005602090815260408083208054680100000000000000018902019055848352600490915290204260a01b86176001861460e11b1790558190818501903b15611928575b60405182906001600160a01b038816906000907fddf252ad1be2c89b69c2b068fc378daa952ba7f163c4a11628f55a4df523b3ef908290a46118f16000878480600101955087611690565b61190e576040516368d2bf6b60e11b815260040160405180910390fd5b8082106118a657826000541461192357600080fd5b61196d565b5b6040516001830192906001600160a01b038816906000907fddf252ad1be2c89b69c2b068fc378daa952ba7f163c4a11628f55a4df523b3ef908290a4808210611929575b5060009081556110d99085838684565b60008072184f03e93ff9f4daa797ed6e38ed64bf6a1f0160401b83106119bc5772184f03e93ff9f4daa797ed6e38ed64bf6a1f0160401b830492506040015b6d04ee2d6d415b85acef810000000083106119e8576d04ee2d6d415b85acef8100000000830492506020015b662386f26fc100008310611a0657662386f26fc10000830492506010015b6305f5e1008310611a1e576305f5e100830492506008015b6127108310611a3257612710830492506004015b60648310611a44576064830492506002015b600a831061074d5760010192915050565b828054828255906000526020600020908101928215611aaa579160200282015b82811115611aaa57825182546001600160a01b0319166001600160a01b03909116178255602090920191600190910190611a75565b50611ab6929150611af5565b5090565b828054828255906000526020600020908101928215611aaa579160200282015b82811115611aaa578251825591602001919060010190611ada565b5b80821115611ab65760008155600101611af6565b6001600160e01b031981168114611b2057600080fd5b50565b600060208284031215611b3557600080fd5b813561142e81611b0a565b60005b83811015611b5b578181015183820152602001611b43565b50506000910152565b60008151808452611b7c816020860160208601611b40565b601f01601f19169290920160200192915050565b60208152600061142e6020830184611b64565b600060208284031215611bb557600080fd5b5035919050565b80356001600160a01b0381168114611bd357600080fd5b919050565b60008060408385031215611beb57600080fd5b611bf483611bbc565b946020939093013593505050565b634e487b7160e01b600052604160045260246000fd5b604051601f8201601f1916810167ffffffffffffffff81118282101715611c4157611c41611c02565b604052919050565b60008060408385031215611c5c57600080fd5b8235915060208084013567ffffffffffffffff80821115611c7c57600080fd5b818601915086601f830112611c9057600080fd5b813581811115611ca257611ca2611c02565b8060051b9150611cb3848301611c18565b8181529183018401918481019089841115611ccd57600080fd5b938501935b83851015611ceb57843582529385019390850190611cd2565b8096505050505050509250929050565b600080600060608486031215611d1057600080fd5b611d1984611bbc565b9250611d2760208501611bbc565b9150604084013590509250925092565b600060208284031215611d4957600080fd5b61142e82611bbc565b600067ffffffffffffffff831115611d6c57611d6c611c02565b611d7f601f8401601f1916602001611c18565b9050828152838383011115611d9357600080fd5b828260208301376000602084830101529392505050565b600060208284031215611dbc57600080fd5b813567ffffffffffffffff811115611dd357600080fd5b8201601f81018413611de457600080fd5b61177484823560208401611d52565b60008060408385031215611e0657600080fd5b611e0f83611bbc565b915060208301358015158114611e2457600080fd5b809150509250929050565b60008060008060808587031215611e4557600080fd5b611e4e85611bbc565b9350611e5c60208601611bbc565b925060408501359150606085013567ffffffffffffffff811115611e7f57600080fd5b8501601f81018713611e9057600080fd5b611e9f87823560208401611d52565b91505092959194509250565b60008060408385031215611ebe57600080fd5b611ec783611bbc565b9150611ed560208401611bbc565b90509250929050565b600181811c90821680611ef257607f821691505b602082108103611f1257634e487b7160e01b600052602260045260246000fd5b50919050565b6020808252601190820152702cb7ba9030b932903737ba1020b236b4b760791b604082015260600190565b634e487b7160e01b600052601260045260246000fd5b634e487b7160e01b600052601160045260246000fd5b600082611f7e57611f7e611f43565b500490565b808202811582820484141761074d5761074d611f59565b8082018082111561074d5761074d611f59565b634e487b7160e01b600052603260045260246000fd5b600082611fd257611fd2611f43565b500690565b600060018201611fe957611fe9611f59565b5060010190565b601f8211156109cb57600081815260208120601f850160051c810160208610156120175750805b601f850160051c820191505b8181101561161557828155600101612023565b815167ffffffffffffffff81111561205057612050611c02565b6120648161205e8454611ede565b84611ff0565b602080601f83116001811461209957600084156120815750858301515b600019600386901b1c1916600185901b178555611615565b600085815260208120601f198616915b828110156120c8578886015182559484019460019091019084016120a9565b50858210156120e65787850151600019600388901b60f8161c191681555b5050505050600190811b01905550565b600080845461210481611ede565b6001828116801561211c576001811461213157612160565b60ff1984168752821515830287019450612160565b8860005260208060002060005b858110156121575781548a82015290840190820161213e565b50505082870194505b505050508351612174818360208801611b40565b64173539b7b760d91b9101908152600501949350505050565b60006020828403121561219f57600080fd5b5051919050565b6001600160a01b03858116825284166020820152604081018390526080606082018190526000906121d990830184611b64565b9695505050505050565b6000602082840312156121f557600080fd5b815161142e81611b0a56fea26469706673582212201c9c316deff7addbb1ff12db4998894ba613bd2a912ba4918bc39aabfd71740864736f6c63430008110033",
  "linkReferences": {},
  "deployedLinkReferences": {}
}