{
  "_format": "hh-sol-artifact-1",
  "contractName": "DefiLotteryV2",
  "sourceName": "contracts/DefiLotteryV2.sol",
  "abi": [
    {
      "inputs": [
        {
          "internalType": "uint64",
          "name": "subscriptionId",
          "type": "uint64"
        },
        {
          "internalType": "string",
          "name": "_theBaseURI",
          "type": "string"
        },
        {
          "internalType": "address",
          "name": "_team",
          "type": "address"
        }
      ],
      "stateMutability": "nonpayable",
      "type": "constructor"
    },
    {
      "inputs": [],
      "name": "ApprovalCallerNotOwnerNorApproved",
      "type": "error"
    },
    {
      "inputs": [],
      "name": "ApprovalQueryForNonexistentToken",
      "type": "error"
    },
    {
      "inputs": [],
      "name": "ApprovalToCurrentOwner",
      "type": "error"
    },
    {
      "inputs": [],
      "name": "ApproveToCaller",
      "type": "error"
    },
    {
      "inputs": [],
      "name": "BalanceQueryForZeroAddress",
      "type": "error"
    },
    {
      "inputs": [],
      "name": "MintToZeroAddress",
      "type": "error"
    },
    {
      "inputs": [],
      "name": "MintZeroQuantity",
      "type": "error"
    },
    {
      "inputs": [
        {
          "internalType": "address",
          "name": "have",
          "type": "address"
        },
        {
          "internalType": "address",
          "name": "want",
          "type": "address"
        }
      ],
      "name": "OnlyCoordinatorCanFulfill",
      "type": "error"
    },
    {
      "inputs": [],
      "name": "OwnerQueryForNonexistentToken",
      "type": "error"
    },
    {
      "inputs": [],
      "name": "TransferCallerNotOwnerNorApproved",
      "type": "error"
    },
    {
      "inputs": [],
      "name": "TransferFromIncorrectOwner",
      "type": "error"
    },
    {
      "inputs": [],
      "name": "TransferToNonERC721ReceiverImplementer",
      "type": "error"
    },
    {
      "inputs": [],
      "name": "TransferToZeroAddress",
      "type": "error"
    },
    {
      "inputs": [],
      "name": "URIQueryForNonexistentToken",
      "type": "error"
    },
    {
      "anonymous": false,
      "inputs": [
        {
          "indexed": true,
          "internalType": "address",
          "name": "owner",
          "type": "address"
        },
        {
          "indexed": true,
          "internalType": "address",
          "name": "approved",
          "type": "address"
        },
        {
          "indexed": true,
          "internalType": "uint256",
          "name": "tokenId",
          "type": "uint256"
        }
      ],
      "name": "Approval",
      "type": "event"
    },
    {
      "anonymous": false,
      "inputs": [
        {
          "indexed": true,
          "internalType": "address",
          "name": "owner",
          "type": "address"
        },
        {
          "indexed": true,
          "internalType": "address",
          "name": "operator",
          "type": "address"
        },
        {
          "indexed": false,
          "internalType": "bool",
          "name": "approved",
          "type": "bool"
        }
      ],
      "name": "ApprovalForAll",
      "type": "event"
    },
    {
      "anonymous": false,
      "inputs": [
        {
          "indexed": true,
          "internalType": "address",
          "name": "from",
          "type": "address"
        },
        {
          "indexed": true,
          "internalType": "address",
          "name": "to",
          "type": "address"
        },
        {
          "indexed": true,
          "internalType": "uint256",
          "name": "tokenId",
          "type": "uint256"
        }
      ],
      "name": "Transfer",
      "type": "event"
    },
    {
      "inputs": [],
      "name": "MAX_SUPPLY",
      "outputs": [
        {
          "internalType": "uint256",
          "name": "",
          "type": "uint256"
        }
      ],
      "stateMutability": "view",
      "type": "function"
    },
    {
      "inputs": [
        {
          "internalType": "address",
          "name": "to",
          "type": "address"
        },
        {
          "internalType": "uint256",
          "name": "tokenId",
          "type": "uint256"
        }
      ],
      "name": "approve",
      "outputs": [],
      "stateMutability": "nonpayable",
      "type": "function"
    },
    {
      "inputs": [
        {
          "internalType": "address",
          "name": "owner",
          "type": "address"
        }
      ],
      "name": "balanceOf",
      "outputs": [
        {
          "internalType": "uint256",
          "name": "",
          "type": "uint256"
        }
      ],
      "stateMutability": "view",
      "type": "function"
    },
    {
      "inputs": [],
      "name": "baseExtension",
      "outputs": [
        {
          "internalType": "string",
          "name": "",
          "type": "string"
        }
      ],
      "stateMutability": "view",
      "type": "function"
    },
    {
      "inputs": [],
      "name": "baseURI",
      "outputs": [
        {
          "internalType": "string",
          "name": "",
          "type": "string"
        }
      ],
      "stateMutability": "view",
      "type": "function"
    },
    {
      "inputs": [
        {
          "internalType": "uint256",
          "name": "_maxMintAllowed",
          "type": "uint256"
        }
      ],
      "name": "changeMaxMintAllowed",
      "outputs": [],
      "stateMutability": "nonpayable",
      "type": "function"
    },
    {
      "inputs": [
        {
          "internalType": "uint256",
          "name": "_priceSale",
          "type": "uint256"
        }
      ],
      "name": "changePriceSale",
      "outputs": [],
      "stateMutability": "nonpayable",
      "type": "function"
    },
    {
      "inputs": [
        {
          "internalType": "address",
          "name": "_account",
          "type": "address"
        },
        {
          "internalType": "uint256",
          "name": "_ammount",
          "type": "uint256"
        }
      ],
      "name": "enter",
      "outputs": [],
      "stateMutability": "payable",
      "type": "function"
    },
    {
      "inputs": [
        {
          "internalType": "uint256",
          "name": "tokenId",
          "type": "uint256"
        }
      ],
      "name": "getApproved",
      "outputs": [
        {
          "internalType": "address",
          "name": "",
          "type": "address"
        }
      ],
      "stateMutability": "view",
      "type": "function"
    },
    {
      "inputs": [],
      "name": "getBalance",
      "outputs": [
        {
          "internalType": "uint256",
          "name": "",
          "type": "uint256"
        }
      ],
      "stateMutability": "view",
      "type": "function"
    },
    {
      "inputs": [
        {
          "internalType": "uint256",
          "name": "_idLottery",
          "type": "uint256"
        }
      ],
      "name": "getWinner",
      "outputs": [
        {
          "internalType": "address",
          "name": "",
          "type": "address"
        }
      ],
      "stateMutability": "view",
      "type": "function"
    },
    {
      "inputs": [
        {
          "internalType": "address",
          "name": "owner",
          "type": "address"
        },
        {
          "internalType": "address",
          "name": "operator",
          "type": "address"
        }
      ],
      "name": "isApprovedForAll",
      "outputs": [
        {
          "internalType": "bool",
          "name": "",
          "type": "bool"
        }
      ],
      "stateMutability": "view",
      "type": "function"
    },
    {
      "inputs": [],
      "name": "max_mint_allowed",
      "outputs": [
        {
          "internalType": "uint256",
          "name": "",
          "type": "uint256"
        }
      ],
      "stateMutability": "view",
      "type": "function"
    },
    {
      "inputs": [],
      "name": "name",
      "outputs": [
        {
          "internalType": "string",
          "name": "",
          "type": "string"
        }
      ],
      "stateMutability": "view",
      "type": "function"
    },
    {
      "inputs": [
        {
          "internalType": "uint256",
          "name": "tokenId",
          "type": "uint256"
        }
      ],
      "name": "ownerOf",
      "outputs": [
        {
          "internalType": "address",
          "name": "",
          "type": "address"
        }
      ],
      "stateMutability": "view",
      "type": "function"
    },
    {
      "inputs": [],
      "name": "pickWinner",
      "outputs": [],
      "stateMutability": "nonpayable",
      "type": "function"
    },
    {
      "inputs": [
        {
          "internalType": "uint256",
          "name": "",
          "type": "uint256"
        }
      ],
      "name": "players",
      "outputs": [
        {
          "internalType": "address payable",
          "name": "",
          "type": "address"
        }
      ],
      "stateMutability": "view",
      "type": "function"
    },
    {
      "inputs": [],
      "name": "priceSale",
      "outputs": [
        {
          "internalType": "uint256",
          "name": "",
          "type": "uint256"
        }
      ],
      "stateMutability": "view",
      "type": "function"
    },
    {
      "inputs": [
        {
          "internalType": "uint256",
          "name": "requestId",
          "type": "uint256"
        },
        {
          "internalType": "uint256[]",
          "name": "randomWords",
          "type": "uint256[]"
        }
      ],
      "name": "rawFulfillRandomWords",
      "outputs": [],
      "stateMutability": "nonpayable",
      "type": "function"
    },
    {
      "inputs": [],
      "name": "requestRandomWords",
      "outputs": [],
      "stateMutability": "nonpayable",
      "type": "function"
    },
    {
      "inputs": [
        {
          "internalType": "uint256",
          "name": "",
          "type": "uint256"
        }
      ],
      "name": "s_randomWords",
      "outputs": [
        {
          "internalType": "uint256",
          "name": "",
          "type": "uint256"
        }
      ],
      "stateMutability": "view",
      "type": "function"
    },
    {
      "inputs": [],
      "name": "s_requestId",
      "outputs": [
        {
          "internalType": "uint256",
          "name": "",
          "type": "uint256"
        }
      ],
      "stateMutability": "view",
      "type": "function"
    },
    {
      "inputs": [
        {
          "internalType": "address",
          "name": "from",
          "type": "address"
        },
        {
          "internalType": "address",
          "name": "to",
          "type": "address"
        },
        {
          "internalType": "uint256",
          "name": "tokenId",
          "type": "uint256"
        }
      ],
      "name": "safeTransferFrom",
      "outputs": [],
      "stateMutability": "nonpayable",
      "type": "function"
    },
    {
      "inputs": [
        {
          "internalType": "address",
          "name": "from",
          "type": "address"
        },
        {
          "internalType": "address",
          "name": "to",
          "type": "address"
        },
        {
          "internalType": "uint256",
          "name": "tokenId",
          "type": "uint256"
        },
        {
          "internalType": "bytes",
          "name": "_data",
          "type": "bytes"
        }
      ],
      "name": "safeTransferFrom",
      "outputs": [],
      "stateMutability": "nonpayable",
      "type": "function"
    },
    {
      "inputs": [
        {
          "internalType": "address",
          "name": "operator",
          "type": "address"
        },
        {
          "internalType": "bool",
          "name": "approved",
          "type": "bool"
        }
      ],
      "name": "setApprovalForAll",
      "outputs": [],
      "stateMutability": "nonpayable",
      "type": "function"
    },
    {
      "inputs": [
        {
          "internalType": "string",
          "name": "_baseExtension",
          "type": "string"
        }
      ],
      "name": "setBaseExtension",
      "outputs": [],
      "stateMutability": "nonpayable",
      "type": "function"
    },
    {
      "inputs": [
        {
          "internalType": "string",
          "name": "_newBaseURI",
          "type": "string"
        }
      ],
      "name": "setBaseUri",
      "outputs": [],
      "stateMutability": "nonpayable",
      "type": "function"
    },
    {
      "inputs": [
        {
          "internalType": "bytes4",
          "name": "interfaceId",
          "type": "bytes4"
        }
      ],
      "name": "supportsInterface",
      "outputs": [
        {
          "internalType": "bool",
          "name": "",
          "type": "bool"
        }
      ],
      "stateMutability": "view",
      "type": "function"
    },
    {
      "inputs": [],
      "name": "symbol",
      "outputs": [
        {
          "internalType": "string",
          "name": "",
          "type": "string"
        }
      ],
      "stateMutability": "view",
      "type": "function"
    },
    {
      "inputs": [],
      "name": "toggleLottery",
      "outputs": [],
      "stateMutability": "nonpayable",
      "type": "function"
    },
    {
      "inputs": [
        {
          "internalType": "uint256",
          "name": "_tokenId",
          "type": "uint256"
        }
      ],
      "name": "tokenURI",
      "outputs": [
        {
          "internalType": "string",
          "name": "",
          "type": "string"
        }
      ],
      "stateMutability": "view",
      "type": "function"
    },
    {
      "inputs": [],
      "name": "totalSupply",
      "outputs": [
        {
          "internalType": "uint256",
          "name": "",
          "type": "uint256"
        }
      ],
      "stateMutability": "view",
      "type": "function"
    },
    {
      "inputs": [
        {
          "internalType": "address",
          "name": "from",
          "type": "address"
        },
        {
          "internalType": "address",
          "name": "to",
          "type": "address"
        },
        {
          "internalType": "uint256",
          "name": "tokenId",
          "type": "uint256"
        }
      ],
      "name": "transferFrom",
      "outputs": [],
      "stateMutability": "nonpayable",
      "type": "function"
    },
    {
      "inputs": [
        {
          "internalType": "uint256",
          "name": "",
          "type": "uint256"
        }
      ],
      "name": "winners",
      "outputs": [
        {
          "internalType": "address",
          "name": "",
          "type": "address"
        }
      ],
      "stateMutability": "view",
      "type": "function"
    }
  ],
  "bytecode": "0x60326009556005600a81905564174876e800600b5560e060405260a090815264173539b7b760d91b60c052600d9062000039908262000257565b50601080546001600160a01b031916737a1bac17ccc5b313516c5e16fb24f7659aa5ebed1790557f4b09e658ed251bcafeebbc69400383d49f344ace09b9576fe248bb02c003fe9f6011556012805466010003000186a06001600160501b0319909116179055348015620000ac57600080fd5b506040516200239c3803806200239c833981016040819052620000cf9162000340565b604080518082018252600b81526a446566694c6f747465727960a81b6020808301919091528251808401909352600383526211119360ea1b908301526010546001600160a01b031660805290600262000129838262000257565b50600362000138828262000257565b506000805550506001600855601980546001600160a01b038084166001600160a01b031992831617909255601054600f80546015805490941633179093556001600160401b038716600160a01b026001600160e01b03199093169190931617179055600c620001a8838262000257565b505050506200043e565b634e487b7160e01b600052604160045260246000fd5b600181811c90821680620001dd57607f821691505b602082108103620001fe57634e487b7160e01b600052602260045260246000fd5b50919050565b601f8211156200025257600081815260208120601f850160051c810160208610156200022d5750805b601f850160051c820191505b818110156200024e5782815560010162000239565b5050505b505050565b81516001600160401b03811115620002735762000273620001b2565b6200028b81620002848454620001c8565b8462000204565b602080601f831160018114620002c35760008415620002aa5750858301515b600019600386901b1c1916600185901b1785556200024e565b600085815260208120601f198616915b82811015620002f457888601518255948401946001909101908401620002d3565b5085821015620003135787850151600019600388901b60f8161c191681555b5050505050600190811b01905550565b80516001600160a01b03811681146200033b57600080fd5b919050565b6000806000606084860312156200035657600080fd5b83516001600160401b0380821682146200036f57600080fd5b60208681015192955091818111156200038757600080fd5b8601601f810188136200039957600080fd5b805182811115620003ae57620003ae620001b2565b604051601f8201601f19908116603f01168101908482118183101715620003d957620003d9620001b2565b816040528281528a86848601011115620003f257600080fd5b600094505b82851015620004165783850186015181860187015293850193620003f7565b6000868483010152809750505050505050620004356040850162000323565b90509250925092565b608051611f3b620004616000396000818161085701526108990152611f3b6000f3fe6080604052600436106101f95760003560e01c80637e348b7d1161010d578063bdf08b11116100a0578063e0c862891161006f578063e0c862891461058f578063e89e106a146105a4578063e985e9c5146105ba578063f6eaffc8146105da578063f71d96cb146105fa57600080fd5b8063bdf08b1114610525578063c66828621461053a578063c87b56dd1461054f578063da3ef23f1461056f57600080fd5b8063a22cb465116100dc578063a22cb46514610499578063a2fb1175146104b9578063b88d4fde146104ef578063ba0c60c91461050f57600080fd5b80637e348b7d1461043b57806381a7927e1461044e57806395d89b4114610464578063a0bcfc7f1461047957600080fd5b806323b872dd11610190578063549df2df1161015f578063549df2df146103b15780635d495aea146103d15780636352211e146103e65780636c0360eb1461040657806370a082311461041b57600080fd5b806323b872dd1461032557806332cb6b0c146103455780634129b2c91461035b57806342842e0e1461039157600080fd5b806312065fe0116101cc57806312065fe0146102af57806318160ddd146102cc5780631dcfab39146102e55780631fe543e31461030557600080fd5b806301ffc9a7146101fe57806306fdde0314610233578063081812fc14610255578063095ea7b31461028d575b600080fd5b34801561020a57600080fd5b5061021e610219366004611819565b61061a565b60405190151581526020015b60405180910390f35b34801561023f57600080fd5b5061024861066c565b60405161022a9190611886565b34801561026157600080fd5b50610275610270366004611899565b6106fe565b6040516001600160a01b03909116815260200161022a565b34801561029957600080fd5b506102ad6102a83660046118ce565b610742565b005b3480156102bb57600080fd5b50475b60405190815260200161022a565b3480156102d857600080fd5b50600154600054036102be565b3480156102f157600080fd5b506102ad610300366004611899565b610814565b34801561031157600080fd5b506102ad61032036600461193f565b61084c565b34801561033157600080fd5b506102ad6103403660046119f1565b6108d4565b34801561035157600080fd5b506102be60095481565b34801561036757600080fd5b50610275610376366004611899565b6000908152601660205260409020546001600160a01b031690565b34801561039d57600080fd5b506102ad6103ac3660046119f1565b6108e4565b3480156103bd57600080fd5b506102ad6103cc366004611899565b6108ff565b3480156103dd57600080fd5b506102ad61092e565b3480156103f257600080fd5b50610275610401366004611899565b610abd565b34801561041257600080fd5b50610248610ac8565b34801561042757600080fd5b506102be610436366004611a2d565b610b56565b6102ad6104493660046118ce565b610b9f565b34801561045a57600080fd5b506102be600b5481565b34801561047057600080fd5b50610248610dd6565b34801561048557600080fd5b506102ad610494366004611aa0565b610de5565b3480156104a557600080fd5b506102ad6104b4366004611ae9565b610e1b565b3480156104c557600080fd5b506102756104d4366004611899565b6016602052600090815260409020546001600160a01b031681565b3480156104fb57600080fd5b506102ad61050a366004611b25565b610eb0565b34801561051b57600080fd5b506102be600a5481565b34801561053157600080fd5b506102ad610efa565b34801561054657600080fd5b50610248610f45565b34801561055b57600080fd5b5061024861056a366004611899565b610f52565b34801561057b57600080fd5b506102ad61058a366004611aa0565b610fdb565b34801561059b57600080fd5b506102ad611011565b3480156105b057600080fd5b506102be60145481565b3480156105c657600080fd5b5061021e6105d5366004611ba1565b6110fb565b3480156105e657600080fd5b506102be6105f5366004611899565b611129565b34801561060657600080fd5b50610275610615366004611899565b61114a565b60006301ffc9a760e01b6001600160e01b03198316148061064b57506380ac58cd60e01b6001600160e01b03198316145b806106665750635b5e139f60e01b6001600160e01b03198316145b92915050565b60606002805461067b90611bd4565b80601f01602080910402602001604051908101604052809291908181526020018280546106a790611bd4565b80156106f45780601f106106c9576101008083540402835291602001916106f4565b820191906000526020600020905b8154815290600101906020018083116106d757829003601f168201915b5050505050905090565b600061070982611174565b610726576040516333d1c03960e21b815260040160405180910390fd5b506000908152600660205260409020546001600160a01b031690565b600061074d8261119b565b9050806001600160a01b0316836001600160a01b0316036107815760405163250fdee360e21b815260040160405180910390fd5b336001600160a01b038216146107b85761079b81336110fb565b6107b8576040516367d9dca160e11b815260040160405180910390fd5b60008281526006602052604080822080546001600160a01b0319166001600160a01b0387811691821790925591518593918516917f8c5be1e5ebec7d5bd14f71427d1e84f3dd0314c0f7b2291e5b200ac8c7c3b92591a4505050565b6015546001600160a01b031633146108475760405162461bcd60e51b815260040161083e90611c0e565b60405180910390fd5b600b55565b336001600160a01b037f000000000000000000000000000000000000000000000000000000000000000016146108c65760405163073e64fd60e21b81523360048201526001600160a01b037f000000000000000000000000000000000000000000000000000000000000000016602482015260440161083e565b6108d08282611209565b5050565b6108df83838361121c565b505050565b6108df83838360405180602001604052806000815250610eb0565b6015546001600160a01b031633146109295760405162461bcd60e51b815260040161083e90611c0e565b600a55565b6015546001600160a01b031633146109585760405162461bcd60e51b815260040161083e90611c0e565b6015805460ff60a01b1916600160a01b1790556000601880549050601360008154811061098757610987611c35565b906000526020600020015461099c9190611c61565b9050601881815481106109b1576109b1611c35565b6000918252602090912001546001600160a01b03166108fc6109d4606447611c8b565b6109df906050611c9f565b6040518115909202916000818181858888f19350505050158015610a07573d6000803e3d6000fd5b506019546040516001600160a01b03909116904780156108fc02916000818181858888f19350505050158015610a41573d6000803e3d6000fd5b5060188181548110610a5557610a55611c35565b600091825260208083209091015460178054845260169092526040832080546001600160a01b0319166001600160a01b03909216919091179055805491610a9b83611cb6565b909155505060408051600081526020810191829052516108d09160189161174b565b60006106668261119b565b600c8054610ad590611bd4565b80601f0160208091040260200160405190810160405280929190818152602001828054610b0190611bd4565b8015610b4e5780601f10610b2357610100808354040283529160200191610b4e565b820191906000526020600020905b815481529060010190602001808311610b3157829003601f168201915b505050505081565b600081600003610b79576040516323d3ad8160e21b815260040160405180910390fd5b506001600160a01b031660009081526005602052604090205467ffffffffffffffff1690565b600260085403610bf15760405162461bcd60e51b815260206004820152601f60248201527f5265656e7472616e637947756172643a207265656e7472616e742063616c6c00604482015260640161083e565b6002600855601554600160a01b900460ff1615610c445760405162461bcd60e51b8152602060048201526011602482015270131bdd1d195c9e481a5cc818db1bdcd959607a1b604482015260640161083e565b600b54610c518282611c9f565b341015610c955760405162461bcd60e51b81526020600482015260126024820152712737ba1032b737bab3b43a10333ab732399760711b604482015260640161083e565b600a54821115610cf15760405162461bcd60e51b815260206004820152602160248201527f596f752063616e2774206d696e74206d6f7265207468616e205820746f6b656e6044820152607360f81b606482015260840161083e565b60095482610d026001546000540390565b610d0c9190611ccf565b1115610d805760405162461bcd60e51b815260206004820152603860248201527f53616c6520697320616c6d6f737420646f6e6520616e6420776520646f6e277460448201527f206861766520656e6f75676874204e465473206c6566742e0000000000000000606482015260840161083e565b601880546001810182556000919091527fb13d2d76d1f4b7be834882e410b3e3a8afaf69f83600ae24db354391d2378d2e0180546001600160a01b03191633179055610dcc83836113d6565b5050600160085550565b60606003805461067b90611bd4565b6015546001600160a01b03163314610e0f5760405162461bcd60e51b815260040161083e90611c0e565b600c6108d08282611d28565b336001600160a01b03831603610e445760405163b06307db60e01b815260040160405180910390fd5b3360008181526007602090815260408083206001600160a01b03871680855290835292819020805460ff191686151590811790915590519081529192917f17307eab39ab6107e8899845ad3d59bd9653f200f220920489ca2b5937696c31910160405180910390a35050565b610ebb84848461121c565b6001600160a01b0383163b15610ef457610ed7848484846113f0565b610ef4576040516368d2bf6b60e11b815260040160405180910390fd5b50505050565b6015546001600160a01b03163314610f245760405162461bcd60e51b815260040161083e90611c0e565b6015805460ff60a01b198116600160a01b9182900460ff1615909102179055565b600d8054610ad590611bd4565b6060610f5d82611174565b610fa95760405162461bcd60e51b815260206004820152601f60248201527f55524920717565727920666f72206e6f6e6578697374656e7420746f6b656e00604482015260640161083e565b600c610fb4836114dc565b604051602001610fc5929190611de8565b6040516020818303038152906040529050919050565b6015546001600160a01b031633146110055760405162461bcd60e51b815260040161083e90611c0e565b600d6108d08282611d28565b6015546001600160a01b0316331461103b5760405162461bcd60e51b815260040161083e90611c0e565b600f546011546012546040516305d3b1d360e41b81526004810192909252600160a01b830467ffffffffffffffff166024830152640100000000810461ffff16604483015263ffffffff808216606484015266010000000000009091041660848201526001600160a01b0390911690635d3b1d309060a4016020604051808303816000875af11580156110d2573d6000803e3d6000fd5b505050506040513d601f19601f820116820180604052508101906110f69190611e7f565b601455565b6001600160a01b03918216600090815260076020908152604080832093909416825291909152205460ff1690565b6013818154811061113957600080fd5b600091825260209091200154905081565b6018818154811061115a57600080fd5b6000918252602090912001546001600160a01b0316905081565b6000805482108015610666575050600090815260046020526040902054600160e01b161590565b6000816000548110156111f05760008181526004602052604081205490600160e01b821690036111ee575b806000036111e75750600019016000818152600460205260409020546111c6565b9392505050565b505b604051636f96cda160e11b815260040160405180910390fd5b80516108df9060139060208401906117b0565b60006112278261119b565b9050836001600160a01b0316816001600160a01b03161461125a5760405162a1148160e81b815260040160405180910390fd5b6000828152600660205260408120546001600160a01b039081169190861633148061128a575061128a86336110fb565b8061129d57506001600160a01b03821633145b9050806112bd57604051632ce44b5f60e11b815260040160405180910390fd5b846000036112de57604051633a954ecd60e21b815260040160405180910390fd5b811561130157600084815260066020526040902080546001600160a01b03191690555b6001600160a01b038681166000908152600560209081526040808320805460001901905592881682528282208054600101905586825260049052908120600160e11b4260a01b881781179091558416900361138c5760018401600081815260046020526040812054900361138a57600054811461138a5760008181526004602052604090208490555b505b83856001600160a01b0316876001600160a01b03167fddf252ad1be2c89b69c2b068fc378daa952ba7f163c4a11628f55a4df523b3ef60405160405180910390a45b505050505050565b6108d08282604051806020016040528060008152506115dd565b604051630a85bd0160e11b81526000906001600160a01b0385169063150b7a0290611425903390899088908890600401611e98565b6020604051808303816000875af1925050508015611460575060408051601f3d908101601f1916820190925261145d91810190611ed5565b60015b6114be573d80801561148e576040519150601f19603f3d011682016040523d82523d6000602084013e611493565b606091505b5080516000036114b6576040516368d2bf6b60e11b815260040160405180910390fd5b805181602001fd5b6001600160e01b031916630a85bd0160e11b1490505b949350505050565b6060816000036115035750506040805180820190915260018152600360fc1b602082015290565b8160005b811561152d578061151781611cb6565b91506115269050600a83611c8b565b9150611507565b60008167ffffffffffffffff811115611548576115486118f8565b6040519080825280601f01601f191660200182016040528015611572576020820181803683370190505b5090505b84156114d457611587600183611ef2565b9150611594600a86611c61565b61159f906030611ccf565b60f81b8183815181106115b4576115b4611c35565b60200101906001600160f81b031916908160001a9053506115d6600a86611c8b565b9450611576565b6000548360000361160057604051622e076360e81b815260040160405180910390fd5b826000036116215760405163b562e8dd60e01b815260040160405180910390fd5b6001600160a01b03841660008181526005602090815260408083208054680100000000000000018902019055848352600490915290204260a01b86176001861460e11b1790558190818501903b156116f6575b60405182906001600160a01b038816906000907fddf252ad1be2c89b69c2b068fc378daa952ba7f163c4a11628f55a4df523b3ef908290a46116bf60008784806001019550876113f0565b6116dc576040516368d2bf6b60e11b815260040160405180910390fd5b8082106116745782600054146116f157600080fd5b61173b565b5b6040516001830192906001600160a01b038816906000907fddf252ad1be2c89b69c2b068fc378daa952ba7f163c4a11628f55a4df523b3ef908290a48082106116f7575b506000908155610ef49085838684565b8280548282559060005260206000209081019282156117a0579160200282015b828111156117a057825182546001600160a01b0319166001600160a01b0390911617825560209092019160019091019061176b565b506117ac9291506117eb565b5090565b8280548282559060005260206000209081019282156117a0579160200282015b828111156117a05782518255916020019190600101906117d0565b5b808211156117ac57600081556001016117ec565b6001600160e01b03198116811461181657600080fd5b50565b60006020828403121561182b57600080fd5b81356111e781611800565b60005b83811015611851578181015183820152602001611839565b50506000910152565b60008151808452611872816020860160208601611836565b601f01601f19169290920160200192915050565b6020815260006111e7602083018461185a565b6000602082840312156118ab57600080fd5b5035919050565b80356001600160a01b03811681146118c957600080fd5b919050565b600080604083850312156118e157600080fd5b6118ea836118b2565b946020939093013593505050565b634e487b7160e01b600052604160045260246000fd5b604051601f8201601f1916810167ffffffffffffffff81118282101715611937576119376118f8565b604052919050565b6000806040838503121561195257600080fd5b8235915060208084013567ffffffffffffffff8082111561197257600080fd5b818601915086601f83011261198657600080fd5b813581811115611998576119986118f8565b8060051b91506119a984830161190e565b81815291830184019184810190898411156119c357600080fd5b938501935b838510156119e1578435825293850193908501906119c8565b8096505050505050509250929050565b600080600060608486031215611a0657600080fd5b611a0f846118b2565b9250611a1d602085016118b2565b9150604084013590509250925092565b600060208284031215611a3f57600080fd5b6111e7826118b2565b600067ffffffffffffffff831115611a6257611a626118f8565b611a75601f8401601f191660200161190e565b9050828152838383011115611a8957600080fd5b828260208301376000602084830101529392505050565b600060208284031215611ab257600080fd5b813567ffffffffffffffff811115611ac957600080fd5b8201601f81018413611ada57600080fd5b6114d484823560208401611a48565b60008060408385031215611afc57600080fd5b611b05836118b2565b915060208301358015158114611b1a57600080fd5b809150509250929050565b60008060008060808587031215611b3b57600080fd5b611b44856118b2565b9350611b52602086016118b2565b925060408501359150606085013567ffffffffffffffff811115611b7557600080fd5b8501601f81018713611b8657600080fd5b611b9587823560208401611a48565b91505092959194509250565b60008060408385031215611bb457600080fd5b611bbd836118b2565b9150611bcb602084016118b2565b90509250929050565b600181811c90821680611be857607f821691505b602082108103611c0857634e487b7160e01b600052602260045260246000fd5b50919050565b6020808252600d908201526c2737ba103a34329037bbb732b960991b604082015260600190565b634e487b7160e01b600052603260045260246000fd5b634e487b7160e01b600052601260045260246000fd5b600082611c7057611c70611c4b565b500690565b634e487b7160e01b600052601160045260246000fd5b600082611c9a57611c9a611c4b565b500490565b808202811582820484141761066657610666611c75565b600060018201611cc857611cc8611c75565b5060010190565b8082018082111561066657610666611c75565b601f8211156108df57600081815260208120601f850160051c81016020861015611d095750805b601f850160051c820191505b818110156113ce57828155600101611d15565b815167ffffffffffffffff811115611d4257611d426118f8565b611d5681611d508454611bd4565b84611ce2565b602080601f831160018114611d8b5760008415611d735750858301515b600019600386901b1c1916600185901b1785556113ce565b600085815260208120601f198616915b82811015611dba57888601518255948401946001909101908401611d9b565b5085821015611dd85787850151600019600388901b60f8161c191681555b5050505050600190811b01905550565b6000808454611df681611bd4565b60018281168015611e0e5760018114611e2357611e52565b60ff1984168752821515830287019450611e52565b8860005260208060002060005b85811015611e495781548a820152908401908201611e30565b50505082870194505b505050508351611e66818360208801611836565b64173539b7b760d91b9101908152600501949350505050565b600060208284031215611e9157600080fd5b5051919050565b6001600160a01b0385811682528416602082015260408101839052608060608201819052600090611ecb9083018461185a565b9695505050505050565b600060208284031215611ee757600080fd5b81516111e781611800565b8181038181111561066657610666611c7556fea2646970667358221220993dab8d57964a4ea15ae98c7bd90824e63ad2a88e0255a7dc451f2bfda76c5664736f6c63430008110033",
  "linkReferences": {},
  "deployedLinkReferences": {}
}