{
  "_format": "hh-sol-artifact-1",
  "contractName": "DefiLotteryV2",
  "sourceName": "contracts/DefiLotteryV2.sol",
  "abi": [
    {
      "inputs": [
        {
          "internalType": "uint64",
          "name": "subscriptionId",
          "type": "uint64"
        },
        {
          "internalType": "string",
          "name": "_theBaseURI",
          "type": "string"
        },
        {
          "internalType": "address",
          "name": "_team",
          "type": "address"
        }
      ],
      "stateMutability": "nonpayable",
      "type": "constructor"
    },
    {
      "inputs": [],
      "name": "ApprovalCallerNotOwnerNorApproved",
      "type": "error"
    },
    {
      "inputs": [],
      "name": "ApprovalQueryForNonexistentToken",
      "type": "error"
    },
    {
      "inputs": [],
      "name": "ApprovalToCurrentOwner",
      "type": "error"
    },
    {
      "inputs": [],
      "name": "ApproveToCaller",
      "type": "error"
    },
    {
      "inputs": [],
      "name": "BalanceQueryForZeroAddress",
      "type": "error"
    },
    {
      "inputs": [],
      "name": "MintToZeroAddress",
      "type": "error"
    },
    {
      "inputs": [],
      "name": "MintZeroQuantity",
      "type": "error"
    },
    {
      "inputs": [
        {
          "internalType": "address",
          "name": "have",
          "type": "address"
        },
        {
          "internalType": "address",
          "name": "want",
          "type": "address"
        }
      ],
      "name": "OnlyCoordinatorCanFulfill",
      "type": "error"
    },
    {
      "inputs": [],
      "name": "OwnerQueryForNonexistentToken",
      "type": "error"
    },
    {
      "inputs": [],
      "name": "TransferCallerNotOwnerNorApproved",
      "type": "error"
    },
    {
      "inputs": [],
      "name": "TransferFromIncorrectOwner",
      "type": "error"
    },
    {
      "inputs": [],
      "name": "TransferToNonERC721ReceiverImplementer",
      "type": "error"
    },
    {
      "inputs": [],
      "name": "TransferToZeroAddress",
      "type": "error"
    },
    {
      "inputs": [],
      "name": "URIQueryForNonexistentToken",
      "type": "error"
    },
    {
      "anonymous": false,
      "inputs": [
        {
          "indexed": true,
          "internalType": "address",
          "name": "owner",
          "type": "address"
        },
        {
          "indexed": true,
          "internalType": "address",
          "name": "approved",
          "type": "address"
        },
        {
          "indexed": true,
          "internalType": "uint256",
          "name": "tokenId",
          "type": "uint256"
        }
      ],
      "name": "Approval",
      "type": "event"
    },
    {
      "anonymous": false,
      "inputs": [
        {
          "indexed": true,
          "internalType": "address",
          "name": "owner",
          "type": "address"
        },
        {
          "indexed": true,
          "internalType": "address",
          "name": "operator",
          "type": "address"
        },
        {
          "indexed": false,
          "internalType": "bool",
          "name": "approved",
          "type": "bool"
        }
      ],
      "name": "ApprovalForAll",
      "type": "event"
    },
    {
      "anonymous": false,
      "inputs": [
        {
          "indexed": true,
          "internalType": "address",
          "name": "from",
          "type": "address"
        },
        {
          "indexed": true,
          "internalType": "address",
          "name": "to",
          "type": "address"
        },
        {
          "indexed": true,
          "internalType": "uint256",
          "name": "tokenId",
          "type": "uint256"
        }
      ],
      "name": "Transfer",
      "type": "event"
    },
    {
      "inputs": [],
      "name": "alreadySupply",
      "outputs": [
        {
          "internalType": "uint256",
          "name": "",
          "type": "uint256"
        }
      ],
      "stateMutability": "view",
      "type": "function"
    },
    {
      "inputs": [
        {
          "internalType": "address",
          "name": "to",
          "type": "address"
        },
        {
          "internalType": "uint256",
          "name": "tokenId",
          "type": "uint256"
        }
      ],
      "name": "approve",
      "outputs": [],
      "stateMutability": "nonpayable",
      "type": "function"
    },
    {
      "inputs": [
        {
          "internalType": "address",
          "name": "owner",
          "type": "address"
        }
      ],
      "name": "balanceOf",
      "outputs": [
        {
          "internalType": "uint256",
          "name": "",
          "type": "uint256"
        }
      ],
      "stateMutability": "view",
      "type": "function"
    },
    {
      "inputs": [],
      "name": "baseExtension",
      "outputs": [
        {
          "internalType": "string",
          "name": "",
          "type": "string"
        }
      ],
      "stateMutability": "view",
      "type": "function"
    },
    {
      "inputs": [],
      "name": "baseURI",
      "outputs": [
        {
          "internalType": "string",
          "name": "",
          "type": "string"
        }
      ],
      "stateMutability": "view",
      "type": "function"
    },
    {
      "inputs": [
        {
          "internalType": "uint256",
          "name": "_alreadySupply",
          "type": "uint256"
        }
      ],
      "name": "changeAlreadySupply",
      "outputs": [],
      "stateMutability": "nonpayable",
      "type": "function"
    },
    {
      "inputs": [
        {
          "internalType": "uint256",
          "name": "_maxMintAllowed",
          "type": "uint256"
        }
      ],
      "name": "changeMaxMintAllowed",
      "outputs": [],
      "stateMutability": "nonpayable",
      "type": "function"
    },
    {
      "inputs": [
        {
          "internalType": "uint256",
          "name": "_priceSale",
          "type": "uint256"
        }
      ],
      "name": "changePriceSale",
      "outputs": [],
      "stateMutability": "nonpayable",
      "type": "function"
    },
    {
      "inputs": [
        {
          "internalType": "uint256",
          "name": "_supplyLottery",
          "type": "uint256"
        }
      ],
      "name": "changeSupplyLottery",
      "outputs": [],
      "stateMutability": "nonpayable",
      "type": "function"
    },
    {
      "inputs": [
        {
          "internalType": "address",
          "name": "_account",
          "type": "address"
        },
        {
          "internalType": "uint256",
          "name": "_ammount",
          "type": "uint256"
        }
      ],
      "name": "enter",
      "outputs": [],
      "stateMutability": "payable",
      "type": "function"
    },
    {
      "inputs": [
        {
          "internalType": "uint256",
          "name": "tokenId",
          "type": "uint256"
        }
      ],
      "name": "getApproved",
      "outputs": [
        {
          "internalType": "address",
          "name": "",
          "type": "address"
        }
      ],
      "stateMutability": "view",
      "type": "function"
    },
    {
      "inputs": [],
      "name": "getBalance",
      "outputs": [
        {
          "internalType": "uint256",
          "name": "",
          "type": "uint256"
        }
      ],
      "stateMutability": "view",
      "type": "function"
    },
    {
      "inputs": [
        {
          "internalType": "uint256",
          "name": "_idLottery",
          "type": "uint256"
        }
      ],
      "name": "getWinner",
      "outputs": [
        {
          "internalType": "address",
          "name": "",
          "type": "address"
        }
      ],
      "stateMutability": "view",
      "type": "function"
    },
    {
      "inputs": [],
      "name": "idLottery",
      "outputs": [
        {
          "internalType": "uint256",
          "name": "",
          "type": "uint256"
        }
      ],
      "stateMutability": "view",
      "type": "function"
    },
    {
      "inputs": [
        {
          "internalType": "address",
          "name": "owner",
          "type": "address"
        },
        {
          "internalType": "address",
          "name": "operator",
          "type": "address"
        }
      ],
      "name": "isApprovedForAll",
      "outputs": [
        {
          "internalType": "bool",
          "name": "",
          "type": "bool"
        }
      ],
      "stateMutability": "view",
      "type": "function"
    },
    {
      "inputs": [],
      "name": "lotteryClosed",
      "outputs": [
        {
          "internalType": "bool",
          "name": "",
          "type": "bool"
        }
      ],
      "stateMutability": "view",
      "type": "function"
    },
    {
      "inputs": [],
      "name": "max_mint_allowed",
      "outputs": [
        {
          "internalType": "uint256",
          "name": "",
          "type": "uint256"
        }
      ],
      "stateMutability": "view",
      "type": "function"
    },
    {
      "inputs": [],
      "name": "name",
      "outputs": [
        {
          "internalType": "string",
          "name": "",
          "type": "string"
        }
      ],
      "stateMutability": "view",
      "type": "function"
    },
    {
      "inputs": [
        {
          "internalType": "uint256",
          "name": "tokenId",
          "type": "uint256"
        }
      ],
      "name": "ownerOf",
      "outputs": [
        {
          "internalType": "address",
          "name": "",
          "type": "address"
        }
      ],
      "stateMutability": "view",
      "type": "function"
    },
    {
      "inputs": [],
      "name": "pickWinner",
      "outputs": [],
      "stateMutability": "nonpayable",
      "type": "function"
    },
    {
      "inputs": [
        {
          "internalType": "uint256",
          "name": "",
          "type": "uint256"
        }
      ],
      "name": "players",
      "outputs": [
        {
          "internalType": "address payable",
          "name": "",
          "type": "address"
        }
      ],
      "stateMutability": "view",
      "type": "function"
    },
    {
      "inputs": [],
      "name": "priceSale",
      "outputs": [
        {
          "internalType": "uint256",
          "name": "",
          "type": "uint256"
        }
      ],
      "stateMutability": "view",
      "type": "function"
    },
    {
      "inputs": [
        {
          "internalType": "uint256",
          "name": "requestId",
          "type": "uint256"
        },
        {
          "internalType": "uint256[]",
          "name": "randomWords",
          "type": "uint256[]"
        }
      ],
      "name": "rawFulfillRandomWords",
      "outputs": [],
      "stateMutability": "nonpayable",
      "type": "function"
    },
    {
      "inputs": [],
      "name": "requestRandomWords",
      "outputs": [],
      "stateMutability": "nonpayable",
      "type": "function"
    },
    {
      "inputs": [
        {
          "internalType": "uint256",
          "name": "",
          "type": "uint256"
        }
      ],
      "name": "s_randomWords",
      "outputs": [
        {
          "internalType": "uint256",
          "name": "",
          "type": "uint256"
        }
      ],
      "stateMutability": "view",
      "type": "function"
    },
    {
      "inputs": [],
      "name": "s_requestId",
      "outputs": [
        {
          "internalType": "uint256",
          "name": "",
          "type": "uint256"
        }
      ],
      "stateMutability": "view",
      "type": "function"
    },
    {
      "inputs": [
        {
          "internalType": "address",
          "name": "from",
          "type": "address"
        },
        {
          "internalType": "address",
          "name": "to",
          "type": "address"
        },
        {
          "internalType": "uint256",
          "name": "tokenId",
          "type": "uint256"
        }
      ],
      "name": "safeTransferFrom",
      "outputs": [],
      "stateMutability": "nonpayable",
      "type": "function"
    },
    {
      "inputs": [
        {
          "internalType": "address",
          "name": "from",
          "type": "address"
        },
        {
          "internalType": "address",
          "name": "to",
          "type": "address"
        },
        {
          "internalType": "uint256",
          "name": "tokenId",
          "type": "uint256"
        },
        {
          "internalType": "bytes",
          "name": "_data",
          "type": "bytes"
        }
      ],
      "name": "safeTransferFrom",
      "outputs": [],
      "stateMutability": "nonpayable",
      "type": "function"
    },
    {
      "inputs": [
        {
          "internalType": "address",
          "name": "operator",
          "type": "address"
        },
        {
          "internalType": "bool",
          "name": "approved",
          "type": "bool"
        }
      ],
      "name": "setApprovalForAll",
      "outputs": [],
      "stateMutability": "nonpayable",
      "type": "function"
    },
    {
      "inputs": [
        {
          "internalType": "string",
          "name": "_baseExtension",
          "type": "string"
        }
      ],
      "name": "setBaseExtension",
      "outputs": [],
      "stateMutability": "nonpayable",
      "type": "function"
    },
    {
      "inputs": [
        {
          "internalType": "string",
          "name": "_newBaseURI",
          "type": "string"
        }
      ],
      "name": "setBaseUri",
      "outputs": [],
      "stateMutability": "nonpayable",
      "type": "function"
    },
    {
      "inputs": [],
      "name": "supplyLottery",
      "outputs": [
        {
          "internalType": "uint256",
          "name": "",
          "type": "uint256"
        }
      ],
      "stateMutability": "view",
      "type": "function"
    },
    {
      "inputs": [
        {
          "internalType": "bytes4",
          "name": "interfaceId",
          "type": "bytes4"
        }
      ],
      "name": "supportsInterface",
      "outputs": [
        {
          "internalType": "bool",
          "name": "",
          "type": "bool"
        }
      ],
      "stateMutability": "view",
      "type": "function"
    },
    {
      "inputs": [],
      "name": "symbol",
      "outputs": [
        {
          "internalType": "string",
          "name": "",
          "type": "string"
        }
      ],
      "stateMutability": "view",
      "type": "function"
    },
    {
      "inputs": [],
      "name": "toggleLottery",
      "outputs": [],
      "stateMutability": "nonpayable",
      "type": "function"
    },
    {
      "inputs": [
        {
          "internalType": "uint256",
          "name": "_tokenId",
          "type": "uint256"
        }
      ],
      "name": "tokenURI",
      "outputs": [
        {
          "internalType": "string",
          "name": "",
          "type": "string"
        }
      ],
      "stateMutability": "view",
      "type": "function"
    },
    {
      "inputs": [],
      "name": "totalSupply",
      "outputs": [
        {
          "internalType": "uint256",
          "name": "",
          "type": "uint256"
        }
      ],
      "stateMutability": "view",
      "type": "function"
    },
    {
      "inputs": [
        {
          "internalType": "address",
          "name": "from",
          "type": "address"
        },
        {
          "internalType": "address",
          "name": "to",
          "type": "address"
        },
        {
          "internalType": "uint256",
          "name": "tokenId",
          "type": "uint256"
        }
      ],
      "name": "transferFrom",
      "outputs": [],
      "stateMutability": "nonpayable",
      "type": "function"
    },
    {
      "inputs": [
        {
          "internalType": "uint256",
          "name": "",
          "type": "uint256"
        }
      ],
      "name": "winners",
      "outputs": [
        {
          "internalType": "address",
          "name": "",
          "type": "address"
        }
      ],
      "stateMutability": "view",
      "type": "function"
    }
  ],
  "bytecode": "0x60646009556032600a55662386f26fc10000600b556000600c5560e0604052600560a090815264173539b7b760d91b60c052600e906200004090826200025f565b50601080546001600160a01b031916737a1bac17ccc5b313516c5e16fb24f7659aa5ebed1790557f4b09e658ed251bcafeebbc69400383d49f344ace09b9576fe248bb02c003fe9f6011556012805466010003000186a06001600160501b0319909116179055348015620000b357600080fd5b50604051620025f9380380620025f9833981016040819052620000d69162000348565b604080518082018252600b81526a446566694c6f747465727960a81b6020808301919091528251808401909352600383526211119360ea1b908301526010546001600160a01b03166080529060026200013083826200025f565b5060036200013f82826200025f565b50600160005550506001600855601980546001600160a01b038084166001600160a01b031992831617909255601054600f80546015805490941633179093556001600160401b038716600160a01b026001600160e01b03199093169190931617179055600d620001b083826200025f565b5050505062000446565b634e487b7160e01b600052604160045260246000fd5b600181811c90821680620001e557607f821691505b6020821081036200020657634e487b7160e01b600052602260045260246000fd5b50919050565b601f8211156200025a57600081815260208120601f850160051c81016020861015620002355750805b601f850160051c820191505b81811015620002565782815560010162000241565b5050505b505050565b81516001600160401b038111156200027b576200027b620001ba565b62000293816200028c8454620001d0565b846200020c565b602080601f831160018114620002cb5760008415620002b25750858301515b600019600386901b1c1916600185901b17855562000256565b600085815260208120601f198616915b82811015620002fc57888601518255948401946001909101908401620002db565b50858210156200031b5787850151600019600388901b60f8161c191681555b5050505050600190811b01905550565b80516001600160a01b03811681146200034357600080fd5b919050565b6000806000606084860312156200035e57600080fd5b83516001600160401b0380821682146200037757600080fd5b60208681015192955091818111156200038f57600080fd5b8601601f81018813620003a157600080fd5b805182811115620003b657620003b6620001ba565b604051601f8201601f19908116603f01168101908482118183101715620003e157620003e1620001ba565b816040528281528a86848601011115620003fa57600080fd5b600094505b828510156200041e5783850186015181860187015293850193620003ff565b60008684830101528097505050505050506200043d604085016200032b565b90509250925092565b6080516121906200046960003960008181610924015261096601526121906000f3fe6080604052600436106102305760003560e01c80637e348b7d1161012e578063c6682862116100ab578063e433a5841161006f578063e433a58414610650578063e89e106a14610671578063e985e9c514610687578063f6eaffc8146106a7578063f71d96cb146106c757600080fd5b8063c6682862146105d0578063c87b56dd146105e5578063c992713114610605578063da3ef23f1461061b578063e0c862891461063b57600080fd5b8063a22cb465116100f2578063a22cb4651461052f578063a2fb11751461054f578063b88d4fde14610585578063ba0c60c9146105a5578063bdf08b11146105bb57600080fd5b80637e348b7d146104b157806381a7927e146104c45780638f432a27146104da57806395d89b41146104fa578063a0bcfc7f1461050f57600080fd5b806323b872dd116101bc5780635d495aea116101805780635d495aea146104275780636352211e1461043c5780636863f0731461045c5780636c0360eb1461047c57806370a082311461049157600080fd5b806323b872dd1461037b5780634129b2c91461039b57806342842e0e146103d1578063549df2df146103f15780635d013ad01461041157600080fd5b8063095ea7b311610203578063095ea7b3146102e857806312065fe01461030a57806318160ddd1461031d5780631dcfab391461033b5780631fe543e31461035b57600080fd5b806301ffc9a714610235578063039b4ce81461026a57806306fdde031461028e578063081812fc146102b0575b600080fd5b34801561024157600080fd5b50610255610250366004611a6e565b6106e7565b60405190151581526020015b60405180910390f35b34801561027657600080fd5b5061028060095481565b604051908152602001610261565b34801561029a57600080fd5b506102a3610739565b6040516102619190611adb565b3480156102bc57600080fd5b506102d06102cb366004611aee565b6107cb565b6040516001600160a01b039091168152602001610261565b3480156102f457600080fd5b50610308610303366004611b23565b61080f565b005b34801561031657600080fd5b5047610280565b34801561032957600080fd5b50610280600154600054036000190190565b34801561034757600080fd5b50610308610356366004611aee565b6108e1565b34801561036757600080fd5b50610308610376366004611b94565b610919565b34801561038757600080fd5b50610308610396366004611c46565b6109a1565b3480156103a757600080fd5b506102d06103b6366004611aee565b6000908152601660205260409020546001600160a01b031690565b3480156103dd57600080fd5b506103086103ec366004611c46565b6109b1565b3480156103fd57600080fd5b5061030861040c366004611aee565b6109cc565b34801561041d57600080fd5b5061028060175481565b34801561043357600080fd5b506103086109fb565b34801561044857600080fd5b506102d0610457366004611aee565b610c07565b34801561046857600080fd5b50610308610477366004611aee565b610c12565b34801561048857600080fd5b506102a3610c41565b34801561049d57600080fd5b506102806104ac366004611c82565b610ccf565b6103086104bf366004611b23565b610d18565b3480156104d057600080fd5b50610280600b5481565b3480156104e657600080fd5b506103086104f5366004611aee565b610f95565b34801561050657600080fd5b506102a3610fc4565b34801561051b57600080fd5b5061030861052a366004611cf5565b610fd3565b34801561053b57600080fd5b5061030861054a366004611d3e565b611009565b34801561055b57600080fd5b506102d061056a366004611aee565b6016602052600090815260409020546001600160a01b031681565b34801561059157600080fd5b506103086105a0366004611d7a565b61109e565b3480156105b157600080fd5b50610280600a5481565b3480156105c757600080fd5b506103086110e8565b3480156105dc57600080fd5b506102a3611133565b3480156105f157600080fd5b506102a3610600366004611aee565b611140565b34801561061157600080fd5b50610280600c5481565b34801561062757600080fd5b50610308610636366004611cf5565b6111c9565b34801561064757600080fd5b506103086111ff565b34801561065c57600080fd5b5060155461025590600160a01b900460ff1681565b34801561067d57600080fd5b5061028060145481565b34801561069357600080fd5b506102556106a2366004611df6565b61133a565b3480156106b357600080fd5b506102806106c2366004611aee565b611368565b3480156106d357600080fd5b506102d06106e2366004611aee565b611389565b60006301ffc9a760e01b6001600160e01b03198316148061071857506380ac58cd60e01b6001600160e01b03198316145b806107335750635b5e139f60e01b6001600160e01b03198316145b92915050565b60606002805461074890611e29565b80601f016020809104026020016040519081016040528092919081815260200182805461077490611e29565b80156107c15780601f10610796576101008083540402835291602001916107c1565b820191906000526020600020905b8154815290600101906020018083116107a457829003601f168201915b5050505050905090565b60006107d6826113b3565b6107f3576040516333d1c03960e21b815260040160405180910390fd5b506000908152600660205260409020546001600160a01b031690565b600061081a826113e8565b9050806001600160a01b0316836001600160a01b03160361084e5760405163250fdee360e21b815260040160405180910390fd5b336001600160a01b0382161461088557610868813361133a565b610885576040516367d9dca160e11b815260040160405180910390fd5b60008281526006602052604080822080546001600160a01b0319166001600160a01b0387811691821790925591518593918516917f8c5be1e5ebec7d5bd14f71427d1e84f3dd0314c0f7b2291e5b200ac8c7c3b92591a4505050565b6015546001600160a01b031633146109145760405162461bcd60e51b815260040161090b90611e63565b60405180910390fd5b600b55565b336001600160a01b037f000000000000000000000000000000000000000000000000000000000000000016146109935760405163073e64fd60e21b81523360048201526001600160a01b037f000000000000000000000000000000000000000000000000000000000000000016602482015260440161090b565b61099d828261145e565b5050565b6109ac838383611471565b505050565b6109ac8383836040518060200160405280600081525061109e565b6015546001600160a01b031633146109f65760405162461bcd60e51b815260040161090b90611e63565b600a55565b6015546001600160a01b03163314610a255760405162461bcd60e51b815260040161090b90611e63565b601554600160a01b900460ff16610a765760405162461bcd60e51b8152602060048201526015602482015274131bdd1d195c9e481a5cc81b9bdd0818db1bdcd959605a1b604482015260640161090b565b60006018805490506013600081548110610a9257610a92611e8a565b9060005260206000200154610aa79190611eb6565b905060188181548110610abc57610abc611e8a565b6000918252602090912001546001600160a01b03166108fc610adf606447611ee0565b610aea906050611ef4565b6040518115909202916000818181858888f19350505050158015610b12573d6000803e3d6000fd5b506019546040516001600160a01b03909116904780156108fc02916000818181858888f19350505050158015610b4c573d6000803e3d6000fd5b5060188181548110610b6057610b60611e8a565b600091825260208083209091015460178054845260169092526040832080546001600160a01b0319166001600160a01b03909216919091179055805491610ba683611f0b565b90915550506040805160008152602081019182905251610bc8916018916119a0565b50610bda600154600054036000190190565b600c556015805460ff60a01b19169055604080516000815260208101918290525161099d91601391611a05565b6000610733826113e8565b6015546001600160a01b03163314610c3c5760405162461bcd60e51b815260040161090b90611e63565b600955565b600d8054610c4e90611e29565b80601f0160208091040260200160405190810160405280929190818152602001828054610c7a90611e29565b8015610cc75780601f10610c9c57610100808354040283529160200191610cc7565b820191906000526020600020905b815481529060010190602001808311610caa57829003601f168201915b505050505081565b600081600003610cf2576040516323d3ad8160e21b815260040160405180910390fd5b506001600160a01b031660009081526005602052604090205467ffffffffffffffff1690565b600260085403610d6a5760405162461bcd60e51b815260206004820152601f60248201527f5265656e7472616e637947756172643a207265656e7472616e742063616c6c00604482015260640161090b565b6002600855601554600160a01b900460ff1615610dbd5760405162461bcd60e51b8152602060048201526011602482015270131bdd1d195c9e481a5cc818db1bdcd959607a1b604482015260640161090b565b600b54610dca8282611ef4565b341015610e0e5760405162461bcd60e51b81526020600482015260126024820152712737ba1032b737bab3b43a10333ab732399760711b604482015260640161090b565b600a54821115610e6c5760405162461bcd60e51b815260206004820152602360248201527f596f752063616e2774206d696e74206d6f7265207468616e203530207469636b60448201526265747360e81b606482015260840161090b565b600c54600954610e7c9190611f24565b82610e8e600154600054036000190190565b610e989190611f24565b1115610efa5760405162461bcd60e51b815260206004820152602b60248201527f4e756d626572206f662072656d61696e696e67207469636b657473206973206960448201526a1b9cdd59999a58da595b9d60aa1b606482015260840161090b565b601880546001810182556000919091527fb13d2d76d1f4b7be834882e410b3e3a8afaf69f83600ae24db354391d2378d2e0180546001600160a01b03191633179055600c54600954610f4c9190611f24565b82610f5e600154600054036000190190565b610f689190611f24565b03610f81576015805460ff60a01b1916600160a01b1790555b610f8b838361162b565b5050600160085550565b6015546001600160a01b03163314610fbf5760405162461bcd60e51b815260040161090b90611e63565b600c55565b60606003805461074890611e29565b6015546001600160a01b03163314610ffd5760405162461bcd60e51b815260040161090b90611e63565b600d61099d8282611f7d565b336001600160a01b038316036110325760405163b06307db60e01b815260040160405180910390fd5b3360008181526007602090815260408083206001600160a01b03871680855290835292819020805460ff191686151590811790915590519081529192917f17307eab39ab6107e8899845ad3d59bd9653f200f220920489ca2b5937696c31910160405180910390a35050565b6110a9848484611471565b6001600160a01b0383163b156110e2576110c584848484611645565b6110e2576040516368d2bf6b60e11b815260040160405180910390fd5b50505050565b6015546001600160a01b031633146111125760405162461bcd60e51b815260040161090b90611e63565b6015805460ff60a01b198116600160a01b9182900460ff1615909102179055565b600e8054610c4e90611e29565b606061114b826113b3565b6111975760405162461bcd60e51b815260206004820152601f60248201527f55524920717565727920666f72206e6f6e6578697374656e7420746f6b656e00604482015260640161090b565b600d6111a283611731565b6040516020016111b392919061203d565b6040516020818303038152906040529050919050565b6015546001600160a01b031633146111f35760405162461bcd60e51b815260040161090b90611e63565b600e61099d8282611f7d565b6015546001600160a01b031633146112295760405162461bcd60e51b815260040161090b90611e63565b601554600160a01b900460ff1661127a5760405162461bcd60e51b8152602060048201526015602482015274131bdd1d195c9e481a5cc81b9bdd0818db1bdcd959605a1b604482015260640161090b565b600f546011546012546040516305d3b1d360e41b81526004810192909252600160a01b830467ffffffffffffffff166024830152640100000000810461ffff16604483015263ffffffff808216606484015266010000000000009091041660848201526001600160a01b0390911690635d3b1d309060a4016020604051808303816000875af1158015611311573d6000803e3d6000fd5b505050506040513d601f19601f8201168201806040525081019061133591906120d4565b601455565b6001600160a01b03918216600090815260076020908152604080832093909416825291909152205460ff1690565b6013818154811061137857600080fd5b600091825260209091200154905081565b6018818154811061139957600080fd5b6000918252602090912001546001600160a01b0316905081565b6000816001111580156113c7575060005482105b8015610733575050600090815260046020526040902054600160e01b161590565b60008180600111611445576000548110156114455760008181526004602052604081205490600160e01b82169003611443575b8060000361143c57506000190160008181526004602052604090205461141b565b9392505050565b505b604051636f96cda160e11b815260040160405180910390fd5b80516109ac906013906020840190611a05565b600061147c826113e8565b9050836001600160a01b0316816001600160a01b0316146114af5760405162a1148160e81b815260040160405180910390fd5b6000828152600660205260408120546001600160a01b03908116919086163314806114df57506114df863361133a565b806114f257506001600160a01b03821633145b90508061151257604051632ce44b5f60e11b815260040160405180910390fd5b8460000361153357604051633a954ecd60e21b815260040160405180910390fd5b811561155657600084815260066020526040902080546001600160a01b03191690555b6001600160a01b038681166000908152600560209081526040808320805460001901905592881682528282208054600101905586825260049052908120600160e11b4260a01b88178117909155841690036115e1576001840160008181526004602052604081205490036115df5760005481146115df5760008181526004602052604090208490555b505b83856001600160a01b0316876001600160a01b03167fddf252ad1be2c89b69c2b068fc378daa952ba7f163c4a11628f55a4df523b3ef60405160405180910390a45b505050505050565b61099d828260405180602001604052806000815250611832565b604051630a85bd0160e11b81526000906001600160a01b0385169063150b7a029061167a9033908990889088906004016120ed565b6020604051808303816000875af19250505080156116b5575060408051601f3d908101601f191682019092526116b29181019061212a565b60015b611713573d8080156116e3576040519150601f19603f3d011682016040523d82523d6000602084013e6116e8565b606091505b50805160000361170b576040516368d2bf6b60e11b815260040160405180910390fd5b805181602001fd5b6001600160e01b031916630a85bd0160e11b1490505b949350505050565b6060816000036117585750506040805180820190915260018152600360fc1b602082015290565b8160005b8115611782578061176c81611f0b565b915061177b9050600a83611ee0565b915061175c565b60008167ffffffffffffffff81111561179d5761179d611b4d565b6040519080825280601f01601f1916602001820160405280156117c7576020820181803683370190505b5090505b8415611729576117dc600183612147565b91506117e9600a86611eb6565b6117f4906030611f24565b60f81b81838151811061180957611809611e8a565b60200101906001600160f81b031916908160001a90535061182b600a86611ee0565b94506117cb565b6000548360000361185557604051622e076360e81b815260040160405180910390fd5b826000036118765760405163b562e8dd60e01b815260040160405180910390fd5b6001600160a01b03841660008181526005602090815260408083208054680100000000000000018902019055848352600490915290204260a01b86176001861460e11b1790558190818501903b1561194b575b60405182906001600160a01b038816906000907fddf252ad1be2c89b69c2b068fc378daa952ba7f163c4a11628f55a4df523b3ef908290a46119146000878480600101955087611645565b611931576040516368d2bf6b60e11b815260040160405180910390fd5b8082106118c957826000541461194657600080fd5b611990565b5b6040516001830192906001600160a01b038816906000907fddf252ad1be2c89b69c2b068fc378daa952ba7f163c4a11628f55a4df523b3ef908290a480821061194c575b5060009081556110e29085838684565b8280548282559060005260206000209081019282156119f5579160200282015b828111156119f557825182546001600160a01b0319166001600160a01b039091161782556020909201916001909101906119c0565b50611a01929150611a40565b5090565b8280548282559060005260206000209081019282156119f5579160200282015b828111156119f5578251825591602001919060010190611a25565b5b80821115611a015760008155600101611a41565b6001600160e01b031981168114611a6b57600080fd5b50565b600060208284031215611a8057600080fd5b813561143c81611a55565b60005b83811015611aa6578181015183820152602001611a8e565b50506000910152565b60008151808452611ac7816020860160208601611a8b565b601f01601f19169290920160200192915050565b60208152600061143c6020830184611aaf565b600060208284031215611b0057600080fd5b5035919050565b80356001600160a01b0381168114611b1e57600080fd5b919050565b60008060408385031215611b3657600080fd5b611b3f83611b07565b946020939093013593505050565b634e487b7160e01b600052604160045260246000fd5b604051601f8201601f1916810167ffffffffffffffff81118282101715611b8c57611b8c611b4d565b604052919050565b60008060408385031215611ba757600080fd5b8235915060208084013567ffffffffffffffff80821115611bc757600080fd5b818601915086601f830112611bdb57600080fd5b813581811115611bed57611bed611b4d565b8060051b9150611bfe848301611b63565b8181529183018401918481019089841115611c1857600080fd5b938501935b83851015611c3657843582529385019390850190611c1d565b8096505050505050509250929050565b600080600060608486031215611c5b57600080fd5b611c6484611b07565b9250611c7260208501611b07565b9150604084013590509250925092565b600060208284031215611c9457600080fd5b61143c82611b07565b600067ffffffffffffffff831115611cb757611cb7611b4d565b611cca601f8401601f1916602001611b63565b9050828152838383011115611cde57600080fd5b828260208301376000602084830101529392505050565b600060208284031215611d0757600080fd5b813567ffffffffffffffff811115611d1e57600080fd5b8201601f81018413611d2f57600080fd5b61172984823560208401611c9d565b60008060408385031215611d5157600080fd5b611d5a83611b07565b915060208301358015158114611d6f57600080fd5b809150509250929050565b60008060008060808587031215611d9057600080fd5b611d9985611b07565b9350611da760208601611b07565b925060408501359150606085013567ffffffffffffffff811115611dca57600080fd5b8501601f81018713611ddb57600080fd5b611dea87823560208401611c9d565b91505092959194509250565b60008060408385031215611e0957600080fd5b611e1283611b07565b9150611e2060208401611b07565b90509250929050565b600181811c90821680611e3d57607f821691505b602082108103611e5d57634e487b7160e01b600052602260045260246000fd5b50919050565b6020808252600d908201526c2737ba103a34329037bbb732b960991b604082015260600190565b634e487b7160e01b600052603260045260246000fd5b634e487b7160e01b600052601260045260246000fd5b600082611ec557611ec5611ea0565b500690565b634e487b7160e01b600052601160045260246000fd5b600082611eef57611eef611ea0565b500490565b808202811582820484141761073357610733611eca565b600060018201611f1d57611f1d611eca565b5060010190565b8082018082111561073357610733611eca565b601f8211156109ac57600081815260208120601f850160051c81016020861015611f5e5750805b601f850160051c820191505b8181101561162357828155600101611f6a565b815167ffffffffffffffff811115611f9757611f97611b4d565b611fab81611fa58454611e29565b84611f37565b602080601f831160018114611fe05760008415611fc85750858301515b600019600386901b1c1916600185901b178555611623565b600085815260208120601f198616915b8281101561200f57888601518255948401946001909101908401611ff0565b508582101561202d5787850151600019600388901b60f8161c191681555b5050505050600190811b01905550565b600080845461204b81611e29565b600182811680156120635760018114612078576120a7565b60ff19841687528215158302870194506120a7565b8860005260208060002060005b8581101561209e5781548a820152908401908201612085565b50505082870194505b5050505083516120bb818360208801611a8b565b64173539b7b760d91b9101908152600501949350505050565b6000602082840312156120e657600080fd5b5051919050565b6001600160a01b038581168252841660208201526040810183905260806060820181905260009061212090830184611aaf565b9695505050505050565b60006020828403121561213c57600080fd5b815161143c81611a55565b8181038181111561073357610733611eca56fea26469706673582212202636ad5c8f014944753c112b5de3de4c25761a077f1af7e085e155d5e879af2f64736f6c63430008110033",
  "linkReferences": {},
  "deployedLinkReferences": {}
}